:100000000C9435010C9466010C9466010C94660105
:100010000C9466010C9466010C9466010C946601C4
:100020000C9466010C9466010C9466010C946601B4
:100030000C9466010C9466010C9466010C946601A4
:100040000C9466010C9466010C9466010C94660194
:100050000C9466010C9466010C9466010C945E038A
:100060000C9466010C94A6030C94D7030C946601BF
:100070000C9466010C9466010C9466010C94660164
:100080000C9466010C9466010C9466010C94660154
:100090000C9466010C9466010C9466010C94660144
:1000A0000C9466010C9466010C9466010C94660134
:1000B0000C9466010C9466010C9466010C94660124
:1000C0000C9466010C9466010C9466010C94660114
:1000D0000C9466010C9466010C9466010C94660104
:1000E0000C9466010C94DA010C94C2010C94CC01BE
:1000F0000C9495020C94BC010C9441020C94870260
:100100000C94D4010C94D0010C94B8020C94A70167
:100110000C94AD010C94E2010C9425030C94E801BD
:100120000C94B9010C94EC010C94A9020C94D80223
:100130000C9401040C94B1010C94B5010C94C6010B
:100140000C94DE010C94E70100002100240027003C
:100150002A002D00300033000101000004010701D6
:100160000A01000020002300260029002C002F0097
:100170003200000100000301060109010000220015
:10018000250028002B002E00310034000201000061
:10019000050108010B010505050507050808080804
:1001A000020202020A0A080804040404010101010F
:1001B000010101010303030303030303040707070A
:1001C0000C0C0C0C0C0C0C0C0202020206060606AF
:1001D000060606060B0B0B0B0B0B0B0B010210207C
:1001E000200808102040102040800201020108046D
:1001F0000201010204081020408080402010080401
:100200000201800402018040201008040201080459
:10021000020101020408102040800102040810209D
:10022000408000000A0B02090C0D0E0807030401B0
:1002300000000000000000000000000000000000BE
:10024000000000000000000000000000000012118B
:10025000100000000000000000000000000000008E
:100260000000000000000000010411241FBECFEFB9
:10027000D1E2DEBFCDBF00E00CBF12E0A0E0B2E0F3
:10028000EAEAFCE000E00BBF02C007900D92A83143
:10029000B107D9F722E0A8E1B2E001C01D92A43C69
:1002A000B207E1F711E0C5E3D1E000E006C0219715
:1002B0000109802FFE010E943906C433D10780E076
:1002C0000807A9F70E942E040C9441060C94000024
:1002D000CF93DF9300D00F92CDB7DEB73FB7F8943E
:1002E0008091BB029091BC02A091BD02B091BE0270
:1002F00026B5A89B05C02F3F19F00196A11DB11D81
:100300003FBFBA2FA92F982F8827820F911DA11DBB
:10031000B11D9C01AD0162E0220F331F441F551F28
:100320006A95D1F7CA01B9010F900F900F900F9005
:10033000DF91CF9108958150823108F048C0E82FB5
:10034000F0E08827ED5BF94F8F4F0C9439068091D0
:1003500080008F77809380000895809180008F7D4A
:10036000F9CF80918000877FF5CF84B58F7784BDEA
:10037000089584B58F7DFBCF8091B0008F778093F7
:10038000B00008958091B0008F7DF9CF80919000EA
:100390008F77809390000895809190008F7DF9CFA2
:1003A00080919000877FF5CF8091A0008F77809318
:1003B000A00008958091A0008F7DF9CF8091A000CA
:1003C000877FF5CF809120018F778093200108955A
:1003D000809120018F7DF9CF80912001877FF5CF1B
:1003E0001F93CF93DF93162F282F30E0F901EE5D96
:1003F000FD4F8491F901E452FE4FD491F901EA5680
:10040000FE4FC491CC23A1F081110E949B01EC2FDF
:10041000F0E0EE0FFF1FE458FE4FA591B4919FB797
:10042000F8948C91111108C0D095D823DC939FBF0C
:10043000DF91CF911F9108958D2B8C93F8CFFC0104
:10044000848DDF01A80FB11DA35ABF4F2C91848D5D
:1004500090E001968F739927848FA689B7892C9392
:10046000A089B1898C91837080648C93938D848DE5
:10047000981306C00288F389E02D80818F7D8083E8
:100480000895FC01818D228D90E0805C9F4F821B3E
:1004900091098F73992708958EE192E00E9441029D
:1004A0009C0181E0232B09F480E0089580E090E036
:1004B000892B29F00E944C0281110E94000080E0EB
:1004C00090E0892B49F080E090E0892B29F00E9490
:1004D000000081110E94000080E090E0892B49F02B
:1004E00080E090E0892B29F00E94000081110E9499
:1004F000000080E090E0892B49F080E090E0892BBB
:1005000029F00E94000081110C9400000895FC0164
:10051000918D828D981731F0828DE80FF11D858DB8
:1005200090E008958FEF9FEF0895FC01918D828DEB
:10053000981761F0828DDF01A80FB11D5D968C9137
:10054000928D9F5F9F73928F90E008958FEF9FEF42
:100550000895FC01538D448D252F30E0842F90E0C9
:10056000821B930B541710F0CF96089501970895AE
:10057000CF93DF93EC01888D81110FC0DF91CF9174
:1005800008950FB607FC0DC08C9185FF08C08081CF
:1005900085FF03C0CE010E941F02AA89BB89E8899A
:1005A000F9898C9185FDEDCF808186FFEACFE6CF7A
:1005B000EF92FF920F931F93CF93DF93EC01F62EF0
:1005C00081E0888F9B8D8C8D98131AC0E889F989FA
:1005D000808185FF15C09FB7F894EE89FF896083FD
:1005E000E889F98980818370806480839FBF81E07E
:1005F00090E0DF91CF911F910F91FF90EF900895C0
:100600000B8D10E00F5F1F4F0F731127E02E8C8DA5
:100610008E1579F08B8DFE01E80FF11DE35AFF4F27
:10062000F0829FB7F8940B8FEA89FB898081806202
:10063000DCCF0FB607FCEBCFE889F989808185FF15
:10064000E6CFCE010E941F02E2CFCF92DF92EF925F
:10065000FF920F931F93CF93DF937C016A0110E009
:1006600000E00C151D0551F4C801DF91CF911F91D9
:100670000F91FF90EF90DF90CF900895EB01D7019D
:10068000ED91FC910190F081E02D6991C7011995E0
:10069000892B51F30F5F1F4FBE01E3CFBC010097C1
:1006A00061F0FC0101900020E9F73197AF01481B90
:1006B000590B8EE192E00C94250308951F921FB60A
:1006C0001F9211242F933F938F939F93AF93BF93C8
:1006D0008091C0029091C102A091C202B091C30268
:1006E0003091BF0223E0230F2D3750F50196A11D55
:1006F000B11D2093BF028093C0029093C102A093CA
:10070000C202B093C3028091BB029091BC02A0913F
:10071000BD02B091BE020196A11DB11D8093BB0226
:100720009093BC02A093BD02B093BE02BF91AF9163
:100730009F918F913F912F911F901FBE1F901895F1
:1007400026E8230F0296A11DB11DD3CF2F932FB7FB
:100750002F932BB72F938F939F93EF93FF93E0915A
:100760002E02F0912F028081E0913402F091350247
:1007700082FD1BC09081809137028F5F8F73209123
:100780003802821741F0E0913702F0E0E25EFD4F5F
:10079000958F80933702FF91EF919F918F912F91C9
:1007A0002BBF2F912FBF2F9118958081F4CF1F92CF
:1007B0000F920FB60F9211240BB60F922F933F9307
:1007C0004F935F936F937F938F939F93AF93BF9359
:1007D000EF93FF938EE192E00E941F02FF91EF9151
:1007E000BF91AF919F918F917F916F915F914F9149
:1007F0003F912F910F900BBE0F900FBE0F901F9047
:100800001895EEE1F2E01382128288EE93E0A0E008
:10081000B0E084839583A683B78386E092E09183DA
:10082000808385EC90E09587848784EC90E09787BF
:10083000868780EC90E0918B808B81EC90E0938BAD
:10084000828B82EC90E0958B848B86EC90E0978B8A
:10085000868B118E128E138E148E0895CDB7DEB74F
:10086000A5970FB6F894DEBF0FBECDBF789484B5C0
:10087000826084BD84B5816084BD85B5826085BD9C
:1008800085B5816085BD80916E00816080936E002A
:10089000109281008091810082608093810080911C
:1008A00081008160809381008091800081608093CD
:1008B00080008091B10084608093B1008091B0008D
:1008C00081608093B000809191008260809391005C
:1008D000809191008160809391008091900081606F
:1008E000809390008091A10082608093A10080910C
:1008F000A10081608093A1008091A000816080931D
:10090000A0008091210182608093210180912101CA
:10091000816080932101809120018160809320017A
:1009200080917A00846080937A0080917A0082605E
:1009300080937A0080917A00816080937A00809120
:100940007A00806880937A001092C100E0EEF1E0B6
:100950002491EAE9F1E084918823C9F090E0880FBE
:10096000991FFC01E85BFE4FA591B491FC01E4588E
:10097000FE4F459154913FB7F8949C91822F8095FA
:1009800098239C93DA019C9189238C933FBF61E06B
:1009900084E00E94F001E8EEF1E02491E2EAF1E067
:1009A00084918823A1F090E0880F991FFC01E85BF7
:1009B000FE4FA591B491FC01E458FE4F85919491AE
:1009C0008FB7F8949C91E22FE92BEC938FBFE091C5
:1009D0002E02F0912F0282E08083E0912A02F091B2
:1009E0002B021082E0912C02F0912D028FEC80837B
:1009F00010923602E0913202F091330286E0808359
:100A0000E0913002F0913102808180618083E09139
:100A10003002F0913102808188608083E091300261
:100A2000F0913102808180688083E0913002F09102
:100A3000310280818F7D808326E2222E22E0322EB9
:100A40003AE0432E512C612C712CF1018491E0EE9F
:100A5000F1E01491EAE9F1E00491002309F4C4C043
:100A600081110E949B01E02FF0E0EE0FFF1FEE5975
:100A7000FE4FA591B4918C91182321E009F420E058
:100A8000822F90E090931D0280931C02209100021F
:100A9000309101022817390799F42FB7F894809103
:100AA000C0029091C102A091C202B091C3022FBFB7
:100AB0008093180290931902A0931A02B0931B021C
:100AC0002FB7F8948091C0029091C102A091C20208
:100AD000B091C3022FBF409118025091190260914A
:100AE0001A0270911B02841B950BA60BB70BC397C0
:100AF000A105B10540F080911C0290911D029093D8
:100B0000010280930002609100028CE00E94F001DB
:100B100080911C0290911D024C01092E000CAA0824
:100B2000BB0897FF63C06DE28EE192E00E94D8029D
:100B300088279927DC0188199909AA09BB098AA382
:100B40009BA3ACA3BDA319A28E010F5D1F4F6AA189
:100B50007BA18CA19DA1A30192010E9417068AA1ED
:100B60009BA1ACA1BDA12AA33BA34CA35DA3605D47
:100B7000F80162938F010A97A105B10540F7C801FA
:100B80000E944E0384E192E00E944E030E9468019D
:100B90006B017C0188E8882E83E1982EA12CB12C72
:100BA0000E9468016AA37BA38CA39DA3DC01CB01F7
:100BB0008C199D09AE09BF09883E9340A105B10576
:100BC00078F3F1E08F1A9108A108B10828EEC20E5F
:100BD00023E0D21EE11CF11C81149104A104B10494
:100BE000F9F60E94560231CF80E04BCFD82CE92C89
:100BF000FA2CCB2C19A28E010F5D1F4F6D2D7E2D6F
:100C00008F2D9C2DA30192010E9417068D2D9E2DE4
:100C1000AF2DBC2DD22EE32EF42EC52E605DF80133
:100C200062938F010A97A105B10540F7A8CFA1E211
:100C30001A2EAA1BBB1BFD010DC0AA1FBB1FEE1F56
:100C4000FF1FA217B307E407F50720F0A21BB30BA1
:100C5000E40BF50B661F771F881F991F1A9469F71D
:100C600060957095809590959B01AC01BD01CF0179
:100C70000895EE0FFF1F881F8BBF0790F691E02DA0
:100C80001994F894FFCFB501B901A701AD01B101E5
:100C9000E701BC01C201C601CC01D001D401DA01D7
:0A0CA000DE01E701E201E801EC01CA
:100CAA00010000000000D8022503A902B80241028F
:080CBA00950287020D0A0000FB
:00000001FF
