:100000000C946E010C949F010C949F010C949F0121
:100010000C949F010C949F010C949F010C949F01E0
:100020000C949F010C949F010C949F010C949F01D0
:100030000C949F010C949F010C949F010C949F01C0
:100040000C949F010C949F010C949F010C949F01B0
:100050000C949F010C949F010C949F010C942F0A07
:100060000C949F010C94770A0C94A80A0C949F019D
:100070000C949F010C949F010C949F010C949F0180
:100080000C949F010C949F010C949F010C949F0170
:100090000C949F010C949F010C949F010C940D09EA
:1000A0000C949F010C949F010C949F010C949F0150
:1000B0000C949F010C949F010C949F010C949F0140
:1000C0000C949F010C949F010C949F010C949F0130
:1000D0000C949F010C949F010C949F010C949F0120
:1000E0000C949F0107634236B79BD8A71A3968560C
:1000F00018AEBAAB558C1D3CB7CC5763BD6DEDFD4A
:10010000753EF6177231BF000000803F0800000006
:10011000BE922449123EABAAAA2ABECDCCCC4C3EFC
:1001200000000080BEABAAAAAA3E00000000BF00EB
:100130000000803F0000000000084178D3BB4387E7
:10014000D1133D190E3CC3BD4282AD2B3E68EC82FB
:1001500076BED98FE1A93E4C80EFFFBE01C4FF7F80
:100160003F00000000000C9413030C9485040C94D1
:10017000AB010C9418040C9421030C94A1010C9471
:100180002C110C94CD010C942B030C9427030C948C
:10019000E3020C9438040C9435030C9406030C947D
:1001A000FA020C94F6010C94BE010C94FE020C941D
:1001B000A1030C9419030C94F5030C942F030C94D5
:1001C000CF010C94E7030C9409030C941D030C94C9
:1001D00009040C940F030C94A4010C9402030C94D6
:1001E000E8020C94CE010C9425020C943903000013
:1001F0002200250028002B002E00310034000201CF
:100200000000050108010B010505050507050808A3
:100210000808020202020A0A080804040404010190
:1002200001010101010103030303030303030407A5
:1002300007070C0C0C0C0C0C0C0C0202020206063C
:100240000606060606060B0B0B0B0B0B0B0B01022F
:1002500010202008081020401020408002010201D8
:100260000804020101020408102040808040201090
:1002700008040201800402018040201008040201E9
:100280000804020101020408102040800102040851
:100290001020408000000A0B02090C0D0E08070315
:1002A0000401000000000000000000000000000049
:1002B000000000000000000000000000000000003E
:1002C00012111000000000000000000000000000FB
:1002D000000000000000000000002C1111241FBECF
:1002E000CFEFD1E2DEBFCDBF00E00CBF13E0A0E056
:1002F000B2E0EAEDFAE200E00BBF02C007900D9217
:10030000A639B107D9F725E0A6E9B3E001C01D92EF
:10031000AD34B207E1F711E0CEE6D1E000E006C06F
:1003200021970109802FFE010E944815CD36D10783
:1003300080E00807A9F70E94D20A0C9459150C9482
:10034000000090E080E008958091290590912805B3
:10035000891B990B089590912805809129052FEF0D
:100360003FEF981748F4E92FF0E0E85FFA4F20815B
:1003700030E09F5F90932805C9010895E09128051A
:1003800080912905E81730F4F0E0E85FFA4F8081AA
:1003900090E008958FEF9FEF0895089508950895D0
:1003A00020910405260F3327331F21323105E4F451
:1003B00020910705FC0190E080E0243061F082E0AC
:1003C0000895309104052191DC01AC51BB4FA30F7E
:1003D000B11D2C9301968617A0F380910405680F38
:1003E0006093040580E0089581E00895CF93DF9342
:1003F0000F92CDB7DEB7FC01698380914C0588234D
:10040000F1F080914B05803250F081E090E09383D1
:10041000828390E080E00F90DF91CF9108958091EA
:100420004A05E82FF0E0E65DFA4F998190838F5FEF
:1004300080934A0580934B0581E090E0ECCF61E02A
:10044000CE0101960E94D001F7CFCF92DF92EF92BA
:10045000FF920F931F93CF93DF937C01CB018A010F
:1004600020914C052223D9F0EB016B01C40ED51E5F
:10047000CC15DD0551F4C801DF91CF911F910F918B
:10048000FF90EF90DF90CF9008956991D701ED91A3
:10049000FC910190F081E02DC7011995E9CF642FFF
:1004A0000E94D001E8CFCF93DF9300D00F92CDB759
:1004B000DEB73FB7F89480918B0490918C04A091A3
:1004C0008D04B0918E0426B5A89B05C02F3F19F06E
:1004D0000196A11DB11D3FBFBA2FA92F982F8827C4
:1004E000820F911DA11DB11D9C01AD0162E0220F83
:1004F000331F441F551F6A95D1F7CA01B9010F90E8
:100500000F900F900F90DF91CF9108958F929F924F
:10051000AF92BF92CF92DF92EF92FF92CF93DF9391
:1005200000D00F92CDB7DEB74B015C010E945302A1
:100530006B017C010E945302DC01CB018C199D09E7
:10054000AE09BF09883E9340A105B10598F321E0AB
:10055000821A9108A108B10888EEC80E83E0D81E5F
:10056000E11CF11C81149104A104B10419F70F904E
:100570000F900F900F90DF91CF91FF90EF90DF9051
:10058000CF90BF90AF909F908F900895282F30E02C
:10059000F901EC56FD4F9491F901E25BFD4F449156
:1005A000285F3D4FF9012491222319F1992381F00D
:1005B0009150923168F4E92FF0E08827E55AFA4E1D
:1005C0008F4F0C944815809180008F778093800026
:1005D000E22FF0E0EE0FFF1FE251FE4FA591B49124
:1005E0009FB7F8948C91611148C0409548234C9373
:1005F0009FBF0895809180008F7DE8CF809180001B
:10060000877FE4CF84B58F7784BDE2CF84B58F7DBB
:10061000FBCF8091B0008F778093B000D9CF8091CD
:10062000B0008F7DF9CF809190008F7780939000FC
:10063000CFCF809190008F7DF9CF80919000877F00
:10064000F5CF8091A0008F778093A000C1CF8091DB
:10065000A0008F7DF9CF8091A000877FF5CF80919A
:1006600020018F7780932001B3CF809120018F7D6F
:10067000F9CF80912001877FF5CF842B8C93B8CF61
:100680001092070581E0809306051092050561E050
:1006900084E10E94C60261E085E10E94C602E9EBA6
:1006A000F0E080818E7F808380818D7F808388E4ED
:1006B0008093B80085E48093BC000895CF93DF93C6
:1006C00091E09093DE048823B9F0C091B800D091F6
:1006D000BA008091BC008A7B8093BC0060E084E11A
:1006E0000E94C60260E085E10E94C6020E944003AB
:1006F000D093BA00C093B800DF91CF910895FC0168
:10070000848DDF01A80FB11DA35ABF4F2C91848D9A
:1007100090E001968F739927848FA689B7892C93CF
:10072000A089B1898C91837080648C93938D848D22
:10073000981306C00288F389E02D80818F7D808325
:100740000895FC01818D228D90E0805C9F4F821B7B
:1007500091098F73992708958EEE93E00E94A1036B
:100760009C0181E0232B09F480E0089580E090E073
:10077000892B29F00E94AC0381110E94000080E0C7
:1007800090E0892B49F080E090E0892B29F00E94CD
:10079000000081110E94000080E090E0892B49F068
:1007A00080E090E0892B29F00E94000081110E94D6
:1007B000000080E090E0892B49F080E090E0892BF8
:1007C00029F00E94000081110C9400000895FC01A2
:1007D000918D828D981731F0828DE80FF11D858DF6
:1007E00090E008958FEF9FEF0895FC01918D828D29
:1007F000981761F0828DDF01A80FB11D5D968C9175
:10080000928D9F5F9F73928F90E008958FEF9FEF7F
:100810000895FC01538D448D252F30E0842F90E006
:10082000821B930B541710F0CF96089501970895EB
:10083000CF93DF93EC01888D81110FC0DF91CF91B1
:1008400008950FB607FC0DC08C9185FF08C080810C
:1008500085FF03C0CE010E947F03AA89BB89E88976
:10086000F9898C9185FDEDCF808186FFEACFE6CFB7
:10087000EF92FF920F931F93CF93DF93EC01F62E2D
:1008800081E0888F9B8D8C8D98131AC0E889F98937
:10089000808185FF15C09FB7F894EE89FF8960833A
:1008A000E889F98980818370806480839FBF81E0BB
:1008B00090E0DF91CF911F910F91FF90EF900895FD
:1008C0000B8D10E00F5F1F4F0F731127E02E8C8DE3
:1008D0008E1579F08B8DFE01E80FF11DE35AFF4F65
:1008E000F0829FB7F8940B8FEA89FB898081806240
:1008F000DCCF0FB607FCEBCFE889F989808185FF53
:10090000E6CFCE010E947F03E2CFCF92DF92EF923B
:10091000FF920F931F93CF93DF937C016A0110E046
:1009200000E00C151D0551F4C801DF91CF911F9116
:100930000F91FF90EF90DF90CF900895EB01D701DA
:10094000ED91FC910190F081E02D6991C70119951D
:10095000892B51F30F5F1F4FBE01E3CF8F929F9200
:10096000AF92BF92CF92DF92EF92FF92CF93DF933D
:1009700000D000D0CDB7DEB780914B058E83813299
:1009800008F0F3C0F09096030E9453024B015C0103
:10099000809107058D83811175C082E080930705E2
:1009A00081E0809306058FEF8093BA041092DC04F7
:1009B0008E818093DB04482F50E06AE275E08BEB78
:1009C00094E00E9450151092DD048091DD04FF0C2C
:1009D000F82AF092DD0480910505813009F099C074
:1009E000109205050E9453026B017C018091DD0489
:1009F0008093BB008091E0049091E104A091E20417
:100A0000B091E304892B8A2B8B2BE1F00E945302D7
:100A100069837A838B839C834091E0045091E10445
:100A20006091E2047091E30489819A81AB81BC8179
:100A30008C199D09AE09BF09481759076A077B073A
:100A400008F449C08091BC0083FDD0CF85EC809331
:100A5000BC000E9453026B017C018091070582302B
:100A600009F459C08091BA048F3FD9F18091BA043A
:100A7000803209F47CC08091BA04803309F479C0D3
:100A800084E02EC08091E0049091E104A091E20402
:100A9000B091E304892B8A2B8B2B09F479CF0E9428
:100AA000530269837A838B839C834091E004509145
:100AB000E1046091E2047091E30489819A81AB8141
:100AC000BC8188199909AA09BB09481759076A07FF
:100AD0007B0708F05DCF8091DF040E945E0385E014
:100AE0008D8310924A0510924B0510924C058D8112
:100AF00026960FB6F894DEBF0FBECDBFDF91CF9123
:100B0000FF90EF90DF90CF90BF90AF909F908F902D
:100B1000089585EE9CCF8091E0049091E104A0912E
:100B2000E204B091E304892B8A2B8B2B09F495CF37
:100B30000E94530269837A838B839C834091E004F3
:100B40005091E1046091E2047091E30489819A81FB
:100B5000AB81BC818C199D09AE09BF0948175907A3
:100B60006A077B0708F079CFB6CF81E0B9CF82E082
:100B7000B7CF83E0B5CFBF92CF92DF92EF92FF92D3
:100B80000F931F93CF93DF9300D000D0CDB7DEB784
:100B90008C016D8381E080934C0587E780939603F9
:100BA00010924A0510924B05F801608187E993E0A5
:100BB0000E94F6010E94AE048093ED038111F9C0FA
:100BC0000E9453026B017C01F0910705FE83F11135
:100BD00053C0BD8081E080930705809306059FEF99
:100BE0009093BA041092DC049B2D91509093DB04F7
:100BF0008093DD048091DD048E6E8093DD0480910E
:100C00000505813009F0ABC0109205050E94530222
:100C10006B017C018091DD048093BB008091E00436
:100C20009091E104A091E204B091E304892B8A2B16
:100C30008B2B09F474C00E94530269837A838B83DF
:100C40009C834091E0045091E1046091E204709132
:100C5000E30489819A81AB81BC818C199D09AE091D
:100C6000BF09481759076A077B0708F058C08091E9
:100C7000DF040E945E032EC08091E0049091E104A5
:100C8000A091E204B091E304892B8A2B8B2B09F409
:100C90009BCF0E94530269837A838B839C8340910C
:100CA000E0045091E1046091E2047091E3048981D1
:100CB0009A81AB81BC818C199D09AE09BF09481787
:100CC00059076A077B0708F07FCF8091DF040E94F5
:100CD0005E031E8210922805EE81E09329050983A8
:100CE000780187E993E00E94AB01F70181937F01CE
:100CF0008E2FF9818F1B9D8189179CF381E02696A9
:100D00000FB6F894DEBF0FBECDBFDF91CF911F911C
:100D10000F91FF90EF90DF90CF90BF90089580915A
:100D2000BC0083FD77CF85EC8093BC000E9453020A
:100D30006B017C0180910705813099F08091DC0482
:100D40009D81891710F4B090DC044B2D50E06BEBC3
:100D500074E088E095E00E945015BE82BBCF85EE1E
:100D6000E3CF8091E0049091E104A091E204B0917E
:100D7000E304892B8A2B8B2BE9F20E9453026983AF
:100D80007A838B839C834091E0045091E1046091CD
:100D9000E2047091E30489819A81AB81BC818C1952
:100DA0009D09AE09BF09481759076A077B0710F666
:100DB0005ECF80E0A4CF0F931F93CF93DF930F926A
:100DC0000F92CDB7DEB78B01898362E0CE01019629
:100DD0000E94BB0530E020E0882331F029813A8170
:100DE00032272327322781E0F801318320830F90B7
:100DF0000F90DF91CF911F910F9108950F931F9343
:100E0000CF93DF930F920F92CDB7DEB78B0189831B
:100E100062E0CE0101960E94BB0530E020E088230D
:100E200031F029813A8132272327322781E0F801E6
:100E3000318320830F900F90DF91CF911F910F91FD
:100E40000895BC0181E080934C0587E78093960369
:100E500010924A0510924B0542E050E087E993E07A
:100E60000E9425020E94AE04982F8093ED0381E03A
:100E7000911180E0089585ED8093BC008091E0049D
:100E80009091E104A091E204B091E3040796A11DC2
:100E9000B11D23E0B695A795979587952A95D1F72B
:100EA0002091BC0024FD03C01092070508954091D5
:100EB000E0045091E1046091E2047091E304452B59
:100EC000462B472B69F30097A105B10541F025E3B7
:100ED0002A95F1F700000197A109B109E1CF8091AE
:100EE000DF040C945E03BC01009761F0FC010190EB
:100EF0000020E9F73197AF01481B590B8EEE93E0C4
:100F00000C94850408950E94730784E292E00C9487
:100F100073070C9473072F923F924F925F926F92D8
:100F20007F928F929F92AF92BF92CF92DF92EF9279
:100F3000FF920F931F93CF93DF93CDB7DEB7AA979E
:100F40000FB6F894DEBF0FBECDBF8B019C010AA384
:100F50001BA32CA33DA3742EAC019B010E94211561
:100F60008823E1F087E292E0AA960FB6F894DEBFFC
:100F70000FBECDBFDF91CF911F910F91FF90EF90EA
:100F8000DF90CF90BF90AF909F908F907F906F90A9
:100F90005F904F903F902F900C9473078AA19BA174
:100FA000ACA1BDA1BF778EA39FA3A8A7B9A72FEF20
:100FB0003FEF4FE75FE7BC01CD010E942115811192
:100FC0000FC02FEF3FEF4FE75FE76EA17FA188A52E
:100FD00099A50E94C41418161CF48BE292E0C4CFA9
:100FE0002FEF3FEF4FE75FE46AA17BA18CA19DA1AA
:100FF0000E941C1518161CF48FE292E0B5CF2FEF5B
:101000003FEF4FE75FEC6AA17BA18CA19DA10E94FD
:10101000C41487FDF1CF20E030E0A9016AA17BA1D3
:101020008CA19DA10E94C41487FF0EC06DE28EEEBC
:1010300093E00E9438048AA19BA1ACA1BDA1B05845
:101040008AA39BA3ACA3BDA3672C10E060E070E073
:1010500080E09FE3711272C02AA13BA14CA15DA167
:101060006AA37BA38CA39DA36AA17BA18CA19DA154
:101070000E947C137B018C016AA3FBA28CA31DA39D
:101080006AA17BA18CA19DA10E94C9145B016C0186
:101090000E945A149B01AC016AA17BA18CA19DA165
:1010A0000E947B13162F072FF82EE92E19A24E014E
:1010B00091E2890E911C8EA29AA69AE0292E312CDB
:1010C000412C512CB501C601A20191010E942615A7
:1010D000C501D60159016A01605DF40162934F01B7
:1010E0000A97A105B10570F7CF010E947307772019
:1010F00061F06EE28EEE93E00E9438048AE0882E62
:10110000912CA12CB12C611029C0AA960FB6F8948D
:10111000DEBF0FBECDBFDF91CF911F910F91FF902A
:10112000EF90DF90CF90BF90AF909F908F907F9087
:101130006F905F904F903F902F90089520E030E0A7
:1011400040E251E46EA37FA388A799A76EA17FA177
:1011500088A599A50E94E8131F5F7CCF20E030E0AE
:1011600040E251E41AA30BA3FCA2EDA26AA17BA169
:101170008CA19DA10E940E13362E472E582E792E3B
:101180006AA37BA38CA39DA36AA17BA18CA19DA133
:101190000E94C9146B01CB01B0E0A0E08AA39BA31D
:1011A000ACA3BDA319A20EA11AA56AA17BA18CA113
:1011B0009DA1A50194010E9426158AA19BA1ACA125
:1011C000BDA12AA33BA34CA35DA3605DF80162937C
:1011D0008F010A97A105B10540F7CF010E9473075F
:1011E000C601B0E0A0E08AA39BA3ACA3BDA3B60157
:1011F000CD010E945A149B01AC013AA24BA25CA201
:101200007DA26AA17BA18CA19DA10E947B13162FB8
:10121000072FF82EE92E6A9476CF1F920F920FB601
:101220000F9211240BB60F922F933F934F935F931E
:101230006F937F938F939F93AF93BF93EF93FF939E
:101240009091B900892F887F803509F4C3C008F0D8
:1012500044C0803309F4B9C0A8F5883111F1E0F435
:10126000883009F4AAC0803109F4A7C0882309F4A2
:10127000F3C0FF91EF91BF91AF919F918F917F91BB
:101280006F915F914F913F912F910F900BBE0F90F7
:101290000FBE0F901F901895803209F496C08832C7
:1012A00041F79091DC048091DB04981780F5E09180
:1012B000DC0481E08E0F8093DC04F0E0E554FB4F0A
:1012C00080817DC0803409F491C0883409F47FC0E6
:1012D000883379F68093BA046EC0803A09F4A0C0CE
:1012E000C0F5803809F48AC058F5803619F1E0F469
:1012F000883509F0BECFE091DC0481E08E0F809349
:10130000DC048091BB00F0E0E554FB4F80838091CA
:10131000060581115CC081E08093050584EA809315
:10132000BC0010920705A5CF803721F0987E983633
:1013300009F09FCF83E0809307051092B90441C064
:10134000803909F45BC0987E983809F092CF85E81F
:1013500039C0883BD9F058F5883A19F0803B09F03C
:1013600088CF84E0809307051092960410920405BC
:10137000E0919404F09195041995809104058111F0
:1013800005C081E0809304051092E404E091960486
:1013900081E08E0F80939604F0E0EC51FB4F80814A
:1013A0008093BB00909196048091040523C0907FA8
:1013B000903C09F05ECF85ECB2CF8091DD04809344
:1013C000BB0085EC8093BC0054CF8093BA040E948C
:1013D0003B074FCFE091DC0481E08E0F8093DC046B
:1013E0008091BB00F0E0E554FB4F80839091DC04DA
:1013F0008091DB04981708F0AACFE3CF8091B9045D
:10140000803208F0A4CFE091B90481E08E0F809380
:10141000B9048091BB00F0E0E756FB4F8083D1CF49
:1014200085EC8093BC00109207058091B90480324E
:1014300030F4E091B904F0E0E756FB4F1082609180
:10144000B90470E0E0919704F091980489E994E080
:1014500019951092B9040DCF1092BA04B8CF1F920B
:101460001FB61F9211242F933F938F939F93AF9397
:10147000BF938091900490919104A0919204B091B7
:10148000930430918F0423E0230F2D3750F50196FC
:10149000A11DB11D20938F0480939004909391041B
:1014A000A0939204B093930480918B0490918C0448
:1014B000A0918D04B0918E040196A11DB11D809361
:1014C0008B0490938C04A0938D04B0938E04BF91F1
:1014D000AF919F918F913F912F911F901FBE1F90B1
:1014E000189526E8230F0296A11DB11DD3CF2F9387
:1014F0002FB72F932BB72F938F939F93EF93FF9338
:10150000E091FE03F091FF038081E0910404F091EB
:10151000050482FD1BC09081809107048F5F8F734B
:1015200020910804821741F0E0910704F0E0E251B5
:10153000FC4F958F80930704FF91EF919F918F91BE
:101540002F912BBF2F912FBF2F9118958081F4CF12
:101550001F920F920FB60F9211240BB60F922F937A
:101560003F934F935F936F937F938F939F93AF932B
:10157000BF93EF93FF938EEE93E00E947F03FF9162
:10158000EF91BF91AF919F918F917F916F915F91FB
:101590004F913F912F910F900BBE0F900FBE0F9068
:1015A0001F90189500D000D000D0CDB7DEB778944A
:1015B00084B5826084BD84B5816084BD85B5826058
:1015C00085BD85B5816085BD80916E008160809309
:1015D0006E00109281008091810082608093810072
:1015E0008091810081608093810080918000816082
:1015F000809380008091B10084608093B1008091DD
:10160000B00081608093B0008091910082608093EF
:101610009100809191008160809391008091900071
:101620008160809390008091A10082608093A100EE
:101630008091A10081608093A1008091A0008160D1
:101640008093A0008091210182608093210180918C
:10165000210181608093210180912001816080932C
:10166000200180917A00846080937A0080917A00D2
:10167000826080937A0080917A00816080937A0002
:1016800080917A00806880937A001092C100E09186
:10169000FE03F091FF0382E08083E091FA03F09172
:1016A000FB031082E091FC03F091FD038FEC80833B
:1016B00010920604E0910204F091030486E0808316
:1016C000E0910004F0910104808180618083E091C9
:1016D0000004F0910104808188608083E09100041F
:1016E000F0910104808180688083E0910004F09192
:1016F000010480818F7D808383E392E00E948307D1
:10170000109228051092290510924A0510924B0557
:101710000E9440038FEC91E0909395048093940491
:101720008EEC91E0909398048093970463EA73E0C1
:101730008AEA0E94FE06882309F43BC265EA73E048
:101740008CEA0E94FE06882309F433C267EA73E03C
:101750008EEA0E94FE06882309F42BC263EB73E035
:1017600080EB0E94DB06882309F423C265EB73E05B
:1017700082EB0E94DB06882309F41BC267EB73E04F
:1017800084EB0E94DB06882309F413C269EA73E044
:1017900086EB0E94FE06882309F40BC26BEA73E015
:1017A00088EB0E94FE06882309F403C26DEA73E009
:1017B0008AEB0E94FE06882309F4FBC16FEA73E0FE
:1017C0008CEB0E94FE06882309F4F3C161EB73E001
:1017D0008EEB0E94FE06882309F4EBC18091A703DB
:1017E0009091A8039C01990F440B550B2C833D83CA
:1017F0004E835F83CA01B9010E945C1420E030E08F
:1018000040EA5BE36C837D838E839F836C817D8163
:101810008E819F810E940E133B014C018091B30386
:101820009091B4039C0150E040E02C833D834E83B3
:101830005F83CA01B9010E945A142FE632E143E0E6
:1018400053E36C837D838E839F836C817D818E8146
:101850009F810E940E137B018C018091A9039091BE
:10186000AA039C01990F440B550B2C833D834E8397
:101870005F83CA01B9010E945C1420E030E048ECAB
:1018800057E36C837D838E839F836C817D818E8102
:101890009F810E940E135B016C018091B5039091B2
:1018A000B6039C0150E040E02C833D834E835F8370
:1018B000CA01B9010E945A142DEC3CEC4CE454E3EB
:1018C0006C837D838E839F836C817D818E819F81DC
:1018D0000E940E136093B9037093BA038093BB0305
:1018E0009093BC038091B7039091B8039C0150E0A2
:1018F00040E02C833D834E835F83CA01B9010E947F
:101900005A146093BD037093BE038093BF039093FA
:10191000C0038091AF039091B0039C01990F440BD9
:10192000550B2C833D834E835F83CA01B9010E940E
:101930005C142AE037ED43EA5DE36C837D838E839C
:101940009F836C817D818E819F810E940E136093A5
:10195000C1037093C2038093C3039093C403809127
:10196000B1039091B2039C01990F440B550B2C834A
:101970003D834E835F83CA01B9010E945C1420E05D
:1019800030E040E253E46C837D838E839F836C81DF
:101990007D818E819F810E94E8136093C5037093BF
:1019A000C6038093C7039093C8038091A3039091CB
:1019B000A4039C01990F440B550B2C833D834E834C
:1019C0005F83CA01B9010E945C146093C9037093DC
:1019D000CA038093CB039093CC038091A50390918D
:1019E000A6039C01990F440B550B2C833D834E831A
:1019F0005F83CA01B9010E945C1420E030E040EA34
:101A00005CE36C837D838E839F836C817D818E817B
:101A10009F810E940E136093CD037093CE03809339
:101A2000CF039093D0038091AB039091AC039C01C2
:101A3000990F440B550B2C833D834E835F83CA0162
:101A4000B9010E945C1420E030E048E45AE36C8362
:101A50007D838E839F836C817D818E819F810E9497
:101A60000E136093D1037093D2038093D3039093AA
:101A7000D40320E030E040E057E4EC82FD820E83A6
:101A80001F836C817D818E819F810E940E136093E4
:101A9000D5037093D6038093D7039093D80397010F
:101AA000A8016C827D828E829F826C817D818E8175
:101AB0009F810E940E136093D9037093DA03809381
:101AC000DB039093DC039501A601EC82FD820E837B
:101AD0001F836C817D818E819F810E940E13609394
:101AE000DD037093DE038093DF039093E0038CEEBD
:101AF00091E5A7E1B0E48093E1039093E203A09322
:101B0000E303B093E40380E394E3AEE7BFE38093A1
:101B1000E5039093E603A093E703B093E80380E026
:101B200097E5A4E9B6E38093E9039093EA03A093D1
:101B3000EB03B093EC038AE392E00E94830784EF07
:101B4000982E96EF292E84E292E00E94730781E698
:101B500092E00E94890750E040E060E070EE8EEC79
:101B600094E40E948B0785E792E00E94890750E089
:101B700040E062E57EEA89EA95E40E948B078FE700
:101B800092E00E94830799823EE23A83CE01019659
:101B90000E942107811112C085E892E00E9483070C
:101BA00068E873E180E090E00E9486020E94B6033C
:101BB000CACF8EE492E00E948307FFCF65E070E019
:101BC00080E090E00E948602298262E0CE010196C8
:101BD0000E94BB05882309F43CC38981282F30E08B
:101BE00050E040E02C833D834E835F83CA01B901FE
:101BF0000E945C1420E030E040E853E46C837D8375
:101C00008E839F836C817D818E819F810E940E13C4
:101C10007B018C018A81282F30E050E040E02C834A
:101C20003D834E835F83CA01B9010E945C149B010E
:101C3000AC01EC82FD820E831F836C817D818E81DD
:101C40009F810E947C132091BD033091BE0340917F
:101C5000BF035091C0036C837D838E839F836C810F
:101C60007D818E819F810E947B132091B9033091E9
:101C7000BA034091BB035091BC036C837D838E8378
:101C80009F836C817D818E819F810E940E137B01D9
:101C90008C012091C5033091C6034091C703509138
:101CA000C8036C83FD828E831F836C817D818E814E
:101CB0009F810E947C139B01AC016091C1037091D4
:101CC000C2038091C3039091C4030E94E81397015B
:101CD000A8016C837D838E839F836C817D818E813F
:101CE0009F810E947C137B018C018DEA92E00E940F
:101CF000890742E050E0EC82FD820E831F836C81F5
:101D00007D818E819F810E948B078BEB92E00E94E8
:101D1000890726E636E646EE5FE3EC82FD820E8317
:101D20001F836C817D818E819F810E940E1320E034
:101D300030E040E052E46C837D838E839F836C812E
:101D40007D818E819F810E947C1342E050E06C83F4
:101D50007D838E839F836C817D818E819F810E9494
:101D60008B0784EC92E00E94830799829A82CE01CD
:101D700001960E942107882389F06AE170E080E0E3
:101D800090E00E948602298263E0CE0101960E94C3
:101D9000BB05811106C084E493E000CF8BEC92E098
:101DA000FDCE20E030E048EC51E4EC82FD820E8371
:101DB0001F836C817D818E819F810E947B137B01BB
:101DC0008C019B01AC016C83FD828E831F836C812F
:101DD0007D818E819F810E940E135B016C01898140
:101DE000282F30E050E040E02C833D834E835F831A
:101DF000CA01B9010E945C1420E030E040E853E4DD
:101E00006C837D838E839F836C817D818E819F8196
:101E10000E940E13562E672E782E892E8A81282F27
:101E200030E050E040E02C833D834E835F83CA0165
:101E3000B9010E945C149B01AC015C826D827E82C0
:101E40008F826C817D818E819F810E947C13562EB2
:101E5000672E782E892E8B81282F30E050E040E0CD
:101E60002C833D834E835F83CA01B9010E945C14B9
:101E700020E030E040E85BE36C837D838E839F83CA
:101E80006C817D818E819F810E940E139B01AC012C
:101E90005C826D827E828F826C817D818E819F814A
:101EA0000E947C13762E872E888799872091D103F4
:101EB0003091D2034091D3035091D403AC82BD82C0
:101EC000CE82DF826C817D818E819F810E940E1384
:101ED000362E472E582E692E2091CD033091CE03F9
:101EE0004091CF035091D003EC82FD820E831F837B
:101EF0006C817D818E819F810E940E139B01AC01BC
:101F00003C824D825E826F826C817D818E819F8159
:101F10000E947C132091C9033091CA034091CB03E6
:101F20005091CC036C837D838E839F836C817D81F4
:101F30008E819F810E947C139B01AC017C828D82EB
:101F400088858E8399859F836C817D818E819F8119
:101F50000E947B13562E672E782E892E2091DD034A
:101F60003091DE034091DF035091E003AC82BD82EB
:101F7000CE82DF826C817D818E819F810E940E13D3
:101F80005B016C012091D9033091DA034091DB03AE
:101F90005091DC03EC82FD820E831F836C817D8176
:101FA0008E819F810E940E139B01AC01AC82BD8289
:101FB000CE82DF826C817D818E819F810E947C1325
:101FC0002091D5033091D6034091D7035091D80387
:101FD0006C837D838E839F836C817D818E819F81C5
:101FE0000E947C139B01AC015C826D827E828F8299
:101FF0006C817D818E819F810E94E8137B018C0121
:102000009B01AC016C83FD828E831F836C817D817B
:102010008E819F810E940E132091E9033091EA0383
:102020004091EB035091EC036C837D838E839F83FF
:102030006C817D818E819F810E940E135B016C01FA
:102040002091E5033091E6034091E7035091E803C6
:10205000EC82FD820E831F836C817D818E819F8146
:102060000E940E139B01AC01AC82BD82CE82DF8246
:102070006C817D818E819F810E947C132091E10380
:102080003091E2034091E3035091E4036C837D833C
:102090008E839F836C817D818E819F810E947C13C2
:1020A0007B018C0180EF92E00E94890742E050E0C2
:1020B000EC82FD820E831F836C817D818E819F81E6
:1020C0000E948B0784E093E00E94890729EF3FEE8E
:1020D00041EF5CE3EC82FD820E831F836C817D8186
:1020E0008E819F810E940E1342E050E06C837D83BD
:1020F0008E839F836C817D818E819F810E948B075F
:102100008AE093E00E94830727E53BE941E55FE32E
:10211000EC82FD820E831F836C817D818E819F8185
:102120000E94E8135B016C0180E193E00E94890743
:1021300042E050E0AC82BD82CE82DF826C817D8144
:102140008E819F810E948B0784E093E00E94890723
:1021500029EF3FEE41EF5CE3AC82BD82CE82DF82AD
:102160006C817D818E819F810E940E1342E050E040
:102170006C837D838E839F836C817D818E819F8123
:102180000E948B078AE093E00E9483079501A601D5
:10219000EC82FD820E831F836C817D818E819F8105
:1021A0000E94E8132EEA3CED42E45EE36C837D83FB
:1021B0008E839F836C817D818E819F810E946511BA
:1021C0009B01AC0160E070E080E89FE30E947B131C
:1021D00020E03AE24DE257E46C837D838E839F8357
:1021E0006C817D818E819F810E940E137B018C0109
:1021F00080E393E00E94890750E040E0EC82FD829A
:102200000E831F836C817D818E819F810E948B074D
:1022100085E792E00E94890728E439EF41E550E420
:10222000EC82FD820E831F836C817D818E819F8174
:102230000E940E1350E040E06C837D838E839F8369
:102240006C817D818E819F810E948B078FE792E058
:10225000A5CC8BE693E0A2CCEEEEF3E013821282E3
:1022600088EE93E0A0E0B0E084839583A683B783F3
:1022700024E032E03183208325EC30E03587248769
:1022800024EC30E03787268720EC30E0318B208B40
:1022900021EC30E0338B228B22EC30E0358B248B29
:1022A00026EC30E0378B268B118E128E138E148E17
:1022B000E7E9F3E01382128284839583A683B783D0
:1022C00086E192E0918380830895FA01EE0FFF1F6B
:1022D000309621053105A1F16115710561F4803851
:1022E000BFE39B0749F168949038810561F080381D
:1022F000BFEF9B0741F099234AF5FF3FE105310508
:10230000210519F1E8940894E795D901AA2329F445
:10231000AB2FBE2FF85FD0F310C0FF5F70F4A6950F
:10232000E0F7F73950F019F0FF3A38F49F779F93B0
:102330000DD00F9007FC9058089546F00C94F511BD
:1023400060E070E080E89FE308954FE79F775F9338
:102350004F933F932F930E9492122F913F914F9151
:102360005F910E940E130C94BD1129F416F00C9489
:10237000EF110C9441120C94F5110E942712A8F34E
:102380009638A0F707F80F92E8942BE33AEA48EB67
:102390005FE70E9424130F920F920F924DB75EB722
:1023A0000F920E94DA12E4EEF0E00E94F8114F91D1
:1023B0005F91EF91FF91E595EE1FFF1F49F0FE57EA
:1023C000E0684427EE0F441FFA95E1F74195550B5D
:1023D0000E9454120F9007FE0C944812089597F92A
:1023E0009F6780E870E060E008959FEF80EC0895BB
:1023F000DF93CF931F930F93FF92EF92DF927B01B6
:102400008C01689406C0DA2EEF010E942113FE01B0
:10241000E894A5912591359145915591A6F3EF0149
:102420000E949313FE019701A801DA9469F7DF90E7
:10243000EF90FF900F911F91CF91DF91089557FD7D
:102440009058440F551F59F05F3F71F04795880F22
:1024500097FB991F61F09F3F79F0879508951216B9
:1024600013061406551FF2CF4695F1DF08C0161665
:1024700017061806991FF1CF869571056105089416
:102480000895E894BB2766277727CB0197F908952D
:102490009B01AC0160E070E080E89FE30C94E813DE
:1024A0000C94EF110C9497140E942712D8F39923DF
:1024B000C9F3940F511DA3F39150504094F059F07B
:1024C000882332F0660F771F881F91505040C1F764
:1024D0009E3F51052CF7880F911D9695879597F98A
:1024E00008955F3FACF0983E9CF0BB2786957795AA
:1024F0006795B79508F4B1609395C1F7BB0F58F78E
:1025000011F460FFE8CF6F5F7F4F8F4F9F4FE3CF96
:102510000C94421216F00C9497140C94F5116894D4
:102520000C94EF110E942712A8F39923C1F3AEF384
:10253000DF93CF931F930F93FF92C92FDD2788233B
:102540002AF02197660F771F881FDAF720E030E026
:1025500040E85FEB9FE3883920F0803E38F0219619
:102560008F770E947C13ECE0F1E004C00E947C13A2
:10257000E9E3F1E00E94F8118B01BE01EC01FB2EB2
:102580006F5771097595771F880B990B0E945C1422
:1025900028E132E741E35FE30E942113AF2D980168
:1025A000AE01FF900F911F91CF91DF910E94931385
:1025B0000C94B314FA01DC01AA0FBB1F9B01AC0100
:1025C000BF5728F4222733274427507820C0B7511B
:1025D00090F4AB2F0024469537952795011CA395C1
:1025E000D2F3002071F0220F331F441FB395DAF3AA
:1025F0000ED00C947B1361307105A0E88A07B946B0
:1026000030F49B01AC0166277727882790783096B5
:1026100021F0208331834283538308950E94211344
:102620000C94B3140E94A51438F00E94AC1420F04E
:10263000952311F00C94EF110C94F51111240C94C6
:1026400042120E941F1270F3959FC1F3950F50E044
:10265000551F629FF001729FBB27F00DB11D639F54
:10266000AA27F00DB11DAA1F649F6627B00DA11DFA
:10267000661F829F2227B00DA11D621F739FB00DA0
:10268000A11D621F839FA00D611D221F749F332710
:10269000A00D611D231F849F600D211D822F762FA9
:1026A0006A2F11249F5750409AF0F1F088234AF086
:1026B000EE0FFF1FBB1F661F771F881F91505040F2
:1026C000A9F79E3F510580F00C94EF110C94421233
:1026D0005F3FE4F3983ED4F3869577956795B79579
:1026E000F795E7959F5FC1F7FE2B880F911D969593
:1026F000879597F908955058BB27AA270E949313EE
:102700000C94B3140E94A51438F00E94AC1420F06D
:1027100039F49F3F19F426F40C94F5110EF4E0956A
:10272000E7FB0C94EF11E92F0E941F1258F3BA1720
:10273000620773078407950720F079F4A6F50C94D7
:1027400041120EF4E0950B2EBA2FA02D0B01B9010A
:1027500090010C01CA01A0011124FF27591B99F017
:10276000593F50F4503E68F11A16F040A22F232F23
:10277000342F4427585FF3CF469537952795A79573
:10278000F0405395C9F77EF41F16BA0B620B730B1A
:10279000840BBAF09150A1F0FF0FBB1F661F771F8B
:1027A000881FC2F70EC0BA0F621F731F841F48F440
:1027B000879577956795B795F7959E3F08F0B0CFC9
:1027C0009395880F08F09927EE0F979587950895B0
:1027D0000E94FC130C94B3140E94AC1458F00E9495
:1027E000A51440F029F45F3F29F00C94EF1151112A
:1027F0000C9442120C94F5110E941F1268F3992355
:10280000B1F3552391F3951B550BBB27AA276217EC
:102810007307840738F09F5F5F4F220F331F441FF9
:10282000AA1FA9F335D00E2E3AF0E0E832D091502D
:102830005040E695001CCAF72BD0FE2F29D0660F1A
:10284000771F881FBB1F261737074807AB07B0E85D
:1028500009F0BB0B802DBF01FF2793585F4F3AF063
:102860009E3F510578F00C94EF110C9442125F3F9B
:10287000E4F3983ED4F3869577956795B795F795E9
:102880009F5FC9F7880F911D9695879597F90895D1
:10289000E1E0660F771F881FBB1F6217730784076D
:1028A000BA0720F0621B730B840BBA0BEE1F88F77C
:1028B000E0950895E89409C097FB3EF490958095C3
:1028C000709561957F4F8F4F9F4F9923A9F0F92FF6
:1028D00096E9BB279395F695879577956795B79574
:1028E000F111F8CFFAF4BB0F11F460FF1BC06F5F5A
:1028F0007F4F8F4F9F4F16C0882311F096E911C06C
:10290000772321F09EE8872F762F05C0662371F08C
:1029100096E8862F70E060E02AF09A95660F771FA0
:10292000881FDAF7880F9695879597F908959F3F46
:1029300031F0915020F4879577956795B795880F7A
:10294000911D9695879597F9089500240A94161677
:10295000170618060906089500240A94121613068D
:10296000140605060895092E0394000C11F488231B
:1029700052F0BB0F40F4BF2B11F460FF04C06F5F37
:102980007F4F8F4F9F4F08950E94F81408F481E005
:1029900008950E94271288F09F5798F0B92F992721
:1029A000B751B0F0E1F0660F771F881F991F1AF03A
:1029B000BA95C9F714C0B13091F00E944112B1E04C
:1029C00008950C944112672F782F8827B85F39F04B
:1029D000B93FCCF3869577956795B395D9F73EF4D3
:1029E00090958095709561957F4F8F4F9F4F08957B
:1029F000990F0008550FAA0BE0E8FEEF1616170610
:102A0000E807F907C0F012161306E407F50798F077
:102A1000621B730B840B950B39F40A2661F0232B90
:102A2000242B252B21F408950A2609F4A140A6950C
:102A30008FEF811D811D08950E94F81408F48FEF17
:102A400008950E94F814880B990B0895A1E21A2E9C
:102A5000AA1BBB1BFD010DC0AA1FBB1FEE1FFF1F42
:102A6000A217B307E407F50720F0A21BB30BE40B92
:102A7000F50B661F771F881F991F1A9469F76095D9
:102A80007095809590959B01AC01BD01CF01089593
:102A9000EE0FFF1F881F8BBF0790F691E02D199452
:102AA000FB01DC0102C001900D9241505040D8F76B
:102AB0000895F894FFCF02030603E302FA02FE0230
:102AC000E80209030F03130319031D03210327035E
:0A2AD0002B03E8022F03350339033E
:102ADA00000000003804850409041804A103F50362
:102AEA00E70300000000F6012502A101CD01A401BF
:102AFA00AB01BE010D0A006E616E00696E66006F61
:102B0A007666005245424F4F5400424D503138309C
:102B1A0020696E6974207375636365737300424D2F
:102B2A005031383020696E6974206661696C0A0A0E
:102B3A000070726F766964656420616C746974757B
:102B4A0064653A2000206D65746572732C2000203C
:102B5A0066656574006572726F722073746172744F
:102B6A00696E672074656D7065726174757265202F
:102B7A006D6561737572656D656E740A0074656D55
:102B8A0070657261747572653A2000206465672009
:102B9A00432C2000206465672046006572726F72BC
:102BAA00207374617274696E6720707265737375CD
:102BBA007265206D6561737572656D656E740A0064
:102BCA006162736F6C757465207072657373757268
:102BDA00653A2000206D622C200020696E4867004B
:102BEA0072656C617469766520287365612D6C6500
:102BFA0076656C292070726573737572653A200068
:102C0A00636F6D707574656420616C746974756442
:102C1A00653A20006572726F722072657472696516
:102C2A0076696E67207072657373757265206D655B
:102C3A0061737572656D656E740A006572726F7282
:102C4A002072657472696576696E672074656D7045
:102C5A0065726174757265206D6561737572656DF3
:062C6A00656E740A000013
:00000001FF
