:100000000C9476010C94E7080C9412090C943D09A9
:100010000C9468090C9493090C94BE090C94E9099A
:100020000C94140A0C94A7010C94A7010C94A7013A
:100030000C94A7010C94A7010C94A7010C94A701A0
:100040000C94A7010C9494070C94A7010C94A7019D
:100050000C94A7010C94A7010C94A7010C943F0ADF
:100060000C94A7010C94870A0C94B80A0C94A7016D
:100070000C94A7010C94A7010C94A7010C94A70160
:100080000C94A7010C94A7010C94A7010C94A70150
:100090000C94A7010C94A7010C94A7010C94A70140
:1000A0000C94A7010C94A7010C94A7010C94A70130
:1000B0000C94A7010C94A7010C94A7010C94A70120
:1000C0000C94A7010C94A7010C94A7010C94A70110
:1000D0000C94A7010C94A7010C94A7010C94A70100
:1000E0000C94A7010C9428030C941B030C94040695
:1000F0000C9466040C9474020C944E030C944D03FF
:100100000C949C020C9457020C94D60B0C943A035A
:100110000C9432030C949E020C9451020C9412061F
:100120000C942C030C9419020C9444030C94350683
:100130000C9440030C940D030C9454020C9417037C
:100140000C947C020C94CF010C94BE050C946702B5
:100150000C941F030C94C0010C945E070C94A2062F
:100160000C94CB060C944B020C9455060C946A022A
:100170000C9487020C9452030C9412020C945A02B1
:100180000C9483020C9478020C946D020C94260655
:100190000C9448030C9464020C9413030C94850390
:1001A0000C944E020C9436030C9461020C948B0256
:1001B0000C9470020C9408040C942203000022009A
:1001C000250028002B002E00310034000201000021
:1001D000050108010B010000200023002600290072
:1001E0002C002F003200000100000301060109016C
:1001F00000000A0B02090C0D0E08070304010000A1
:1002000000000000000000000000000000000000EE
:1002100000000000000000000000000012111000AB
:1002200000000000000000000000000000000000CE
:100230000000000000000000010008004000000174
:100240000004050D00002100240027002A002D00D5
:100250003000330001010000040107010A0101021E
:1002600010202008081020401020408002010201C8
:100270000804020101020408102040808040201080
:1002800008040201800402018040201008040201D9
:100290000804020101020408102040800102040841
:1002A000102040800505050507050808080802021A
:1002B00002020A0A08080404040401010101010100
:1002C00001010303030303030303040707070C0CE3
:1002D0000C0C0C0C0C0C02020202060606060606AA
:1002E00006060B0B0B0B0B0B0B0BD60B11241FBEB7
:1002F000CFEFD1E2DEBFCDBF00E00CBF24E0ACE920
:10030000B2E001C01D92A934B207E1F712E0A0E00B
:10031000B2E0E0E4F9E100E00BBF02C007900D920B
:10032000AC39B107D9F711E0C6E7D1E000E006C06B
:1003300021970109802FFE010E94500CC537D1077B
:1003400080E00807A9F70E94E20A0C948C0C0C9438
:100350000000862750E1859FB00111246827892F6E
:1003600090E09C01362B462F42954F7058E0659FD8
:10037000C0011124842782279327089581E00895DE
:10038000CF93DF93EC01E881F9810280F381E02DC6
:10039000CE0119958823B9F3DF91CF9108958F92FB
:1003A0009F92AF92BF92CF92DF92EF92FF92CF9344
:1003B000DF93EC016B018FB7F89480904504909027
:1003C0004604A0904704B09048048FBFF12CE12C64
:1003D0002FB7F8948091450490914604A09147046A
:1003E000B09148042FBF88199909AA09BB098C1537
:1003F0009D05AE05BF0510F080E009C0E881F981D8
:100400000280F381E02DCE011995882309F3DF9155
:10041000CF91FF90EF90DF90CF90BF90AF909F90E3
:100420008F900895FC01828193810397E1F381E02D
:1004300008950F931F93CF93FC01CB014FB7F8940E
:1004400000914504109146042091470430914804DE
:100450004FBFB0E0A0E0CFB7F89440914504509171
:1004600046046091470470914804CFBF401B510B74
:10047000620B730B481759076A077B0728F080E067
:10048000CF911F910F9108954281538143305105BF
:1004900011F381E0F5CFFC0165830895FC016483CD
:1004A0000895FC0162870895FC0163870895FC01AB
:1004B00064870895FC01409585854823462B458730
:1004C0000895FC0186810895FC0187810895FC014F
:1004D00080850895FC018185089580E00895089540
:1004E000FC01758364830895FC0177836683089516
:1004F000FC017383628308956EBD00000DB407FE96
:10050000FDCF8EB508958CB580688CBD08958CB5EF
:100510008F778CBD08959FB7F89480914404811122
:1005200005C08CB58F7B8CBD9FBF08958150809393
:1005300044048111F9CFF5CF8CE308950895CF934A
:10054000DF9300D00F92CDB7DEB73FB7F89480911C
:100550003D0490913E04A0913F04B091400426B523
:10056000A89B05C02F3F19F00196A11DB11D3FBFEB
:10057000BA2FA92F982F8827820F911DA11DB11D79
:100580009C01AD0162E0220F331F441F551F6A9585
:10059000D1F7CA01B9010F900F900F900F90DF9122
:1005A000CF910895CF93DF9390E0FC01E25AFD4F85
:1005B00024918C559D4FFC0184918823D1F090E0CB
:1005C000880F991FFC01EC5BFD4FA591B491FC01D4
:1005D000E454FE4FC591D4919FB761110DC0F894BA
:1005E0008C91E22FE0958E238C9388818E238883D3
:1005F0009FBFDF91CF910895F8948C91822B8C93BB
:10060000F7CF8150823108F048C0E82FF0E088270A
:10061000E257F34F8F4F0C94500C809180008F77EE
:10062000809380000895809180008F7DF9CF809124
:100630008000877FF5CF84B58F7784BD089584B51A
:100640008F7DFBCF8091B0008F778093B0000895AD
:100650008091B0008F7DF9CF809190008F7780934B
:1006600090000895809190008F7DF9CF8091900047
:10067000877FF5CF8091A0008F778093A0000895A9
:100680008091A0008F7DF9CF8091A000877FF5CF6A
:10069000809120018F77809320010895809120011F
:1006A0008F7DF9CF80912001877FF5CF1F93CF9366
:1006B000DF93162F282F30E0F901E051FE4F84918F
:1006C000F901E25AFD4FD491F901EC55FD4FC49167
:1006D000CC23A1F081110E940103EC2FF0E0EE0F7A
:1006E000FF1FE454FE4FA591B4919FB7F8948C91ED
:1006F000111108C0D095D823DC939FBFDF91CF9113
:100700001F9108958D2B8C93F8CFCF93FC01868198
:1007100097819C0121503109982F990F990F23300F
:10072000310508F090E08CB5837F892B8CBD8481E6
:100730009581019709F051C08CB580628CBD828192
:10074000938101978430910508F04AC08E589D4FDF
:10075000FC0180819CB59C7F282F2370922B9CBD2F
:100760009DB582FB882780F99E7F892B8DBDCFB7F1
:10077000F89480914404811128C0E9EDF2E084915D
:10078000E3E9F2E09491E82FF0E0EE0FFF1FEC5B5D
:10079000FD4FA591B4918C91E92FE82321F461E0FC
:1007A00085E30E94560361E085E30E94D2028CB586
:1007B00080618CBD8CB580648CBD61E084E30E9457
:1007C000D20261E083E30E94D202809144048F5FF1
:1007D00080934404CFBFCF9108958CB58F7DAECF69
:1007E00081E0B8CFCF93DF93EC018A819B810297A0
:1007F00061F06B8D898D0E94560360E0888D0E94A8
:10080000560382E090E09B838A83DF91CF91089525
:10081000EF92FF921F93CF93DF93EC018A819B812C
:10082000039709F451C08A819B81049761F06B8D15
:10083000898D0E94560360E0888D0E94560384E0F3
:1008400090E09B838A838C8D8823E9F010E08FEF02
:100850009FEF7E0129E6E20EF11C07C0FE01E10FC9
:10086000F11D65A10E94A9011F5FF70120811217E8
:10087000A8F3883B904F71F08F8598890196988BEB
:100880008F871D8E1C8E8D8DDF91CF911F91FF90D4
:10089000EF9008958EA18E838FA18F8388A588877E
:1008A00089A589878D81811107C09E818C819817C8
:1008B00019F08E818F3F31F789899A8901969A8B39
:1008C000898B81E08D8FDECF80E0DECF7F928F92AB
:1008D0009F92AF92BF92CF92DF92EF92FF920F93CF
:1008E0001F93CF93DF93EC015B01042F80E04D3326
:1008F00008F0F4C06E0185E7C80ED11C17E0140F94
:10090000E881F9810484F585E02DCE011995612FE8
:100910008FEF9FEF0E94A901E12FE295EF70F0E0C9
:10092000EE59FD4F2081F60120831F70E12FF0E08A
:10093000EE59FD4F2081FE01EA58FF4F20831A85B2
:10094000612F0E94A901E12FE295EF70F0E0EE59CE
:10095000FD4F2081FE01E958FF4F20831F70E12FDA
:10096000F0E0EE59FD4F2081FE01E858FF4F208353
:100970001B85612F0E94A901E12FE295EF70F0E045
:10098000EE59FD4F2081FE01E758FF4F20831F7075
:10099000E12FF0E0EE59FD4F2081FE01E658FF4FB8
:1009A00020831C85612F0E94A901E12FE295EF7041
:1009B000F0E0EE59FD4F2081FE01E558FF4F208306
:1009C0001F70E12FF0E0EE59FD4F2081FE01E45849
:1009D000FF4F20831D85612F0E94A9019C01E12FFB
:1009E000E295EF70F0E0EE59FD4F8081FE01E35893
:1009F000FF4F80831F70E12FF0E0EE59FD4F8081A3
:100A0000FE01E258FF4F808375014E01FFE78F0E14
:100A1000911C10E0A00EB11EEA14FB0409F06CC09A
:100A2000C8010596880F991F20953095D601A80F0B
:100A3000B91FF90154E0F695E7955A95E1F7EF7083
:100A4000FF27EE59FD4F90819C93F801EE0FFF1F99
:100A5000BF016C0D7D1DA9014F7055274E595D4F8B
:100A6000FA019081FB0193870A5F1F4F000F111F4E
:100A70000C0D1D1DA901452F552742954F704E594C
:100A80005D4FFA019081F8019083232F3327F901FC
:100A9000EF70FF27EE59FD4F908113969C93FE0156
:100AA000E550FF4F845F80838A819B81039789F0A3
:100AB000E159F109108231961082319610826B8DC6
:100AC00081E06827898D0E94560383E090E09B8334
:100AD0008A83D0934304C093420481E0DF91CF9195
:100AE0001F910F91FF90EF90DF90CF90BF90AF904C
:100AF0009F908F907F900895F70171907F01672DEF
:100B0000C9010E94A9019C017294AFE07A22E72DED
:100B1000F0E0EE59FD4F8081F4018083F7013197B9
:100B2000E081EF70F0E0EE59FD4F8081F4018183A8
:100B3000F2E08F0E911C70CFFC01848DDF01A80FB5
:100B4000B11DA35ABF4F2C91848D90E001968F73F5
:100B50009927848FA689B7892C93A089B1898C9114
:100B6000837080648C93938D848D981306C0028863
:100B7000F389E02D80818F7D80830895FC01818D34
:100B8000228D90E0805C9F4F821B91098F73992783
:100B9000089580EA93E00E94BE059C0181E0232B2A
:100BA00009F480E0089580E090E0892B29F00E940C
:100BB000C90581110E94000080E090E0892B49F076
:100BC00080E090E0892B29F00E94000081110E94B2
:100BD000000080E090E0892B49F080E090E0892BD4
:100BE00029F00E94000081110E94000080E090E046
:100BF000892B49F080E090E0892B29F00E940000C9
:100C000081110C9400000895FC01918D828D98173C
:100C100031F0828DE80FF11D858D90E008958FEF02
:100C20009FEF0895FC01918D828D981761F0828D60
:100C3000DF01A80FB11D5D968C91928D9F5F9F7310
:100C4000928F90E008958FEF9FEF0895FC01538DF0
:100C5000448D252F30E0842F90E0821B930B541796
:100C600010F0CF96089501970895CF93DF93EC018C
:100C7000888D81110FC0DF91CF9108950FB607FCC9
:100C80000DC08C9185FF08C0808185FF03C0CE0117
:100C90000E949C05AA89BB89E889F9898C9185FD08
:100CA000EDCF808186FFEACFE6CFEF92FF920F93E0
:100CB0001F93CF93DF93EC01F62E81E0888F9B8DFD
:100CC0008C8D98131AC0E889F989808185FF15C039
:100CD0009FB7F894EE89FF896083E889F98980815C
:100CE0008370806480839FBF81E090E0DF91CF912B
:100CF0001F910F91FF90EF9008950B8D10E00F5F03
:100D00001F4F0F731127E02E8C8D8E1579F08B8D70
:100D1000FE01E80FF11DE35AFF4FF0829FB7F894F0
:100D20000B8FEA89FB8980818062DCCF0FB607FCDC
:100D3000EBCFE889F989808185FFE6CFCE010E945B
:100D40009C05E2CFCF92DF92EF92FF920F931F9319
:100D5000CF93DF937C016A0110E000E00C151D05C4
:100D600051F4C801DF91CF911F910F91FF90EF9047
:100D7000DF90CF900895EB01D701ED91FC910190A8
:100D8000F081E02D6991C7011995892B51F30F5F0F
:100D90001F4FBE01E3CFAF92BF92CF92DF92EF928F
:100DA000FF920F931F93CF93DF9300D000D0CDB766
:100DB000DEB78C01909343048093420461E0FC0110
:100DC000808D0E94D20260E0F80187890E94D202E1
:100DD00061E0F801818D0E94D202C8010E94F203F5
:100DE000F801C588D688C114D10409F455C0F12C86
:100DF000E12C83E0CC0CDD1CEE1CFF1C8A95D1F7A6
:100E000098E3A92E92E0B92E11E042E050E0B5013E
:100E1000CE0101960E94580C29813A8150E040E0B1
:100E200060E074E284EF90E00E946A0C2B833C83C4
:100E30004D835E83CA01B901A70196010E946A0C25
:100E4000DA01C9010297A109B1098D3FFFEF9F07A0
:100E5000A105B10560F01F5F62E0A60EB11C17305E
:100E6000A1F68E3F9F4FA105B10518F015C01630B1
:100E700099F01092800088E0809381008091810039
:100E8000812B80938100309389002093880080918A
:100E90006F00826080936F0081E026960FB6F89411
:100EA000DEBF0FBECDBFDF91CF911F910F91FF909D
:100EB000EF90DF90CF90BF90AF900895CF92DF92E8
:100EC000FF920F931F93CF93DF93EC016B018A0185
:100ED000E881F9810280F381E02D1995F82E8823AD
:100EE000D1F0C114D104B1F00115110599F0FE0142
:100EF000E759FF4F80818750F8019081891708F4E6
:100F00008083F801408150E0BE01665D7F4FC601DD
:100F10000E94610C1D8E8F2DDF91CF911F910F913B
:100F2000FF90DF90CF9008951F920F920FB60F920F
:100F300011240BB60F92CF92DF92EF92FF920F9394
:100F40001F932F933F934F935F936F937F938F9351
:100F50009F93AF93BF93CF93DF93EF93FF93C09192
:100F60004204D09143048A819B81049709F0E3C035
:100F70002F8930E0F901E051FE4F8491F901E25AE6
:100F8000FD4F0491F901EC55FD4F1491112379F0B7
:100F900081110E940103E12FF0E0EE0FFF1FEA52E2
:100FA000FE4FA591B4918C91082381E009F480E073
:100FB00081702A8D982F9227821719F08F8D8F5F5D
:100FC0008F8F8E8D891709F47BC088A12DE1803524
:100FD00008F42BE088A1820F88A39E8F88A1803A15
:100FE00008F453C08AA19BA1969587959BA38AA3D9
:100FF0008F8D853028F08AA19BA198609BA38AA33E
:1010000088A1805A88A31F8E89A1882309F486C0ED
:101010008CA18F5F8CA38C30C0F18AA19BA18F73B0
:10102000282F26952695287098E0920F92134CC091
:1010300020E080E1289F900111248AA19BA136E045
:10104000969587953A95E1F7482F8695869588700D
:1010500098E0980F891342C080E0822BDE01A759E7
:10106000BF4F9C91AE0148595F4F911141C0FA01A9
:1010700080839081973018F090819434C8F119A240
:101080008F8598890196988B8F87FF91EF91DF91DB
:10109000CF91BF91AF919F918F917F916F915F9110
:1010A0004F913F912F911F910F91FF90EF90DF9003
:1010B000CF900F900BBE0F900FBE0F901F90189502
:1010C00088A18C5E88A38ACFE22FF0E0EE59FD4F15
:1010D0003081831709F4ADCF2F5FA8CFE82FF0E060
:1010E000EE59FD4F5081451709F4B7CF8F5FB2CF4E
:1010F0009C9121E0290F2C939E01290F311DF901AC
:1011000085A39C91FA018081981730F019A281E0A3
:101110008C8FCE010E94F2031CA2B7CF8AA19BA1A3
:1011200088339B4009F0B1CF81E089A31CA2C75945
:10113000DF4F1882AACF8A819B81039709F0A5CF40
:101140008E0104591F4FF801808191E0980F908320
:10115000811113C06E01FAE6CF0ED11CF601808119
:10116000EF56FF4F9081891778F0CE010E94F2036D
:101170008B899C8901969C8B8B8BF80180818830B0
:1011800008F483CF108281CFFE01E80FF11DE359EF
:10119000FF4F608170E07E01FBE6EF0EF11CF7016E
:1011A000808191E0980F908302C0759567958A952C
:1011B000E2F76170888D0E945603F70180818630C6
:1011C000E0F21082F60180818F5F8083D6CF1F927C
:1011D0000F920FB60F9211240BB60F922F933F93DD
:1011E0004F935F936F937F938F939F93AF93BF932F
:1011F000EF93FF93E0910402F09105021995FF919E
:10120000EF91BF91AF919F918F917F916F915F917E
:101210004F913F912F910F900BBE0F900FBE0F90EB
:101220001F9018951F920F920FB60F9211240BB6B4
:101230000F922F933F934F935F936F937F938F936F
:101240009F93AF93BF93EF93FF93E0910602F091CA
:1012500007021995FF91EF91BF91AF919F918F91E7
:101260007F916F915F914F913F912F910F900BBEA6
:101270000F900FBE0F901F9018951F920F920FB6F0
:101280000F9211240BB60F922F933F934F935F93BE
:101290006F937F938F939F93AF93BF93EF93FF933E
:1012A000E0910802F09109021995FF91EF91BF9129
:1012B000AF919F918F917F916F915F914F913F91EE
:1012C0002F910F900BBE0F900FBE0F901F9018958F
:1012D0001F920F920FB60F9211240BB60F922F93FD
:1012E0003F934F935F936F937F938F939F93AF93AE
:1012F000BF93EF93FF93E0910A02F0910B021995CF
:10130000FF91EF91BF91AF919F918F917F916F91DD
:101310005F914F913F912F910F900BBE0F900FBE99
:101320000F901F9018951F920F920FB60F921124D5
:101330000BB60F922F933F934F935F936F937F93CF
:101340008F939F93AF93BF93EF93FF93E09100022E
:10135000F09101021995FF91EF91BF91AF919F918B
:101360008F917F916F915F914F913F912F910F904E
:101370000BBE0F900FBE0F901F9018951F920F92EB
:101380000FB60F9211240BB60F922F933F934F93EA
:101390005F936F937F938F939F93AF93BF93EF93DD
:1013A000FF93E0910202F09103021995FF91EF91F2
:1013B000BF91AF919F918F917F916F915F914F916D
:1013C0003F912F910F900BBE0F900FBE0F901F906B
:1013D00018951F920F920FB60F9211240BB60F9211
:1013E0002F933F934F935F936F937F938F939F932D
:1013F000AF93BF93EF93FF93E0910C02F0910D0236
:101400001995FF91EF91BF91AF919F918F917F912E
:101410006F915F914F913F912F910F900BBE0F9065
:101420000FBE0F901F9018951F920F920FB60F923C
:1014300011240BB60F922F933F934F935F936F93AB
:101440007F938F939F93AF93BF93EF93FF93E0911D
:101450000E02F0910F021995FF91EF91BF91AF919C
:101460009F918F917F916F915F914F913F912F91BC
:101470000F900BBE0F900FBE0F901F9018951F92EC
:101480001FB61F9211242F933F938F939F93AF9377
:10149000BF938091450490914604A0914704B09178
:1014A00048043091410423E0230F2D3750F5019675
:1014B000A11DB11D209341048093450490934604DF
:1014C000A0934704B093480480913D0490913E045A
:1014D000A0913F04B09140040196A11DB11D8093DD
:1014E0003D0490933E04A0933F04B0934004BF9109
:1014F000AF919F918F913F912F911F901FBE1F9091
:10150000189526E8230F0296A11DB11DD3CF2F9366
:101510002FB72F932BB72F938F939F93EF93FF9317
:10152000E091B003F091B1038081E091B603F091B6
:10153000B70382FD1BC090818091B9038F5F8F73C9
:101540002091BA03821741F0E091B903F0E0E05630
:10155000FC4F958F8093B903FF91EF919F918F91ED
:101560002F912BBF2F912FBF2F9118958081F4CFF2
:101570001F920F920FB60F9211240BB60F922F935A
:101580003F934F935F936F937F938F939F93AF930B
:10159000BF93EF93FF9380EA93E00E949C05FF9135
:1015A000EF91BF91AF919F918F917F916F915F91DB
:1015B0004F913F912F910F900BBE0F900FBE0F9048
:1015C0001F90189500D00F92CDB7DEB7789484B5F0
:1015D000826084BD84B5816084BD85B5826085BD2F
:1015E00085B5816085BD80916E00816080936E00BD
:1015F00010928100809181008260809381008091AF
:10160000810081608093810080918000816080935F
:1016100080008091B10084608093B1008091B0001F
:1016200081608093B00080919100826080939100EE
:101630008091910081608093910080919000816001
:10164000809390008091A10082608093A10080919E
:10165000A10081608093A1008091A00081608093AF
:10166000A00080912101826080932101809121015D
:10167000816080932101809120018160809320010D
:1016800080917A00846080937A0080917A008260F1
:1016900080937A0080917A00816080937A008091B3
:1016A0007A00806880937A001092C100E091B003C4
:1016B000F091B10382E08083E091AC03F091AD033F
:1016C0001082E091AE03F091AF038FEC8083109213
:1016D000B803E091B403F091B50386E08083E09114
:1016E000B203F091B303808180618083E091B20303
:1016F000F091B303808188608083E091B203F09120
:10170000B303808180688083E091B203F091B303DA
:1017100080818F7D808384EA92E00E94CB068111D4
:1017200010C04BE050E066E772E080EA93E00E9470
:10173000A20642E050E062E872E080EA93E00E9494
:10174000A2064CE065E872E084EA92E00E9466043A
:1017500084EA92E00E9412020E949F026B017C01C7
:1017600088EE882E83E0982EA12CB12C0E949F0237
:10177000DC01CB018C199D09AE09BF09883E93405D
:10178000A105B10598F321E0821A9108A108B108DA
:1017900088EEC80E83E0D81EE11CF11C8114910470
:1017A000A104B10419F70E94D305CBCFCF93DF93E7
:1017B00000D000D00F920F92CDB7DEB7E0EAF3E091
:1017C0001382128288EE93E0A0E0B0E084839583D8
:1017D000A683B78384E192E09183808385EC90E0D7
:1017E0009587848784EC90E09787868780EC90E0EB
:1017F000918B808B81EC90E0938B828B82EC90E0DC
:10180000958B848B86EC90E0978B868B118E128E55
:10181000138E148EECE9F2E0138212821582148288
:101820001782168286E292E091838083E4EAF2E0F6
:10183000138212828FEF84838287838714861586B2
:10184000108A1786128A118A148A138A8AE392E010
:101850009183808380ED97E0968B858B8BE0878BDF
:101860008CE0808F8AE0818F138E88E0E2E9F2E0DD
:10187000DE01119601900D928A95E1F788E0FE0154
:101880003196A1E1B3E001900D928A95E1F7289697
:101890000FB6F894DEBF0FBECDBFDF91CF91089594
:1018A000EE0FFF1F881F8BBF0790F691E02D199454
:1018B000FB01DC0102C005900D9241505040D8F769
:1018C0000895FB01DC0102C001900D92415050408F
:1018D000D8F70895A1E21A2EAA1BBB1BFD010DC06B
:1018E000AA1FBB1FEE1FFF1FA217B307E407F507D0
:1018F00020F0A21BB30BE40BF50B661F771F881FAC
:10190000991F1A9469F760957095809590959B0141
:10191000AC01BD01CF010895F894FFCF1B031F0355
:101920000D03130317034D03220328032C03320373
:1019300036033A03400344034D0348034E03520366
:101940009E029E029E029E029E029E029E029E0297
:10195000000000005506A20626063506BE05120642
:101960000406000000007C028302870285038B02CC
:1019700070027402780200000000CB0608045E07C3
:1019800066049C02C00112021902CF014E025102EC
:10199000540257025A024B026102640267026A0251
:1019A0006D020D0E131516191A1C232526292A2C33
:1019B000323405000404696E6974206661696C65DF
:1019C00064000D0A0048656C6C6F20576F726C6480
:0C19D00021002A2A2A2A2A2A382C00008A
:00000001FF
