:100000000C9428010C9459010C9459010C94590139
:100010000C9459010C9459010C9459010C945901F8
:100020000C9459010C9459010C9459010C945901E8
:100030000C9459010C9459010C9459010C945901D8
:100040000C9459010C9459010C9459010C945901C8
:100050000C9459010C9459010C9459010C94760399
:100060000C9459010C94BE030C94EF030C945901A9
:100070000C9459010C9459010C9459010C94590198
:100080000C9459010C9459010C9459010C94590188
:100090000C9459010C9459010C9459010C94590178
:1000A0000C9459010C9459010C9459010C94590168
:1000B0000C9459010C9459010C9459010C94590158
:1000C0000C9459010C9459010C9459010C94590148
:1000D0000C9459010C9459010C9459010C94590138
:1000E0000C9459010C9414020C94F9010C942602FE
:1000F0000C942C020C94F1010C940A020C94AD02A5
:100100000C941E020C949F020C9406020C94DA01CB
:100110000C94F5010C9410020C94C1020C94DF01B4
:100120000C9422020C9459020C943D030C94190473
:100130000C9430020C94D0020C9400020C94FD013B
:100140000C94F0020C94180200000A0B02090C0D2A
:100150000E0807030401000000000000000000007A
:10016000000000000000000000000000000000008F
:10017000000000001211100000000000000000004C
:10018000000000000000000000000000000000006F
:100190002200250028002B002E003100340002012F
:1001A0000000050108010B010000210024002700C8
:1001B0002A002D0030003300010100000401070176
:1001C0000A010505050507050808080802020202DC
:1001D0000A0A0808040404040101010101010101E3
:1001E0000303030303030303040707070C0C0C0CAE
:1001F0000C0C0C0C02020202060606060606060697
:100200000B0B0B0B0B0B0B0B010210202008081023
:100210002040102040800201020108040201010276
:10022000040810204080804020100804020180044F
:1002300002018040201008040201080402010102AA
:100240000408102040800102040810204080190496
:1002500011241FBECFEFD1E2DEBFCDBF00E00CBF47
:1002600012E0A0E0B2E0ECE0FCE000E00BBF02C076
:1002700007900D92AA34B107D9F722E0AAE4B2E0C0
:1002800001C01D92A03FB207E1F711E0C8E2D1E042
:1002900000E006C021970109802FFE010E94EA05B7
:1002A000C732D10780E00807A9F70E9446040C94E2
:1002B000F2050C940000CF93DF9300D00F92CDB7DE
:1002C000DEB73FB7F8948091E7029091E802A091E1
:1002D000E902B091EA0226B5A89B05C02F3F19F0AC
:1002E0000196A11DB11D3FBFBA2FA92F982F8827B6
:1002F000820F911DA11DB11D9C01AD0162E0220F75
:10030000331F441F551F6A95D1F7CA01B9010F90D9
:100310000F900F900F90DF91CF910895CF93DF93BF
:1003200090E0FC01E85FFD4F24918E539E4FFC014D
:1003300084918823D1F090E0880F991FFC01E85543
:10034000FE4FA591B491FC01E257FE4FC591D491A7
:100350009FB761110DC0F8948C91E22FE0958E2328
:100360008C9388818E2388839FBFDF91CF910895DE
:10037000F8948C91822B8C93F7CF282F30E0F901E1
:10038000E85BFE4F9491F901E85FFD4F44912E53D5
:100390003E4FF9012491222319F1992381F09150C4
:1003A000923168F4E92FF0E08827EC50FA4F8F4F34
:1003B0000C94EA05809180008F7780938000E22F73
:1003C000F0E0EE0FFF1FE257FE4FA591B4919FB7EB
:1003D000F8948C91611148C0409548234C939FBF7D
:1003E0000895809180008F7DE8CF80918000877F85
:1003F000E4CF84B58F7784BDE2CF84B58F7DFBCF0A
:100400008091B0008F778093B000D9CF8091B000F9
:100410008F7DF9CF809190008F7780939000CFCF20
:10042000809190008F7DF9CF80919000877FF5CFEC
:100430008091A0008F778093A000C1CF8091A00011
:100440008F7DF9CF8091A000877FF5CF809120012B
:100450008F7780932001B3CF809120018F7DF9CFDA
:1004600080912001877FF5CF842B8C93B8CFFC013E
:10047000848DDF01A80FB11DA35ABF4F2C91848D2D
:1004800090E001968F739927848FA689B7892C9362
:10049000A089B1898C91837080648C93938D848DB5
:1004A000981306C00288F389E02D80818F7D8083B8
:1004B0000895FC01818D228D90E0805C9F4F821B0E
:1004C00091098F73992708958AE492E00E94590256
:1004D0009C0181E0232B09F480E0089580E090E006
:1004E000892B29F00E94640281110E94000080E0A3
:1004F00090E0892B49F080E090E0892B29F00E9460
:10050000000081110E94000080E090E0892B49F0FA
:1005100080E090E0892B29F00E94000081110E9468
:10052000000080E090E0892B49F080E090E0892B8A
:1005300029F00E94000081110C9400000895FC0134
:10054000918D828D981731F0828DE80FF11D858D88
:1005500090E008958FEF9FEF0895FC01918D828DBB
:10056000981761F0828DDF01A80FB11D5D968C9107
:10057000928D9F5F9F73928F90E008958FEF9FEF12
:100580000895FC01538D448D252F30E0842F90E099
:10059000821B930B541710F0CF960895019708957E
:1005A000CF93DF93EC01888D81110FC0DF91CF9144
:1005B00008950FB607FC0DC08C9185FF08C080819F
:1005C00085FF03C0CE010E943702AA89BB89E88952
:1005D000F9898C9185FDEDCF808186FFEACFE6CF4A
:1005E000EF92FF920F931F93CF93DF93EC01F62EC0
:1005F00081E0888F9B8D8C8D98131AC0E889F989CA
:10060000808185FF15C09FB7F894EE89FF896083CC
:10061000E889F98980818370806480839FBF81E04D
:1006200090E0DF91CF911F910F91FF90EF9008958F
:100630000B8D10E00F5F1F4F0F731127E02E8C8D75
:100640008E1579F08B8DFE01E80FF11DE35AFF4FF7
:10065000F0829FB7F8940B8FEA89FB8980818062D2
:10066000DCCF0FB607FCEBCFE889F989808185FFE5
:10067000E6CFCE010E943702E2CFCF92DF92EF9217
:10068000FF920F931F93CF93DF937C016A0110E0D9
:1006900000E00C151D0551F4C801DF91CF911F91A9
:1006A0000F91FF90EF90DF90CF900895EB01D7016D
:1006B000ED91FC910190F081E02D6991C7011995B0
:1006C000892B51F30F5F1F4FBE01E3CFBC01009791
:1006D00061F0FC0101900020E9F73197AF01481B60
:1006E000590B8AE492E00C943D0308951F921FB6C3
:1006F0001F9211242F933F938F939F93AF93BF9398
:100700008091EC029091ED02A091EE02B091EF0287
:100710003091EB0223E0230F2D3750F50196A11DF8
:10072000B11D2093EB028093EC029093ED02A09315
:10073000EE02B093EF028091E7029091E802A0915F
:10074000E902B091EA020196A11DB11D8093E70272
:100750009093E802A093E902B093EA02BF91AF91AF
:100760009F918F913F912F911F901FBE1F901895C1
:1007700026E8230F0296A11DB11DD3CF2F932FB7CB
:100780002F932BB72F938F939F93EF93FF93E0912A
:100790005A02F0915B028081E0916002F091610267
:1007A00082FD1BC09081809163028F5F8F732091C7
:1007B0006402821741F0E0916302F0E0E65BFD4FD6
:1007C000958F80936302FF91EF919F918F912F916D
:1007D0002BBF2F912FBF2F9118958081F4CF1F929F
:1007E0000F920FB60F9211240BB60F922F933F93D7
:1007F0004F935F936F937F938F939F93AF93BF9329
:10080000EF93FF938AE492E00E943702FF91EF9109
:10081000BF91AF919F918F917F916F915F914F9118
:100820003F912F910F900BBE0F900FBE0F901F9016
:100830001895EAE4F2E01382128288EE93E0A0E0D9
:10084000B0E084839583A683B78384E092E09183AC
:10085000808385EC90E09587848784EC90E097878F
:10086000868780EC90E0918B808B81EC90E0938B7D
:10087000828B82EC90E0958B848B86EC90E0978B5A
:10088000868B118E128E138E148E0895CDB7DEB71F
:10089000A5970FB6F894DEBF0FBECDBF789484B590
:1008A000826084BD84B5816084BD85B5826085BD6C
:1008B00085B5816085BD80916E00816080936E00FA
:1008C00010928100809181008260809381008091EC
:1008D000810081608093810080918000816080939D
:1008E00080008091B10084608093B1008091B0005D
:1008F00081608093B000809191008260809391002C
:10090000809191008160809391008091900081603E
:10091000809390008091A10082608093A1008091DB
:10092000A10081608093A1008091A00081608093EC
:10093000A00080912101826080932101809121019A
:10094000816080932101809120018160809320014A
:1009500080917A00846080937A0080917A0082602E
:1009600080937A0080917A00816080937A008091F0
:100970007A00806880937A001092C10060E086E37C
:100980000E948E0161E086E00E948E0161E087E0B6
:100990000E948E0160E086E00E94BD0160E087E079
:1009A0000E94BD01E0915A02F0915B0282E08083D7
:1009B000E0915602F09157021082E0915802F091B6
:1009C00059028FEC808310926202E0915E02F091F6
:1009D0005F0286E08083E0915C02F0915D0280819D
:1009E00080618083E0915C02F0915D02808188608B
:1009F0008083E0915C02F0915D0280818068808359
:100A0000E0915C02F0915D0280818F7D808390E4B3
:100A1000392E2AE0822E912CA12CB12C80917B00C2
:100A2000877F80937B0030927C0080917A00806485
:100A300080937A0080917A0086FDFCCF0091780047
:100A400080917900182F6801012E000CEE08FF0834
:100A500017FF6DC06DE28AE492E00E94F0028827E1
:100A60009927DC018C199D09AE09BF098AA39BA3B4
:100A7000ACA3BDA319A28E010F5D1F4F6AA17BA17C
:100A80008CA19DA1A50194010E94C8058AA19BA1EA
:100A9000ACA1BDA12AA33BA34CA35DA3605DF8015B
:100AA00062938F010A97A105B10540F7CF010E941B
:100AB000660382E192E00E9466038BE292E00E946C
:100AC000660360E087E00E94BD0161E086E00E946D
:100AD000BD010E945B016B017C0184EF482E55240F
:100AE0005394612C712C0E945B016AA37BA38CA39D
:100AF0009DA3DC01CB018C199D09AE09BF09883E7D
:100B00009340A105B10578F321E0421A510861082C
:100B1000710888EEC80E83E0D81EE11CF11C411458
:100B2000510461047104F9F60E946E0277CF260128
:100B30006E2CDF2C19A2CE0181967C01B201862D8C
:100B40009D2DA50194010E94C805C201A62DBD2DB1
:100B50002901642ED52E605DF70162937F010A970B
:100B6000A105B10558F7CF010E946603003213407A
:100B70000CF49FCF8EE292E00E9466038BE292E03B
:100B80000E94660361E087E00E94BD0160E09ECFA5
:100B9000A1E21A2EAA1BBB1BFD010DC0AA1FBB1F81
:100BA000EE1FFF1FA217B307E407F50720F0A21BF3
:100BB000B30BE40BF50B661F771F881F991F1A9460
:100BC00069F760957095809590959B01AC01BD018A
:100BD000CF010895EE0FFF1F881F8BBF0790F6917E
:100BE000E02D1994F894FFCFF901FD01DA01F1012C
:100BF000F501DF01000206020A02100214021802C7
:0C0C00001E022202DF0126022C0230023C
:100C0C0000000000F0023D03C102D0025902AD0207
:100C1C009F02202D20446F65736E2774206E6565CE
:100C2C0064207761746572696E67000D0A00202D6F
:100C3C002054696D6520746F20776174657220791A
:0A0C4C006F757220706C616E740009
:00000001FF
