:100000000C946F010C94EC090C94170A0C94420A9E
:100010000C946D0A0C94980A0C94C30A0C94EE0A82
:100020000C94190B0C94A0010C94A0010C94A00149
:100030000C94A0010C94A0010C94A0010C94A001BC
:100040000C94A0010C949D080C94A0010C94A001A8
:100050000C94A0010C94A0010C94A0010C94440BEE
:100060000C94A0010C948C0B0C94BD0B0C94A0016F
:100070000C94A0010C94A0010C94A0010C94A0017C
:100080000C94A0010C94A0010C94A0010C94A0016C
:100090000C94A0010C94A0010C94A0010C94A0015C
:1000A0000C94A0010C94A0010C94A0010C94A0014C
:1000B0000C94A0010C94A0010C94A0010C94A0013C
:1000C0000C94A0010C94A0010C94A0010C94A0012C
:1000D0000C94A0010C94A0010C94A0010C94A0011C
:1000E0000C94A0010C9445020C9454020C94C90584
:1000F0000C9458020C943E020C9486020C946B02F1
:100100000C9486050C9449070C940B030C94F30291
:100110000C9481060C94FD020C94CC020C94A40166
:100120000C94FD010C945C020C9417040C946F0267
:100130000C9406030C94EB020C94D4020C949A05D4
:100140000C94B3010C94E50C0C9438020C94C60288
:100150000C9460020C94E5020C943B020C9448024F
:100160000C942F020C94D0020C9435020C940103D1
:100170000C94DB020C94D8020C94EF020C94B80798
:100180000C9478050C9432020C944E020C943205B7
:100190000C9452080C9407030C9467020C94E1022F
:1001A0000C9438060C94A8070C94F9020C94840261
:1001B0000C94A9050C944B020C943D040000220001
:1001C000250028002B002E00310034000201000021
:1001D000050108010B010000200023002600290072
:1001E0002C002F003200000100000301060109016C
:1001F00000000A0B02090C0D0E08070304010000A1
:1002000000000000000000000000000000000000EE
:1002100000000000000000000000000012111000AB
:1002200000000000000000000000000000000000CE
:1002300000000000000000002100240027002A0028
:100240002D003000330001010000040107010A0104
:1002500001021020200808102040102040800201D8
:1002600002010804020101020408102040808040BD
:1002700020100804020180040201804020100804BC
:10028000020108040201010204081020408001025A
:100290000408102040800505050507050808080822
:1002A000020202020A0A080804040404010101010E
:1002B0000101010103030303030303030407070709
:1002C0000C0C0C0C0C0C0C0C0202020206060606AE
:1002D000060606060B0B0B0B0B0B0B0BE50C112488
:1002E0001FBECFEFD1E2DEBFCDBF00E00CBF23E0E9
:1002F000A2ECB2E001C01D92AD3AB207E1F712E004
:10030000A0E0B2E0EEECFAE100E00BBF02C0079023
:100310000D92A23CB107D9F711E0CFE6D1E000E0A1
:1003200006C021970109802FFE010E94420DCE36A2
:10033000D10780E00807A9F70E94E70B0C94530D42
:100340000C94000081E00895CF93DF93EC01E881E5
:10035000F9810280F381E02DCE0119958823B9F34C
:10036000DF91CF9108958F929F92AF92BF92CF92DB
:10037000DF92EF92FF92CF93DF93EC016B018FB787
:10038000F8948090A9039090AA03A090AB03B0903A
:10039000AC038FBFF12CE12C2FB7F8948091A90307
:1003A0009091AA03A091AB03B091AC032FBF881921
:1003B0009909AA09BB098C159D05AE05BF0510F06A
:1003C00080E009C0E881F9810280F381E02DCE014F
:1003D0001995882309F3DF91CF91FF90EF90DF907B
:1003E000CF90BF90AF909F908F900895FC01828135
:1003F00093810397E1F381E008950F931F93CF93C7
:10040000FC01CB014FB7F8940091A9031091AA0306
:100410002091AB033091AC034FBFB0E0A0E0CFB769
:10042000F8944091A9035091AA036091AB03709195
:10043000AC03CFBF401B510B620B730B481759071E
:100440006A077B0728F080E0CF911F910F910895F4
:10045000428153814330510511F381E0F5CFFC0116
:1004600065830895FC0164830895FC016287089503
:10047000FC0163870895FC0164870895FC014095A1
:1004800085854823462B45870895FC01868108957C
:10049000FC0187810895FC0180850895FC01818518
:1004A000089580E008950895FC017583648308959C
:1004B000FC01778366830895FC017383628308954A
:1004C0006EBD00000DB407FEFDCF8EB508958CB54E
:1004D00080688CBD08958CB58F778CBD08959FB7CB
:1004E000F8948091A803811105C08CB58F7B8CBDD9
:1004F0009FBF089581508093A8038111F9CFF5CF54
:10050000FC0180818FBF08958CE108950895CF93F9
:10051000DF9300D00F92CDB7DEB73FB7F89480914C
:10052000A3039091A403A091A503B091A60326B5BF
:10053000A89B05C02F3F19F00196A11DB11D3FBF1B
:10054000BA2FA92F982F8827820F911DA11DB11DA9
:100550009C01AD0162E0220F331F441F551F6A95B5
:10056000D1F7CA01B9010F900F900F900F90DF9152
:10057000CF9108958150823108F048C0E82FF0E013
:100580008827EB5AF24F8F4F0C94420D80918000D8
:100590008F77809380000895809180008F7DF9CFC0
:1005A00080918000877FF5CF84B58F7784BD0895D3
:1005B00084B58F7DFBCF8091B0008F778093B000A2
:1005C00008958091B0008F7DF9CF809190008F7752
:1005D000809390000895809190008F7DF9CF809155
:1005E0009000877FF5CF8091A0008F778093A00047
:1005F00008958091A0008F7DF9CF8091A000877F22
:10060000F5CF809120018F7780932001089580910C
:1006100020018F7DF9CF80912001877FF5CF1F9337
:10062000CF93DF93162F282F30E0F901E051FE4FD2
:100630008491F901E05BFD4FD491F901EA56FD4F39
:10064000C491CC23A1F081110E94BA02EC2FF0E0FA
:10065000EE0FFF1FE454FE4FA591B4919FB7F8949D
:100660008C91111108C0D095D823DC939FBFDF91E6
:10067000CF911F9108958D2B8C93F8CFFF920F93FC
:100680001F93CF93DF930F92CDB7DEB78C01F62E79
:100690008FB78983F89460E0D80157968C910E94B7
:1006A0000F03F80185899689DC01ED91FC91019099
:1006B000F081E02D6F2D1995F82E61E0F801878902
:1006C0000E940F03CE0101960E9480028F2D0F9091
:1006D000DF91CF911F910F91FF900895FF920F939B
:1006E0001F93CF93DF930F92CDB7DEB78C01F62E19
:1006F0008FB78983F89460E0D80157968C910E9457
:100700000F03F80185899689DC01ED91FC91019038
:10071000F081E02D6F2D1995F80185899689DC010E
:10072000ED91FC910190F081E02D60E01995F82E9B
:1007300061E0F80187890E940F03CE0101960E94B3
:1007400080028F2D0F90DF91CF911F910F91FF901D
:100750000895EF92FF920F931F93CF93DF930F9221
:10076000CDB7DEB78C01F62EE42E8FB78983F894CF
:1007700060E0D80157968C910E940F03F80185899B
:100780009689DC01ED91FC910190F081E02D6F2DB7
:100790001995F82EF80185899689DC01ED91FC9177
:1007A0000190F081E02D6E2D199561E0F8018789A7
:1007B0000E940F03CE0101960E9480028F2D0F90A0
:1007C000DF91CF911F910F91FF90EF90089560629C
:1007D0000C94A903CF93DF93EC018A819B8102974C
:1007E00061F06B8D898D0E940F0360E0888D0E94FF
:1007F0000F0382E090E09B838A83DF91CF9108957D
:10080000CF93DF93EC018A819B81029769F0488D39
:1008100060E0CE010E94E70360E0898D0E940F0333
:1008200082E090E09B838A83DF91CF9108951F93AC
:10083000CF93DF93EC018A819B810397E1F46FEF03
:10084000CE010E943E03182F8073C9F314FF04C029
:1008500061EECE010E943E03CE010E94000440E3FF
:1008600067E0CE010E94E70315FB882780F9DF913E
:10087000CF911F91089580E0FACFCF92DF92EF924F
:10088000FF920F931F93CF93DF930F92CDB7DEB7F5
:100890008C01DC01DB96DC90DB97D110BEC0129698
:1008A0008D919C911397039789F112968D919C914C
:1008B0001397049799F058964C91436060E0C801F3
:1008C0000E94E70361E0F801818D0E940F0384E03C
:1008D00090E0D80113969C938E93129767E1C8011C
:1008E0000E946E0380FD12C060E6C8010E946E0384
:1008F000F82EB0E2B817A8F462EEC8010E943E03D9
:10090000F80113AE128EC8010E9400048D2D0F90C5
:10091000DF91CF911F910F91FF90EF90DF90CF90DB
:10092000089540E467E0C8010E94E7036801FBE125
:10093000CF0ED11C8FB78983F89460E0D801579609
:100940008C910E940F03F80185899689DC01ED9155
:10095000FC910190F081E02D61E61995EF2CEA946D
:10096000FFEFEF1246C061E0D80157968C910E94CC
:100970000F03CE0101960E948002F801F28EF3E08F
:10098000FF1508F045C0D8015B968C915B971696D1
:100990008C9316975C968C915C9717968C9317970F
:1009A0005D968C915D9718968C9318975E968C91B6
:1009B0005E9719968C93199715968C9115978111BE
:1009C0000CC016969C91169714968C9114979817B4
:1009D00021F016968C918F3FD9F4F8018189928984
:1009E0000196928B818B81E083AFC8010E94000445
:1009F00014C0F80185899689DC01ED91FC91019084
:100A0000F081E02D60E01995F60181936F01A7CF89
:100A1000D801DB968C918111E8CFF801D3AC76CF69
:100A2000FC01848DDF01A80FB11DA35ABF4F2C918B
:100A3000848D90E001968F739927848FA689B7895A
:100A40002C93A089B1898C91837080648C93938D51
:100A5000848D981306C00288F389E02D80818F7DF4
:100A600080830895FC01818D228D90E0805C9F4FF2
:100A7000821B91098F739927089586E093E00E9465
:100A800032059C0181E0232B09F480E0089580E089
:100A900090E0892B29F00E943D0581110E94000001
:100AA00080E090E0892B49F080E090E0892B29F0EC
:100AB0000E94000081110E94000080E090E0892BDC
:100AC00049F080E090E0892B29F00E94000081111C
:100AD0000E94000080E090E0892B49F080E090E0E7
:100AE000892B29F00E94000081110C9400000895C8
:100AF000FC01918D828D981731F0828DE80FF11DE8
:100B0000858D90E008958FEF9FEF0895FC01918D02
:100B1000828D981761F0828DDF01A80FB11D5D965F
:100B20008C91928D9F5F9F73928F90E008958FEFCD
:100B30009FEF0895FC01538D448D252F30E0842FC5
:100B400090E0821B930B541710F0CF9608950197F5
:100B50000895CF93DF93EC01888D81110FC0DF9151
:100B6000CF9108950FB607FC0DC08C9185FF08C08A
:100B7000808185FF03C0CE010E941005AA89BB8930
:100B8000E889F9898C9185FDEDCF808186FFEACFD8
:100B9000E6CFCF92DF92EF92FF920F931F93CF9306
:100BA000DF930F92CDB7DEB78C01D62E81E0D8014E
:100BB00058968C9358975B969C915B975C968C911A
:100BC0005C97981326C05096ED91FC9151978081C7
:100BD00085FF1FC08FB78983F8945696ED91FC91DD
:100BE000579760835096ED91FC918081837080646B
:100BF0008083CE0101960E94800281E090E00F90F8
:100C0000DF91CF911F910F91FF90EF90DF90CF90E8
:100C10000895F801E38CF12CFFEFEF1AFF0A8FE340
:100C2000E822FF24CE2CF801848D8C1599F0838D59
:100C3000E80FF11DE35AFF4FD0828FB78983F894F4
:100C4000D8015B96EC925B975296ED91FC91808176
:100C50008062CECF0FB607FCE6CFD8015096ED915B
:100C6000FC91808185FFDFCFC8010E941005DBCF9A
:100C7000CF92DF92EF92FF920F931F93CF93DF9368
:100C80007C016A0110E000E00C151D0551F4C8015B
:100C9000DF91CF911F910F91FF90EF90DF90CF9058
:100CA0000895EB01D701ED91FC910190F081E02DC9
:100CB0006991C7011995892B51F30F5F1F4FBE0131
:100CC000E3CF90E0FC01E05BFD4F24918A569D4FFD
:100CD000FC0184918823A1F090E0880F991FFC010A
:100CE000EA5CFD4FA591B491FC01E454FE4F85915F
:100CF00094918FB7F8949C91E22FE92BEC938FBFDE
:100D00000895CF93FC01868197819C012150310980
:100D1000982F990F990F2330310508F090E08CB58A
:100D2000837F892B8CBD84819581019709F04EC00A
:100D30008CB580628CBD828193810197843091054E
:100D400008F047C08E589D4FFC0180819CB59C7F68
:100D5000282F2370922B9CBD9DB582FB882780F99C
:100D60009E7F892B8DBDCFB7F8948091A803811108
:100D700025C0EBECF2E08491E5E8F2E09491E82FF5
:100D8000F0E0EE0FFF1FEA5CFD4FA591B4918C914E
:100D9000E92FE82321F461E085E30E940F0385E356
:100DA0000E9461068CB580618CBD8CB580648CBD61
:100DB00084E30E94610683E30E9461068091A80398
:100DC0008F5F8093A803CFBFCF9108958CB58F7D9F
:100DD000B1CF81E0BBCF8F929F92AF92BF92CF9263
:100DE000DF92EF92FF92CF93DF9300D00F92CDB7B7
:100DF000DEB789839A83A981BA8155968D919C919A
:100E0000DC01ED91FC910680F781E02D1995E981D7
:100E1000FA8187890E94610661E0A981BA815796AB
:100E20008C910E940F030E9487026B017C0184E673
:100E3000882E912CA12CB12C0E948702DC01CB01C1
:100E40008C199D09AE09BF09883E9340A105B105E3
:100E500098F3B1E08B1A9108A108B108E8EECE0E24
:100E6000E3E0DE1EE11CF11C81149104A104B10435
:100E700019F781E00F900F900F900F90DF91CF91B5
:100E8000FF90EF90DF90CF90BF90AF909F908F90AA
:100E900008951F93CF93DF93EC018D899E89DC0128
:100EA000ED91FC910684F785E02D70E060E01995E6
:100EB000CE010E94EB06182F811106C010E0812F91
:100EC000DF91CF911F910895898D0E94610660E0A6
:100ED000898D0E940F0340E767E0CE010E94E7037F
:100EE0004FE36CE1CE010E94E70345E06DE1CE01E6
:100EF0000E94E7036DE1CE010E946E038530B1F4DC
:100F0000CE010E94000461EECE010E943E0362EE1B
:100F1000CE010E943E0342E065E0CE010E94E7035D
:100F20004FE066E0CE010E94E703C9CF43E760E5EA
:100F3000CE010E94A90345E06DE1CE010E94E703C6
:100F40006DE1CE010E946E03853009F0B7CFD8CF96
:100F5000EC018A819B8140E060E0CE010E94E703C2
:100F600060E0898D0E940F0381E090E09B838A837B
:100F7000CF92DF92FF920F931F93CF93DF930F9245
:100F8000CDB7DEB78C01F42E8CE1841708F488C04D
:100F9000D8011A968C911A975B968C935B971B9647
:100FA0008C911B975C968C935C971C968C911C97EC
:100FB0005D968C935D971D968C911D975E968C9394
:100FC00050E0C8014F960E944A0DB4E0FB0E680144
:100FD000EBE1CE0ED11C8FB78983F89460E0D80185
:100FE00057968C910E940F03F80185899689DC0140
:100FF000ED91FC910190F081E02D60EB1995FA9450
:10100000BFEFFB1240C061E0F80187890E940F0327
:10101000CE0101960E948002D80112968D919C917A
:1010200013970397E1F060E059968C910E940F03AB
:1010300040E367E0C8010E94E703F801408D426089
:1010400060E0C8010E94E70361E0D80159968C91E5
:101050000E940F0383E090E0F80193838283D8011C
:1010600053968D919C915497019654969C938E9390
:10107000539781E00F90DF91CF911F910F91FF90D7
:10108000DF90CF900895F80185899689DC01ED9174
:10109000FC910190F081E02DD6016D916D01AECFF4
:1010A00080E0E8CFCF92DF92FF920F931F93CF9310
:1010B000DF93EC016B018A01E881F9810280F38101
:1010C000E02D1995F82E8823E1F0C114D104B9F070
:1010D00001151105A1F08A8D482F4350550BF801D9
:1010E00090819417150614F084508083F801408194
:1010F00050E0BE01615E7F4FC6010E944A0D1BAEEB
:101100001A8E8F2DDF91CF911F910F91FF90DF905D
:10111000CF900895BC01FC0101900020E9F73197C0
:10112000AF01481B590B86E093E00C9438060E94EF
:101130008A0886E792E00C948A081F920F920FB6F5
:101140000F9211240BB60F922F933F934F935F93FF
:101150006F937F938F939F93AF93BF93CF93DF93BF
:10116000EF93FF938091020090910300049709F0A0
:10117000E8C02091170030E0F901E051FE4F849162
:10118000F901E05BFD4FD491F901EA56FD4FC4919E
:10119000CC2381F081110E94BA02EC2FF0E0EE0F17
:1011A000FF1FEA52FE4FA591B4918C91ED2FE823D9
:1011B00081E009F480E0817020911A00982F922735
:1011C000821729F080911F008F5F80931F0080910C
:1011D0001E00891709F479C080B12DE1803508F42B
:1011E0002BE080B1820F80B990931E0080B1803ACD
:1011F00008F456C082B193B19695879593B982B998
:1012000080911F00853028F082B193B1986093B926
:1012100082B980B1805A80B910921F0081B18823B1
:1012200009F483C084B18F5F84B98C30C8F182B176
:1012300093B18F73282F26952695287098E0920FEA
:10124000921347C020E080E1289F9001112482B1D1
:1012500093B136E0969587953A95E1F7482F8695B4
:101260008695887098E0980F89133DC080E0822BA6
:1012700090916900911141C080936800909168003D
:10128000973020F0909168009434B8F111B88091B3
:101290000F009091100001969093100080930F0022
:1012A000FF91EF91DF91CF91BF91AF919F918F917E
:1012B0007F916F915F914F913F912F910F900BBE56
:1012C0000F900FBE0F901F90189580B18C5E80B963
:1012D0008DCFE22FF0E0EE59FD4F3081831709F4F6
:1012E000B2CF2F5FADCFE82FF0E0EE59FD4F508128
:1012F000451709F4BCCF8F5FB7CFE091690091E04B
:101300009E0F90936900F0E085A390916900809111
:101310006800981740F011B881E080931C0090E0BD
:1013200080E00E94EA0314B8BBCF82B193B1883346
:101330009B4009F0B5CF81E081B914B810926900E3
:10134000AFCF8091020090910300039709F0A8CFDE
:1013500080916C0091E0980F90936C00811113C004
:10136000E0916A008091FB00E817A8F090E080E02F
:101370000E94EA03809113009091140001969093CB
:1013800014008093130080916C00883008F488CF9B
:1013900010926C0085CFF0E0E359FF4F608170E060
:1013A00080916B0091E0980F90936B0002C075954F
:1013B00067958A95E2F76170809118000E940F038B
:1013C00080916B008630F8F210926B0080916A0079
:1013D0008F5F80936A00D7CF1F920F920FB60F9244
:1013E00011240BB60F922F933F934F935F936F93FC
:1013F0007F938F939F93AF93BF93EF93FF93E0916E
:101400000402F09105021995FF91EF91BF91AF9100
:101410009F918F917F916F915F914F913F912F910C
:101420000F900BBE0F900FBE0F901F9018951F923C
:101430000F920FB60F9211240BB60F922F933F937A
:101440004F935F936F937F938F939F93AF93BF93CC
:10145000EF93FF93E0910602F09107021995FF9137
:10146000EF91BF91AF919F918F917F916F915F911C
:101470004F913F912F910F900BBE0F900FBE0F9089
:101480001F9018951F920F920FB60F9211240BB652
:101490000F922F933F934F935F936F937F938F930D
:1014A0009F93AF93BF93EF93FF93E0910802F09166
:1014B00009021995FF91EF91BF91AF919F918F9183
:1014C0007F916F915F914F913F912F910F900BBE44
:1014D0000F900FBE0F901F9018951F920F920FB68E
:1014E0000F9211240BB60F922F933F934F935F935C
:1014F0006F937F938F939F93AF93BF93EF93FF93DC
:10150000E0910A02F0910B021995FF91EF91BF91C2
:10151000AF919F918F917F916F915F914F913F918B
:101520002F910F900BBE0F900FBE0F901F9018952C
:101530001F920F920FB60F9211240BB60F922F939A
:101540003F934F935F936F937F938F939F93AF934B
:10155000BF93EF93FF93E0910002F0910102199580
:10156000FF91EF91BF91AF919F918F917F916F917B
:101570005F914F913F912F910F900BBE0F900FBE37
:101580000F901F9018951F920F920FB60F92112473
:101590000BB60F922F933F934F935F936F937F936D
:1015A0008F939F93AF93BF93EF93FF93E0910202CA
:1015B000F09103021995FF91EF91BF91AF919F9127
:1015C0008F917F916F915F914F913F912F910F90EC
:1015D0000BBE0F900FBE0F901F9018951F920F9289
:1015E0000FB60F9211240BB60F922F933F934F9388
:1015F0005F936F937F938F939F93AF93BF93EF937B
:10160000FF93E0910C02F0910D021995FF91EF917B
:10161000BF91AF919F918F917F916F915F914F910A
:101620003F912F910F900BBE0F900FBE0F901F9008
:1016300018951F920F920FB60F9211240BB60F92AE
:101640002F933F934F935F936F937F938F939F93CA
:10165000AF93BF93EF93FF93E0910E02F0910F02CF
:101660001995FF91EF91BF91AF919F918F917F91CC
:101670006F915F914F913F912F910F900BBE0F9003
:101680000FBE0F901F9018951F921FB61F92112426
:101690002F933F938F939F93AF93BF938091A90311
:1016A0009091AA03A091AB03B091AC033091A70332
:1016B00023E0230F2D3750F50196A11DB11D209376
:1016C000A7038093A9039093AA03A093AB03B093BD
:1016D000AC038091A3039091A403A091A503B091C2
:1016E000A6030196A11DB11D8093A3039093A403AB
:1016F000A093A503B093A603BF91AF919F918F9143
:101700003F912F911F901FBE1F90189526E8230F21
:101710000296A11DB11DD3CF2F932FB72F932BB7B7
:101720002F938F939F93EF93FF93E0911603F09184
:1017300017038081E0911C03F0911D0382FD1BC003
:10174000908180911F038F5F8F73209120038217F8
:1017500041F0E0911F03F0E0EA5FFC4F958F80932A
:101760001F03FF91EF919F918F912F912BBF2F918D
:101770002FBF2F9118958081F4CF1F920F920FB633
:101780000F9211240BB60F922F933F934F935F93B9
:101790006F937F938F939F93AF93BF93EF93FF9339
:1017A00086E093E00E941005FF91EF91BF91AF9109
:1017B0009F918F917F916F915F914F913F912F9169
:1017C0000F900BBE0F900FBE0F901F901895CDB7C6
:1017D000DEB7E3970FB6F894DEBF0FBECDBF7894A7
:1017E00084B5826084BD84B5816084BD85B5826026
:1017F00085BD85B5816085BD80916E0081608093D7
:101800006E0010928100809181008260809381003F
:10181000809181008160809381008091800081604F
:10182000809380008091B10084608093B1008091AA
:10183000B00081608093B0008091910082608093BD
:10184000910080919100816080939100809190003F
:101850008160809390008091A10082608093A100BC
:101860008091A10081608093A1008091A00081609F
:101870008093A0008091210182608093210180915A
:1018800021018160809321018091200181608093FA
:10189000200180917A00846080937A0080917A00A0
:1018A000826080937A0080917A00816080937A00D0
:1018B00080917A00806880937A001092C100E09154
:1018C0001603F091170382E08083E0911203F091F8
:1018D00013031082E0911403F09115038FEC8083C1
:1018E00010921E03E0911A03F0911B0386E080839F
:1018F000E0911803F0911903808180618083E09169
:101900001803F0911903808188608083E0911803A7
:10191000F0911903808180688083E0911803F09131
:10192000190380818F7D80838AEC92E00E944907B1
:10193000811104C089E792E00E94970841E065E0C8
:101940008AEC92E00E94E7034FE066E08AEC92E0C6
:101950000E94E7031CE18AEC92E00E943D04882388
:1019600071F11BABAE014D5C5F4FBE016F5F7F4FEE
:101970008AEC92E00E945208882321F185E892E0E7
:101980000E948A08CE0101960E94970886E1ECEA3F
:10199000F2E0DE015D9601900D928A95E1F746E155
:1019A000BE01635E7F4F8AEC92E00E94B8078AEC2A
:1019B00092E00E94170483E992E00E9497080E9437
:1019C0004705C9CF80EA92E0F8CFE6E0F3E0138262
:1019D000128288EE93E0A0E0B0E084839583A68332
:1019E000B78384E192E09183808385EC90E09587D2
:1019F000848784EC90E09787868780EC90E0918BD9
:101A0000808B81EC90E0938B828B82EC90E0958BC5
:101A1000848B86EC90E0978B868B118E128E138EC2
:101A2000148EA2ECB2E013961C921E921297159699
:101A30001C921E92149717961C921E92169786E27D
:101A400092E011969C938E93EAECF2E0138212825C
:101A50008FEF84838287838714861586108A178682
:101A6000128A118A148A138AB68BA58B8AE0878B17
:101A70008AE392E09183808313AE8CE0808F88E0CC
:101A8000818F0895EE0FFF1F881F8BBF0790F6917F
:101A9000E02D1994FB01DC0102C001900D92415030
:101AA0005040D8F70895F894FFCFD402D802C60268
:101AB000CC02D0020603DB02E102E502EB02EF02F8
:0E1AC000F302F902FD020603010307030B0304
:101ACE0086028602860286028602860286028602C8
:101ADE0000000000C90538069A05A90532058605DD
:101AEE00780500000000600267026B0281066F023B
:101AFE00540258025C020000000049073D045208DF
:101B0E00B8078402A4011704FD01B30132023502A5
:101B1E0038023B023E022F02450248024B024E02A1
:101B2E00A8070D0E131516191A1C232526292A2C63
:101B3E003234050004040D0A00696E697420666172
:101B4E00696C656400676F74207265717565737476
:101B5E003A200053656E742061207265706C7900B6
:101B6E0072656376206661696C656400416E6420FF
:101B7E0068656C6C6F206261636B20746F20796F87
:021B8E007500E0
:00000001FF
