:020000040000FA
:100000000C946E010C949F010C949F010C949F0121
:100010000C949F010C949F010C949F010C949F01E0
:100020000C949F010C949F010C949F010C949F01D0
:100030000C949F010C949F010C949F010C949F01C0
:100040000C949F010C949F010C949F010C949F01B0
:100050000C949F010C949F010C949F010C942F0A07
:100060000C949F010C94770A0C94A80A0C949F019D
:100070000C949F010C949F010C949F010C949F0180
:100080000C949F010C949F010C949F010C949F0170
:100090000C949F010C949F010C949F010C940D09EA
:1000A0000C949F010C949F010C949F010C949F0150
:1000B0000C949F010C949F010C949F010C949F0140
:1000C0000C949F010C949F010C949F010C949F0130
:1000D0000C949F010C949F010C949F010C949F0120
:1000E0000C949F0107634236B79BD8A71A3968560C
:1000F00018AEBAAB558C1D3CB7CC5763BD6DEDFD4A
:10010000753EF6177231BF000000803F0800000006
:10011000BE922449123EABAAAA2ABECDCCCC4C3EFC
:1001200000000080BEABAAAAAA3E00000000BF00EB
:100130000000803F0000000000084178D3BB4387E7
:10014000D1133D190E3CC3BD4282AD2B3E68EC82FB
:1001500076BED98FE1A93E4C80EFFFBE01C4FF7F80
:100160003F00000000000C9413030C9485040C94D1
:10017000AB010C9418040C9421030C94A1010C9471
:100180002C110C94CD010C942B030C9427030C948C
:10019000E3020C9438040C9435030C9406030C947D
:1001A000FA020C94F6010C94BE010C94FE020C941D
:1001B000A1030C9419030C94F5030C942F030C94D5
:1001C000CF010C94E7030C9409030C941D030C94C9
:1001D00009040C940F030C94A4010C9402030C94D6
:1001E000E8020C94CE010C9425020C943903000013
:1001F0002200250028002B002E00310034000201CF
:100200000000050108010B010505050507050808A3
:100210000808020202020A0A080804040404010190
:1002200001010101010103030303030303030407A5
:1002300007070C0C0C0C0C0C0C0C0202020206063C
:100240000606060606060B0B0B0B0B0B0B0B01022F
:1002500010202008081020401020408002010201D8
:100260000804020101020408102040808040201090
:1002700008040201800402018040201008040201E9
:100280000804020101020408102040800102040851
:100290001020408000000A0B02090C0D0E08070315
:1002A0000401000000000000000000000000000049
:1002B000000000000000000000000000000000003E
:1002C00012111000000000000000000000000000FB
:1002D000000000000000000000002C1111241FBECF
:1002E000CFEFD1E2DEBFCDBF00E00CBF13E0A0E056
:1002F000B2E0EAEDFAE200E00BBF02C007900D9217
:10030000A639B107D9F725E0A6E9B3E001C01D92EF
:10031000AD34B207E1F711E0CEE6D1E000E006C06F
:1003200021970109802FFE010E944815CD36D10783
:1003300080E00807A9F70E94D20A0C9459150C9482
:10034000000090E080E008958091290590912805B3
:10035000891B990B089590912805809129052FEF0D
:100360003FEF981748F4E92FF0E0E85FFA4F20815B
:1003700030E09F5F90932805C9010895E09128051A
:1003800080912905E81730F4F0E0E85FFA4F8081AA
:1003900090E008958FEF9FEF0895089508950895D0
:1003A00020910405260F3327331F21323105E4F451
:1003B00020910705FC0190E080E0243061F082E0AC
:1003C0000895309104052191DC01AC51BB4FA30F7E
:1003D000B11D2C9301968617A0F380910405680F38
:1003E0006093040580E0089581E00895CF93DF9342
:1003F0000F92CDB7DEB7FC01698380914C0588234D
:10040000F1F080914B05803250F081E090E09383D1
:10041000828390E080E00F90DF91CF9108958091EA
:100420004A05E82FF0E0E65DFA4F998190838F5FEF
:1004300080934A0580934B0581E090E0ECCF61E02A
:10044000CE0101960E94D001F7CFCF92DF92EF92BA
:10045000FF920F931F93CF93DF937C01CB018A010F
:1004600020914C052223D9F0EB016B01C40ED51E5F
:10047000CC15DD0551F4C801DF91CF911F910F918B
:10048000FF90EF90DF90CF9008956991D701ED91A3
:10049000FC910190F081E02DC7011995E9CF642FFF
:1004A0000E94D001E8CFCF93DF9300D00F92CDB759
:1004B000DEB73FB7F89480918B0490918C04A091A3
:1004C0008D04B0918E0426B5A89B05C02F3F19F06E
:1004D0000196A11DB11D3FBFBA2FA92F982F8827C4
:1004E000820F911DA11DB11D9C01AD0162E0220F83
:1004F000331F441F551F6A95D1F7CA01B9010F90E8
:100500000F900F900F90DF91CF9108958F929F924F
:10051000AF92BF92CF92DF92EF92FF92CF93DF9391
:1005200000D00F92CDB7DEB74B015C010E945302A1
:100530006B017C010E945302DC01CB018C199D09E7
:10054000AE09BF09883E9340A105B10598F321E0AB
:10055000821A9108A108B10888EEC80E83E0D81E5F
:10056000E11CF11C81149104A104B10419F70F904E
:100570000F900F900F90DF91CF91FF90EF90DF9051
:10058000CF90BF90AF909F908F900895282F30E02C
:10059000F901EC56FD4F9491F901E25BFD4F449156
:1005A000285F3D4FF9012491222319F1992381F00D
:1005B0009150923168F4E92FF0E08827E55AFA4E1D
:1005C0008F4F0C944815809180008F778093800026
:1005D000E22FF0E0EE0FFF1FE251FE4FA591B49124
:1005E0009FB7F8948C91611148C0409548234C9373
:1005F0009FBF0895809180008F7DE8CF809180001B
:10060000877FE4CF84B58F7784BDE2CF84B58F7DBB
:10061000FBCF8091B0008F778093B000D9CF8091CD
:10062000B0008F7DF9CF809190008F7780939000FC
:10063000CFCF809190008F7DF9CF80919000877F00
:10064000F5CF8091A0008F778093A000C1CF8091DB
:10065000A0008F7DF9CF8091A000877FF5CF80919A
:1006600020018F7780932001B3CF809120018F7D6F
:10067000F9CF80912001877FF5CF842B8C93B8CF61
:100680001092070581E0809306051092050561E050
:1006900084E10E94C60261E085E10E94C602E9EBA6
:1006A000F0E080818E7F808380818D7F808388E4ED
:1006B0008093B80085E48093BC000895CF93DF93C6
:1006C00091E09093DE048823B9F0C091B800D091F6
:1006D000BA008091BC008A7B8093BC0060E084E11A
:1006E0000E94C60260E085E10E94C6020E944003AB
:1006F000D093BA00C093B800DF91CF910895FC0168
:10070000848DDF01A80FB11DA35ABF4F2C91848D9A
:1007100090E001968F739927848FA689B7892C93CF
:10072000A089B1898C91837080648C93938D848D22
:10073000981306C00288F389E02D80818F7D808325
:100740000895FC01818D228D90E0805C9F4F821B7B
:1007500091098F73992708958EEE93E00E94A1036B
:100760009C0181E0232B09F480E0089580E090E073
:10077000892B29F00E94AC0381110E94000080E0C7
:1007800090E0892B49F080E090E0892B29F00E94CD
:10079000000081110E94000080E090E0892B49F068
:1007A00080E090E0892B29F00E94000081110E94D6
:1007B000000080E090E0892B49F080E090E0892BF8
:1007C00029F00E94000081110C9400000895FC01A2
:1007D000918D828D981731F0828DE80FF11D858DF6
:1007E00090E008958FEF9FEF0895FC01918D828D29
:1007F000981761F0828DDF01A80FB11D5D968C9175
:10080000928D9F5F9F73928F90E008958FEF9FEF7F
:100810000895FC01538D448D252F30E0842F90E006
:10082000821B930B541710F0CF96089501970895EB
:10083000CF93DF93EC01888D81110FC0DF91CF91B1
:1008400008950FB607FC0DC08C9185FF08C080810C
:1008500085FF03C0CE010E947F03AA89BB89E88976
:10086000F9898C9185FDEDCF808186FFEACFE6CFB7
:10087000EF92FF920F931F93CF93DF93EC01F62E2D
:1008800081E0888F9B8D8C8D98131AC0E889F98937
:10089000808185FF15C09FB7F894EE89FF8960833A
:1008A000E889F98980818370806480839FBF81E0BB
:1008B00090E0DF91CF911F910F91FF90EF900895FD
:1008C0000B8D10E00F5F1F4F0F731127E02E8C8DE3
:1008D0008E1579F08B8DFE01E80FF11DE35AFF4F65
:1008E000F0829FB7F8940B8FEA89FB898081806240
:1008F000DCCF0FB607FCEBCFE889F989808185FF53
:10090000E6CFCE010E947F03E2CFCF92DF92EF923B
:10091000FF920F931F93CF93DF937C016A0110E046
:1009200000E00C151D0551F4C801DF91CF911F9116
:100930000F91FF90EF90DF90CF900895EB01D701DA
:10094000ED91FC910190F081E02D6991C70119951D
:10095000892B51F30F5F1F4FBE01E3CF8F929F9200
:10096000AF92BF92CF92DF92EF92FF92CF93DF933D
:1009700000D000D0CDB7DEB780914B058E83813299
:1009800008F0F3C0F09096030E9453024B015C0103
:10099000809107058D83811175C082E080930705E2
:1009A00081E0809306058FEF8093BA041092DC04F7
:1009B0008E818093DB04482F50E06AE275E08BEB78
:1009C00094E00E9450151092DD048091DD04FF0C2C
:1009D000F82AF092DD0480910505813009F099C074
:1009E000109205050E9453026B017C018091DD0489
:1009F0008093BB008091E0049091E104A091E20417
:100A0000B091E304892B8A2B8B2BE1F00E945302D7
:100A100069837A838B839C834091E0045091E10445
:100A20006091E2047091E30489819A81AB81BC8179
:100A30008C199D09AE09BF09481759076A077B073A
:100A400008F449C08091BC0083FDD0CF85EC809331
:100A5000BC000E9453026B017C018091070582302B
:100A600009F459C08091BA048F3FD9F18091BA043A
:100A7000803209F47CC08091BA04803309F479C0D3
:100A800084E02EC08091E0049091E104A091E20402
:100A9000B091E304892B8A2B8B2B09F479CF0E9428
:100AA000530269837A838B839C834091E004509145
:100AB000E1046091E2047091E30489819A81AB8141
:100AC000BC8188199909AA09BB09481759076A07FF
:100AD0007B0708F05DCF8091DF040E945E0385E014
:100AE0008D8310924A0510924B0510924C058D8112
:100AF00026960FB6F894DEBF0FBECDBFDF91CF9123
:100B0000FF90EF90DF90CF90BF90AF909F908F902D
:100B1000089585EE9CCF8091E0049091E104A0912E
:100B2000E204B091E304892B8A2B8B2B09F495CF37
:100B30000E94530269837A838B839C834091E004F3
:100B40005091E1046091E2047091E30489819A81FB
:100B5000AB81BC818C199D09AE09BF0948175907A3
:100B60006A077B0708F079CFB6CF81E0B9CF82E082
:100B7000B7CF83E0B5CFBF92CF92DF92EF92FF92D3
:100B80000F931F93CF93DF9300D000D0CDB7DEB784
:100B90008C016D8381E080934C0587E780939603F9
:100BA00010924A0510924B05F801608187E993E0A5
:100BB0000E94F6010E94AE048093ED038111F9C0FA
:100BC0000E9453026B017C01F0910705FE83F11135
:100BD00053C0BD8081E080930705809306059FEF99
:100BE0009093BA041092DC049B2D91509093DB04F7
:100BF0008093DD048091DD048E6E8093DD0480910E
:100C00000505813009F0ABC0109205050E94530222
:100C10006B017C018091DD048093BB008091E00436
:100C20009091E104A091E204B091E304892B8A2B16
:100C30008B2B09F474C00E94530269837A838B83DF
:100C40009C834091E0045091E1046091E204709132
:100C5000E30489819A81AB81BC818C199D09AE091D
:100C6000BF09481759076A077B0708F058C08091E9
:100C7000DF040E945E032EC08091E0049091E104A5
:100C8000A091E204B091E304892B8A2B8B2B09F409
:100C90009BCF0E94530269837A838B839C8340910C
:100CA000E0045091E1046091E2047091E3048981D1
:100CB0009A81AB81BC818C199D09AE09BF09481787
:100CC00059076A077B0708F07FCF8091DF040E94F5
:100CD0005E031E8210922805EE81E09329050983A8
:100CE000780187E993E00E94AB01F70181937F01CE
:100CF0008E2FF9818F1B9D8189179CF381E02696A9
:100D00000FB6F894DEBF0FBECDBFDF91CF911F911C
:100D10000F91FF90EF90DF90CF90BF90089580915A
:100D2000BC0083FD77CF85EC8093BC000E9453020A
:100D30006B017C0180910705813099F08091DC0482
:100D40009D81891710F4B090DC044B2D50E06BEBC3
:100D500074E088E095E00E945015BE82BBCF85EE1E
:100D6000E3CF8091E0049091E104A091E204B0917E
:100D7000E304892B8A2B8B2BE9F20E9453026983AF
:100D80007A838B839C834091E0045091E1046091CD
:100D9000E2047091E30489819A81AB81BC818C1952
:100DA0009D09AE09BF09481759076A077B0710F666
:100DB0005ECF80E0A4CF0F931F93CF93DF930F926A
:100DC0000F92CDB7DEB78B01898362E0CE01019629
:100DD0000E94BB0530E020E0882331F029813A8170
:100DE00032272327322781E0F801318320830F90B7
:100DF0000F90DF91CF911F910F9108950F931F9343
:100E0000CF93DF930F920F92CDB7DEB78B0189831B
:100E100062E0CE0101960E94BB0530E020E088230D
:100E200031F029813A8132272327322781E0F801E6
:100E3000318320830F900F90DF91CF911F910F91FD
:100E40000895BC0181E080934C0587E78093960369
:100E500010924A0510924B0542E050E087E993E07A
:100E60000E9425020E94AE04982F8093ED0381E03A
:100E7000911180E0089585ED8093BC008091E0049D
:100E80009091E104A091E204B091E3040796A11DC2
:100E9000B11D23E0B695A795979587952A95D1F72B
:100EA0002091BC0024FD03C01092070508954091D5
:100EB000E0045091E1046091E2047091E304452B59
:100EC000462B472B69F30097A105B10541F025E3B7
:100ED0002A95F1F700000197A109B109E1CF8091AE
:100EE000DF040C945E03BC01009761F0FC010190EB
:100EF0000020E9F73197AF01481B590B8EEE93E0C4
:100F00000C94850408950E94730784E292E00C9487
:100F100073070C9473072F923F924F925F926F92D8
:100F20007F928F929F92AF92BF92CF92DF92EF9279
:100F3000FF920F931F93CF93DF93CDB7DEB7AA979E
:100F40000FB6F894DEBF0FBECDBF8B019C010AA384
:100F50001BA32CA33DA3742EAC019B010E94211561
:100F60008823E1F087E292E0AA960FB6F894DEBFFC
:100F70000FBECDBFDF91CF911F910F91FF90EF90EA
:100F8000DF90CF90BF90AF909F908F907F906F90A9
:100F90005F904F903F902F900C9473078AA19BA174
:100FA000ACA1BDA1BF778EA39FA3A8A7B9A72FEF20
:100FB0003FEF4FE75FE7BC01CD010E942115811192
:100FC0000FC02FEF3FEF4FE75FE76EA17FA188A52E
:100FD00099A50E94C41418161CF48BE292E0C4CFA9
:100FE0002FEF3FEF4FE75FE46AA17BA18CA19DA1AA
:100FF0000E941C1518161CF48FE292E0B5CF2FEF5B
:101000003FEF4FE75FEC6AA17BA18CA19DA10E94FD
:10101000C41487FDF1CF20E030E0A9016AA17BA1D3
:101020008CA19DA10E94C41487FF0EC06DE28EEEBC
:1010300093E00E9438048AA19BA1ACA1BDA1B05845
:101040008AA39BA3ACA3BDA3672C10E060E070E073
:1010500080E09FE3711272C02AA13BA14CA15DA167
:101060006AA37BA38CA39DA36AA17BA18CA19DA154
:101070000E947C137B018C016AA3FBA28CA31DA39D
:101080006AA17BA18CA19DA10E94C9145B016C0186
:101090000E945A149B01AC016AA17BA18CA19DA165
:1010A0000E947B13162F072FF82EE92E19A24E014E
:1010B00091E2890E911C8EA29AA69AE0292E312CDB
:1010C000412C512CB501C601A20191010E942615A7
:1010D000C501D60159016A01605DF40162934F01B7
:1010E0000A97A105B10570F7CF010E947307772019
:1010F00061F06EE28EEE93E00E9438048AE0882E62
:10110000912CA12CB12C611029C0AA960FB6F8948D
:10111000DEBF0FBECDBFDF91CF911F910F91FF902A
:10112000EF90DF90CF90BF90AF909F908F907F9087
:101130006F905F904F903F902F90089520E030E0A7
:1011400040E251E46EA37FA388A799A76EA17FA177
:1011500088A599A50E94E8131F5F7CCF20E030E0AE
:1011600040E251E41AA30BA3FCA2EDA26AA17BA169
:101170008CA19DA10E940E13362E472E582E792E3B
:101180006AA37BA38CA39DA36AA17BA18CA19DA133
:101190000E94C9146B01CB01B0E0A0E08AA39BA31D
:1011A000ACA3BDA319A20EA11AA56AA17BA18CA113
:1011B0009DA1A50194010E9426158AA19BA1ACA125
:1011C000BDA12AA33BA34CA35DA3605DF80162937C
:1011D0008F010A97A105B10540F7CF010E9473075F
:1011E000C601B0E0A0E08AA39BA3ACA3BDA3B60157
:1011F000CD010E945A149B01AC013AA24BA25CA201
:101200007DA26AA17BA18CA19DA10E947B13162FB8
:10121000072FF82EE92E6A9476CF1F920F920FB601
:101220000F9211240BB60F922F933F934F935F931E
:101230006F937F938F939F93AF93BF93EF93FF939E
:101240009091B900892F887F803509F4C3C008F0D8
:1012500044C0803309F4B9C0A8F5883111F1E0F435
:10126000883009F4AAC0803109F4A7C0882309F4A2
:10127000F3C0FF91EF91BF91AF919F918F917F91BB
:101280006F915F914F913F912F910F900BBE0F90F7
:101290000FBE0F901F901895803209F496C08832C7
:1012A00041F79091DC048091DB04981780F5E09180
:1012B000DC0481E08E0F8093DC04F0E0E554FB4F0A
:1012C00080817DC0803409F491C0883409F47FC0E6
:1012D000883379F68093BA046EC0803A09F4A0C0CE
:1012E000C0F5803809F48AC058F5803619F1E0F469
:1012F000883509F0BECFE091DC0481E08E0F809349
:10130000DC048091BB00F0E0E554FB4F80838091CA
:10131000060581115CC081E08093050584EA809315
:10132000BC0010920705A5CF803721F0987E983633
:1013300009F09FCF83E0809307051092B90441C064
:10134000803909F45BC0987E983809F092CF85E81F
:1013500039C0883BD9F058F5883A19F0803B09F03C
:1013600088CF84E0809307051092960410920405BC
:10137000E0919404F09195041995809104058111F0
:1013800005C081E0809304051092E404E091960486
:1013900081E08E0F80939604F0E0EC51FB4F80814A
:1013A0008093BB00909196048091040523C0907FA8
:1013B000903C09F05ECF85ECB2CF8091DD04809344
:1013C000BB0085EC8093BC0054CF8093BA040E948C
:1013D0003B074FCFE091DC0481E08E0F8093DC046B
:1013E0008091BB00F0E0E554FB4F80839091DC04DA
:1013F0008091DB04981708F0AACFE3CF8091B9045D
:10140000803208F0A4CFE091B90481E08E0F809380
:10141000B9048091BB00F0E0E756FB4F8083D1CF49
:1014200085EC8093BC00109207058091B90480324E
:1014300030F4E091B904F0E0E756FB4F1082609180
:10144000B90470E0E0919704F091980489E994E080
:1014500019951092B9040DCF1092BA04B8CF1F920B
:101460001FB61F9211242F933F938F939F93AF9397
:10147000BF938091900490919104A0919204B091B7
:10148000930430918F0423E0230F2D3750F50196FC
:10149000A11DB11D20938F0480939004909391041B
:1014A000A0939204B093930480918B0490918C0448
:1014B000A0918D04B0918E040196A11DB11D809361
:1014C0008B0490938C04A0938D04B0938E04BF91F1
:1014D000AF919F918F913F912F911F901FBE1F90B1
:1014E000189526E8230F0296A11DB11DD3CF2F9387
:1014F0002FB72F932BB72F938F939F93EF93FF9338
:10150000E091FE03F091FF038081E0910404F091EB
:10151000050482FD1BC09081809107048F5F8F734B
:1015200020910804821741F0E0910704F0E0E251B5
:10153000FC4F958F80930704FF91EF919F918F91BE
:101540002F912BBF2F912FBF2F9118958081F4CF12
:101550001F920F920FB60F9211240BB60F922F937A
:101560003F934F935F936F937F938F939F93AF932B
:10157000BF93EF93FF938EEE93E00E947F03FF9162
:10158000EF91BF91AF919F918F917F916F915F91FB
:101590004F913F912F910F900BBE0F900FBE0F9068
:1015A0001F90189500D000D000D0CDB7DEB778944A
:1015B00084B5826084BD84B5816084BD85B5826058
:1015C00085BD85B5816085BD80916E008160809309
:1015D0006E00109281008091810082608093810072
:1015E0008091810081608093810080918000816082
:1015F000809380008091B10084608093B1008091DD
:10160000B00081608093B0008091910082608093EF
:101610009100809191008160809391008091900071
:101620008160809390008091A10082608093A100EE
:101630008091A10081608093A1008091A0008160D1
:101640008093A0008091210182608093210180918C
:10165000210181608093210180912001816080932C
:10166000200180917A00846080937A0080917A00D2
:10167000826080937A0080917A00816080937A0002
:1016800080917A00806880937A001092C100E09186
:10169000FE03F091FF0382E08083E091FA03F09172
:1016A000FB031082E091FC03F091FD038FEC80833B
:1016B00010920604E0910204F091030486E0808316
:1016C000E0910004F0910104808180618083E091C9
:1016D0000004F0910104808188608083E09100041F
:1016E000F0910104808180688083E0910004F09192
:1016F000010480818F7D808383E392E00E948307D1
:10170000109228051092290510924A0510924B0557
:101710000E9440038FEC91E0909395048093940491
:101720008EEC91E0909398048093970463EA73E0C1
:101730008AEA0E94FE06882309F43BC265EA73E048
:101740008CEA0E94FE06882309F433C267EA73E03C
:101750008EEA0E94FE06882309F42BC263EB73E035
:1017600080EB0E94DB06882309F423C265EB73E05B
:1017700082EB0E94DB06882309F41BC267EB73E04F
:1017800084EB0E94DB06882309F413C269EA73E044
:1017900086EB0E94FE06882309F40BC26BEA73E015
:1017A00088EB0E94FE06882309F403C26DEA73E009
:1017B0008AEB0E94FE06882309F4FBC16FEA73E0FE
:1017C0008CEB0E94FE06882309F4F3C161EB73E001
:1017D0008EEB0E94FE06882309F4EBC18091A703DB
:1017E0009091A8039C01990F440B550B2C833D83CA
:1017F0004E835F83CA01B9010E945C1420E030E08F
:1018000040EA5BE36C837D838E839F836C817D8163
:101810008E819F810E940E133B014C018091B30386
:101820009091B4039C0150E040E02C833D834E83B3
:101830005F83CA01B9010E945A142FE632E143E0E6
:1018400053E36C837D838E839F836C817D818E8146
:101850009F810E940E137B018C018091A9039091BE
:10186000AA039C01990F440B550B2C833D834E8397
:101870005F83CA01B9010E945C1420E030E048ECAB
:1018800057E36C837D838E839F836C817D818E8102
:101890009F810E940E135B016C018091B5039091B2
:1018A000B6039C0150E040E02C833D834E835F8370
:1018B000CA01B9010E945A142DEC3CEC4CE454E3EB
:1018C0006C837D838E839F836C817D818E819F81DC
:1018D0000E940E136093B9037093BA038093BB0305
:1018E0009093BC038091B7039091B8039C0150E0A2
:1018F00040E02C833D834E835F83CA01B9010E947F
:101900005A146093BD037093BE038093BF039093FA
:10191000C0038091AF039091B0039C01990F440BD9
:10192000550B2C833D834E835F83CA01B9010E940E
:101930005C142AE037ED43EA5DE36C837D838E839C
:101940009F836C817D818E819F810E940E136093A5
:10195000C1037093C2038093C3039093C403809127
:10196000B1039091B2039C01990F440B550B2C834A
:101970003D834E835F83CA01B9010E945C1420E05D
:1019800030E040E253E46C837D838E839F836C81DF
:101990007D818E819F810E94E8136093C5037093BF
:1019A000C6038093C7039093C8038091A3039091CB
:1019B000A4039C01990F440B550B2C833D834E834C
:1019C0005F83CA01B9010E945C146093C9037093DC
:1019D000CA038093CB039093CC038091A50390918D
:1019E000A6039C01990F440B550B2C833D834E831A
:1019F0005F83CA01B9010E945C1420E030E040EA34
:101A00005CE36C837D838E839F836C817D818E817B
:101A10009F810E940E136093CD037093CE03809339
:101A2000CF039093D0038091AB039091AC039C01C2
:101A3000990F440B550B2C833D834E835F83CA0162
:101A4000B9010E945C1420E030E048E45AE36C8362
:101A50007D838E839F836C817D818E819F810E9497
:101A60000E136093D1037093D2038093D3039093AA
:101A7000D40320E030E040E057E4EC82FD820E83A6
:101A80001F836C817D818E819F810E940E136093E4
:101A9000D5037093D6038093D7039093D80397010F
:101AA000A8016C827D828E829F826C817D818E8175
:101AB0009F810E940E136093D9037093DA03809381
:101AC000DB039093DC039501A601EC82FD820E837B
:101AD0001F836C817D818E819F810E940E13609394
:101AE000DD037093DE038093DF039093E0038CEEBD
:101AF00091E5A7E1B0E48093E1039093E203A09322
:101B0000E303B093E40380E394E3AEE7BFE38093A1
:101B1000E5039093E603A093E703B093E80380E026
:101B200097E5A4E9B6E38093E9039093EA03A093D1
:101B3000EB03B093EC038AE392E00E94830784EF07
:101B4000982E96EF292E84E292E00E94730781E698
:101B500092E00E94890750E040E060E070EE8EEC79
:101B600094E40E948B0785E792E00E94890750E089
:101B700040E062E57EEA89EA95E40E948B078FE700
:101B800092E00E94830799823EE23A83CE01019659
:101B90000E942107811112C085E892E00E9483070C
:101BA00068E873E180E090E00E9486020E94B6033C
:101BB000CACF8EE492E00E948307FFCF65E070E019
:101BC00080E090E00E948602298262E0CE010196C8
:101BD0000E94BB05882309F43CC38981282F30E08B
:101BE00050E040E02C833D834E835F83CA01B901FE
:101BF0000E945C1420E030E040E853E46C837D8375
:101C00008E839F836C817D818E819F810E940E13C4
:101C10007B018C018A81282F30E050E040E02C834A
:101C20003D834E835F83CA01B9010E945C149B010E
:101C3000AC01EC82FD820E831F836C817D818E81DD
:101C40009F810E947C132091BD033091BE0340917F
:101C5000BF035091C0036C837D838E839F836C810F
:101C60007D818E819F810E947B132091B9033091E9
:101C7000BA034091BB035091BC036C837D838E8378
:101C80009F836C817D818E819F810E940E137B01D9
:101C90008C012091C5033091C6034091C703509138
:101CA000C8036C83FD828E831F836C817D818E814E
:101CB0009F810E947C139B01AC016091C1037091D4
:101CC000C2038091C3039091C4030E94E81397015B
:101CD000A8016C837D838E839F836C817D818E813F
:101CE0009F810E947C137B018C018DEA92E00E940F
:101CF000890742E050E0EC82FD820E831F836C81F5
:101D00007D818E819F810E948B078BEB92E00E94E8
:101D1000890726E636E646EE5FE3EC82FD820E8317
:101D20001F836C817D818E819F810E940E1320E034
:101D300030E040E052E46C837D838E839F836C812E
:101D40007D818E819F810E947C1342E050E06C83F4
:101D50007D838E839F836C817D818E819F810E9494
:101D60008B0784EC92E00E94830799829A82CE01CD
:101D700001960E942107882389F06AE170E080E0E3
:101D800090E00E948602298263E0CE0101960E94C3
:101D9000BB05811106C084E493E000CF8BEC92E098
:101DA000FDCE20E030E048EC51E4EC82FD820E8371
:101DB0001F836C817D818E819F810E947B137B01BB
:101DC0008C019B01AC016C83FD828E831F836C812F
:101DD0007D818E819F810E940E135B016C01898140
:101DE000282F30E050E040E02C833D834E835F831A
:101DF000CA01B9010E945C1420E030E040E853E4DD
:101E00006C837D838E839F836C817D818E819F8196
:101E10000E940E13562E672E782E892E8A81282F27
:101E200030E050E040E02C833D834E835F83CA0165
:101E3000B9010E945C149B01AC015C826D827E82C0
:101E40008F826C817D818E819F810E947C13562EB2
:101E5000672E782E892E8B81282F30E050E040E0CD
:101E60002C833D834E835F83CA01B9010E945C14B9
:101E700020E030E040E85BE36C837D838E839F83CA
:101E80006C817D818E819F810E940E139B01AC012C
:101E90005C826D827E828F826C817D818E819F814A
:101EA0000E947C13762E872E888799872091D103F4
:101EB0003091D2034091D3035091D403AC82BD82C0
:101EC000CE82DF826C817D818E819F810E940E1384
:101ED000362E472E582E692E2091CD033091CE03F9
:101EE0004091CF035091D003EC82FD820E831F837B
:101EF0006C817D818E819F810E940E139B01AC01BC
:101F00003C824D825E826F826C817D818E819F8159
:101F10000E947C132091C9033091CA034091CB03E6
:101F20005091CC036C837D838E839F836C817D81F4
:101F30008E819F810E947C139B01AC017C828D82EB
:101F400088858E8399859F836C817D818E819F8119
:101F50000E947B13562E672E782E892E2091DD034A
:101F60003091DE034091DF035091E003AC82BD82EB
:101F7000CE82DF826C817D818E819F810E940E13D3
:101F80005B016C012091D9033091DA034091DB03AE
:101F90005091DC03EC82FD820E831F836C817D8176
:101FA0008E819F810E940E139B01AC01AC82BD8289
:101FB000CE82DF826C817D818E819F810E947C1325
:101FC0002091D5033091D6034091D7035091D80387
:101FD0006C837D838E839F836C817D818E819F81C5
:101FE0000E947C139B01AC015C826D827E828F8299
:101FF0006C817D818E819F810E94E8137B018C0121
:102000009B01AC016C83FD828E831F836C817D817B
:102010008E819F810E940E132091E9033091EA0383
:102020004091EB035091EC036C837D838E839F83FF
:102030006C817D818E819F810E940E135B016C01FA
:102040002091E5033091E6034091E7035091E803C6
:10205000EC82FD820E831F836C817D818E819F8146
:102060000E940E139B01AC01AC82BD82CE82DF8246
:102070006C817D818E819F810E947C132091E10380
:102080003091E2034091E3035091E4036C837D833C
:102090008E839F836C817D818E819F810E947C13C2
:1020A0007B018C0180EF92E00E94890742E050E0C2
:1020B000EC82FD820E831F836C817D818E819F81E6
:1020C0000E948B0784E093E00E94890729EF3FEE8E
:1020D00041EF5CE3EC82FD820E831F836C817D8186
:1020E0008E819F810E940E1342E050E06C837D83BD
:1020F0008E839F836C817D818E819F810E948B075F
:102100008AE093E00E94830727E53BE941E55FE32E
:10211000EC82FD820E831F836C817D818E819F8185
:102120000E94E8135B016C0180E193E00E94890743
:1021300042E050E0AC82BD82CE82DF826C817D8144
:102140008E819F810E948B0784E093E00E94890723
:1021500029EF3FEE41EF5CE3AC82BD82CE82DF82AD
:102160006C817D818E819F810E940E1342E050E040
:102170006C837D838E839F836C817D818E819F8123
:102180000E948B078AE093E00E9483079501A601D5
:10219000EC82FD820E831F836C817D818E819F8105
:1021A0000E94E8132EEA3CED42E45EE36C837D83FB
:1021B0008E839F836C817D818E819F810E946511BA
:1021C0009B01AC0160E070E080E89FE30E947B131C
:1021D00020E03AE24DE257E46C837D838E839F8357
:1021E0006C817D818E819F810E940E137B018C0109
:1021F00080E393E00E94890750E040E0EC82FD829A
:102200000E831F836C817D818E819F810E948B074D
:1022100085E792E00E94890728E439EF41E550E420
:10222000EC82FD820E831F836C817D818E819F8174
:102230000E940E1350E040E06C837D838E839F8369
:102240006C817D818E819F810E948B078FE792E058
:10225000A5CC8BE693E0A2CCEEEEF3E013821282E3
:1022600088EE93E0A0E0B0E084839583A683B783F3
:1022700024E032E03183208325EC30E03587248769
:1022800024EC30E03787268720EC30E0318B208B40
:1022900021EC30E0338B228B22EC30E0358B248B29
:1022A00026EC30E0378B268B118E128E138E148E17
:1022B000E7E9F3E01382128284839583A683B783D0
:1022C00086E192E0918380830895FA01EE0FFF1F6B
:1022D000309621053105A1F16115710561F4803851
:1022E000BFE39B0749F168949038810561F080381D
:1022F000BFEF9B0741F099234AF5FF3FE105310508
:10230000210519F1E8940894E795D901AA2329F445
:10231000AB2FBE2FF85FD0F310C0FF5F70F4A6950F
:10232000E0F7F73950F019F0FF3A38F49F779F93B0
:102330000DD00F9007FC9058089546F00C94F511BD
:1023400060E070E080E89FE308954FE79F775F9338
:102350004F933F932F930E9492122F913F914F9151
:102360005F910E940E130C94BD1129F416F00C9489
:10237000EF110C9441120C94F5110E942712A8F34E
:102380009638A0F707F80F92E8942BE33AEA48EB67
:102390005FE70E9424130F920F920F924DB75EB722
:1023A0000F920E94DA12E4EEF0E00E94F8114F91D1
:1023B0005F91EF91FF91E595EE1FFF1F49F0FE57EA
:1023C000E0684427EE0F441FFA95E1F74195550B5D
:1023D0000E9454120F9007FE0C944812089597F92A
:1023E0009F6780E870E060E008959FEF80EC0895BB
:1023F000DF93CF931F930F93FF92EF92DF927B01B6
:102400008C01689406C0DA2EEF010E942113FE01B0
:10241000E894A5912591359145915591A6F3EF0149
:102420000E949313FE019701A801DA9469F7DF90E7
:10243000EF90FF900F911F91CF91DF91089557FD7D
:102440009058440F551F59F05F3F71F04795880F22
:1024500097FB991F61F09F3F79F0879508951216B9
:1024600013061406551FF2CF4695F1DF08C0161665
:1024700017061806991FF1CF869571056105089416
:102480000895E894BB2766277727CB0197F908952D
:102490009B01AC0160E070E080E89FE30C94E813DE
:1024A0000C94EF110C9497140E942712D8F39923DF
:1024B000C9F3940F511DA3F39150504094F059F07B
:1024C000882332F0660F771F881F91505040C1F764
:1024D0009E3F51052CF7880F911D9695879597F98A
:1024E00008955F3FACF0983E9CF0BB2786957795AA
:1024F0006795B79508F4B1609395C1F7BB0F58F78E
:1025000011F460FFE8CF6F5F7F4F8F4F9F4FE3CF96
:102510000C94421216F00C9497140C94F5116894D4
:102520000C94EF110E942712A8F39923C1F3AEF384
:10253000DF93CF931F930F93FF92C92FDD2788233B
:102540002AF02197660F771F881FDAF720E030E026
:1025500040E85FEB9FE3883920F0803E38F0219619
:102560008F770E947C13ECE0F1E004C00E947C13A2
:10257000E9E3F1E00E94F8118B01BE01EC01FB2EB2
:102580006F5771097595771F880B990B0E945C1422
:1025900028E132E741E35FE30E942113AF2D980168
:1025A000AE01FF900F911F91CF91DF910E94931385
:1025B0000C94B314FA01DC01AA0FBB1F9B01AC0100
:1025C000BF5728F4222733274427507820C0B7511B
:1025D00090F4AB2F0024469537952795011CA395C1
:1025E000D2F3002071F0220F331F441FB395DAF3AA
:1025F0000ED00C947B1361307105A0E88A07B946B0
:1026000030F49B01AC0166277727882790783096B5
:1026100021F0208331834283538308950E94211344
:102620000C94B3140E94A51438F00E94AC1420F04E
:10263000952311F00C94EF110C94F51111240C94C6
:1026400042120E941F1270F3959FC1F3950F50E044
:10265000551F629FF001729FBB27F00DB11D639F54
:10266000AA27F00DB11DAA1F649F6627B00DA11DFA
:10267000661F829F2227B00DA11D621F739FB00DA0
:10268000A11D621F839FA00D611D221F749F332710
:10269000A00D611D231F849F600D211D822F762FA9
:1026A0006A2F11249F5750409AF0F1F088234AF086
:1026B000EE0FFF1FBB1F661F771F881F91505040F2
:1026C000A9F79E3F510580F00C94EF110C94421233
:1026D0005F3FE4F3983ED4F3869577956795B79579
:1026E000F795E7959F5FC1F7FE2B880F911D969593
:1026F000879597F908955058BB27AA270E949313EE
:102700000C94B3140E94A51438F00E94AC1420F06D
:1027100039F49F3F19F426F40C94F5110EF4E0956A
:10272000E7FB0C94EF11E92F0E941F1258F3BA1720
:10273000620773078407950720F079F4A6F50C94D7
:1027400041120EF4E0950B2EBA2FA02D0B01B9010A
:1027500090010C01CA01A0011124FF27591B99F017
:10276000593F50F4503E68F11A16F040A22F232F23
:10277000342F4427585FF3CF469537952795A79573
:10278000F0405395C9F77EF41F16BA0B620B730B1A
:10279000840BBAF09150A1F0FF0FBB1F661F771F8B
:1027A000881FC2F70EC0BA0F621F731F841F48F440
:1027B000879577956795B795F7959E3F08F0B0CFC9
:1027C0009395880F08F09927EE0F979587950895B0
:1027D0000E94FC130C94B3140E94AC1458F00E9495
:1027E000A51440F029F45F3F29F00C94EF1151112A
:1027F0000C9442120C94F5110E941F1268F3992355
:10280000B1F3552391F3951B550BBB27AA276217EC
:102810007307840738F09F5F5F4F220F331F441FF9
:10282000AA1FA9F335D00E2E3AF0E0E832D091502D
:102830005040E695001CCAF72BD0FE2F29D0660F1A
:10284000771F881FBB1F261737074807AB07B0E85D
:1028500009F0BB0B802DBF01FF2793585F4F3AF063
:102860009E3F510578F00C94EF110C9442125F3F9B
:10287000E4F3983ED4F3869577956795B795F795E9
:102880009F5FC9F7880F911D9695879597F90895D1
:10289000E1E0660F771F881FBB1F6217730784076D
:1028A000BA0720F0621B730B840BBA0BEE1F88F77C
:1028B000E0950895E89409C097FB3EF490958095C3
:1028C000709561957F4F8F4F9F4F9923A9F0F92FF6
:1028D00096E9BB279395F695879577956795B79574
:1028E000F111F8CFFAF4BB0F11F460FF1BC06F5F5A
:1028F0007F4F8F4F9F4F16C0882311F096E911C06C
:10290000772321F09EE8872F762F05C0662371F08C
:1029100096E8862F70E060E02AF09A95660F771FA0
:10292000881FDAF7880F9695879597F908959F3F46
:1029300031F0915020F4879577956795B795880F7A
:10294000911D9695879597F9089500240A94161677
:10295000170618060906089500240A94121613068D
:10296000140605060895092E0394000C11F488231B
:1029700052F0BB0F40F4BF2B11F460FF04C06F5F37
:102980007F4F8F4F9F4F08950E94F81408F481E005
:1029900008950E94271288F09F5798F0B92F992721
:1029A000B751B0F0E1F0660F771F881F991F1AF03A
:1029B000BA95C9F714C0B13091F00E944112B1E04C
:1029C00008950C944112672F782F8827B85F39F04B
:1029D000B93FCCF3869577956795B395D9F73EF4D3
:1029E00090958095709561957F4F8F4F9F4F08957B
:1029F000990F0008550FAA0BE0E8FEEF1616170610
:102A0000E807F907C0F012161306E407F50798F077
:102A1000621B730B840B950B39F40A2661F0232B90
:102A2000242B252B21F408950A2609F4A140A6950C
:102A30008FEF811D811D08950E94F81408F48FEF17
:102A400008950E94F814880B990B0895A1E21A2E9C
:102A5000AA1BBB1BFD010DC0AA1FBB1FEE1FFF1F42
:102A6000A217B307E407F50720F0A21BB30BE40B92
:102A7000F50B661F771F881F991F1A9469F76095D9
:102A80007095809590959B01AC01BD01CF01089593
:102A9000EE0FFF1F881F8BBF0790F691E02D199452
:102AA000FB01DC0102C001900D9241505040D8F76B
:102AB0000895F894FFCF02030603E302FA02FE0230
:102AC000E80209030F03130319031D03210327035E
:102AD0002B03E8022F0335033903000000003804FC
:102AE000850409041804A103F503E70300000000AE
:102AF000F6012502A101CD01A401AB01BE010D0A21
:102B0000006E616E00696E66006F76660052454227
:102B10004F4F5400424D5031383020696E69742057
:102B20007375636365737300424D503138302069AB
:102B30006E6974206661696C0A0A0070726F76694A
:102B400064656420616C7469747564653A20002062
:102B50006D65746572732C20002066656574006570
:102B600072726F72207374617274696E672074651B
:102B70006D7065726174757265206D6561737572D3
:102B8000656D656E740A0074656D7065726174754B
:102B900072653A20002064656720432C2000206481
:102BA00065672046006572726F722073746172747B
:102BB000696E67207072657373757265206D6561EB
:102BC000737572656D656E740A006162736F6C7502
:102BD00074652070726573737572653A2000206D9C
:102BE000622C200020696E48670072656C61746910
:102BF000766520287365612D6C6576656C2920707B
:102C0000726573737572653A2000636F6D707574C9
:102C1000656420616C7469747564653A200065723E
:102C2000726F722072657472696576696E67207062
:102C300072657373757265206D6561737572656D0C
:102C4000656E740A006572726F72207265747269C3
:102C50006576696E672074656D70657261747572F2
:102C600065206D6561737572656D656E740A00002F
:020000040003F7
:10E000000D9489F10D94B2F10D94B2F10D94B2F129
:10E010000D94B2F10D94B2F10D94B2F10D94B2F1F0
:10E020000D94B2F10D94B2F10D94B2F10D94B2F1E0
:10E030000D94B2F10D94B2F10D94B2F10D94B2F1D0
:10E040000D94B2F10D94B2F10D94B2F10D94B2F1C0
:10E050000D94B2F10D94B2F10D94B2F10D94B2F1B0
:10E060000D94B2F10D94B2F10D94B2F10D94B2F1A0
:10E070000D94B2F10D94B2F10D94B2F10D94B2F190
:10E080000D94B2F10D94B2F10D94B2F10D94B2F180
:10E090000D94B2F10D94B2F10D94B2F10D94B2F170
:10E0A0000D94B2F10D94B2F10D94B2F10D94B2F160
:10E0B0000D94B2F10D94B2F10D94B2F10D94B2F150
:10E0C0000D94B2F10D94B2F10D94B2F10D94B2F140
:10E0D0000D94B2F10D94B2F10D94B2F10D94B2F130
:10E0E0000D94B2F141546D656761323536300041AF
:10E0F000726475696E6F206578706C6F72657220DE
:10E1000073746B3530305632206279204D4C530099
:10E11000426F6F746C6F616465723E004875683F52
:10E1200000436F6D70696C6564206F6E203D200048
:10E130004350552054797065202020203D20005FF9
:10E140005F4156525F415243485F5F3D2000415658
:10E1500052204C696243205665723D20004743437C
:10E160002056657273696F6E203D20004350552024
:10E1700049442020202020203D20004C6F7720663D
:10E18000757365202020203D20004869676820665F
:10E190007573652020203D200045787420667573D6
:10E1A00065202020203D20004C6F636B2066757336
:10E1B000652020203D20004D617220203720323024
:10E1C000313300312E362E3800342E332E350056A2
:10E1D00023202020414444522020206F7020636F70
:10E1E00064652020202020696E73747275637469E1
:10E1F0006F6E2061646472202020496E74657272B3
:10E20000757074006E6F20766563746F7200726A49
:10E210006D702020006A6D70200057686174207056
:10E220006F72743A00506F7274206E6F7420737541
:10E2300070706F72746564004D7573742062652030
:10E2400061206C6574746572002000577269747483
:10E25000696E672045450052656164696E672045B7
:10E26000450045452065727220636E743D00504F35
:10E27000525400303D5A65726F2061646472003FF1
:10E280003D43505520737461747300403D454550C3
:10E29000524F4D207465737400423D426C696E6B41
:10E2A000204C454400453D44756D70204545505215
:10E2B0004F4D00463D44756D7020464C415348001B
:10E2C000483D48656C70004C3D4C69737420492F83
:10E2D0004F20506F72747300513D51756974005234
:10E2E0003D44756D702052414D00563D73686F7707
:10E2F00020696E7465727275707420566563746FF0
:10E30000727300593D506F727420626C696E6B00BD
:10E310002A0011241FBECFEFD1E2DEBFCDBF01E046
:10E320000CBF12E0A0E0B2E0EEE1FDEF03E00BBFB6
:10E3300002C007900D92A030B107D9F712E0A0E01B
:10E34000B2E001C01D92AE30B107E1F70F9460F367
:10E350000D948DFE01E20EBF0FEF0DBF11241FBE05
:10E360000D9460F30D9400F020E030E040ED57E0B4
:10E3700005C0FA013197F1F72F5F3F4F2817390792
:10E38000C0F308959C01260F311DC901A0E0B0E043
:10E390002F5F3F4FABBFFC018791882361F08093D3
:10E3A000C6008091C00086FFFCCF8091C0008064D1
:10E3B0008093C000EACF08958DE08093C6008091DD
:10E3C000C00086FFFCCF8091C00080648093C000B5
:10E3D0008AE08093C6008091C00086FFFCCF8091C8
:10E3E000C00080648093C00008950F94C2F10F9420
:10E3F000DCF10895FC019081992359F09093C600B7
:10E400008091C00086FFFCCF8091C0008064809323
:10E41000C0003196992379F70895282F982F929567
:10E420009F70892F805D8A3308F0895F8093C600D2
:10E430008091C00086FFFCCF8091C00080648093F3
:10E44000C000822F8F70982F905D9A3308F0995FEB
:10E450009093C6008091C00086FFFCCF8091C000E1
:10E4600080648093C00008959C01FB01853691056E
:10E470001CF46330710594F0C90164E670E00F94F8
:10E480002EFE605D7F4F6093C6008091C00086FFC6
:10E49000FCCF8091C00080648093C0002B30310598
:10E4A00014F43297B4F0C90164E670E00F942EFEC4
:10E4B0006AE070E00F942EFE605D7F4F6093C600AF
:10E4C0008091C00086FFFCCF8091C0008064809363
:10E4D000C000C9016AE070E00F942EFEC0968093E0
:10E4E000C6008091C00086FFFCCF8091C000806490
:10E4F0008093C00008951F93182F8EE692EE60E07F
:10E500000F94C2F11093C6008091C00086FFFCCF2B
:10E510008091C00080648093C0000F94DCF11F9153
:10E5200008952F923F924F925F926F927F928F92B7
:10E530009F92AF92BF92CF92DF92EF92FF920F9392
:10E540001F93DF93CF93CDB7DEB762970FB6F894E2
:10E55000DEBF0FBECDBF382E622ECA01DB015C01CB
:10E560006D01772420E2222E2E010894411C511CBB
:10E570008BC081E0A81680E0B80681E0C80680E084
:10E58000D80628F0C601AA27BB270F940DF2BB2797
:10E59000AD2D9C2D8B2D0F940DF28A2D0F940DF225
:10E5A0002092C6008091C00086FFFCCF8091C00001
:10E5B00080648093C0009DE29093C6008091C0006B
:10E5C00086FFFCCF8091C00080648093C0002092C1
:10E5D000C6008091C00086FFFCCF8091C00080649F
:10E5E0008093C00019828601750188249924A1E0D6
:10E5F0003A1651F03A1620F0B2E03B1661F409C029
:10E600000BBFF701779007C0C7010F9477FE782EF4
:10E6100002C0F7017080872D0F940DF22092C60082
:10E620008091C00086FFFCCF8091C0008064809301
:10E63000C000872D8052F401EF70F0708F3520F408
:10E64000E40DF51D708204C0E40DF51D8EE280839B
:10E650000894E11CF11C011D111D0894811C911CE2
:10E6600090E18916910409F0C2CF80E190E0A0E02A
:10E67000B0E0A80EB91ECA1EDB1E198AC2010F9493
:10E68000FAF10F94DCF16A94662009F072CF629679
:10E690000FB6F894DEBF0FBECDBFCF91DF911F91B3
:10E6A0000F91FF90EF90DF90CF90BF90AF909F9031
:10E6B0008F907F906F905F904F903F902F90089534
:10E6C0002F923F924F925F926F927F928F929F9282
:10E6D000AF92BF92CF92DF92EF92FF920F931F9370
:10E6E000DF93CF93CDB7DEB7CD53D1400FB6F894BB
:10E6F000DEBF0FBECDBF01E20EBF0FEF0DBF94B75F
:10E70000F894A89514BE80916000886180936000A1
:10E7100010926000789493FF05C0E0910002F091A0
:10E7200001021995279A2F9A8091C00082608093E8
:10E73000C00080E18093C40088E18093C1000000A4
:10E74000EE24FF24870144E0A42EB12CCC24DD2448
:10E7500024C0C5010197F1F70894E11CF11C011DCB
:10E76000111D21E2E2162EE4F20620E0020720E06D
:10E77000120718F031E0C32ED12CC801B70127ECE5
:10E780003BE140E050E00F9441FE611571058105C9
:10E79000910519F485B1805885B98091C00087FD35
:10E7A00003C0C114D104A9F2A6014F5F5F4FC25E3E
:10E7B000DE4F59834883CE51D140C25EDE4F8881FF
:10E7C0009981CE51D140019711F00D9410FEC05D9A
:10E7D000DE4F19821882C053D14060E0C15DDE4F28
:10E7E0001882CF52D14088249924C35DDE4F19820C
:10E7F0001882CD52D140C05EDE4F188219821A8233
:10E800001B82C052D140CE5CDE4F188219821A8220
:10E810001B82C253D140EE24FF2487010BBFF701B6
:10E8200007911691C45CDE4F19830883CC53D14005
:10E830000D940BFEC25EDE4F28813981CE51D1404E
:10E840002130310509F52091C600C25EDE4F1982E4
:10E850001882CE51D14022C02F5F3F4F4F4F5F4FA4
:10E86000213082E138078AE7480780E0580780F0C6
:10E87000C45CDE4FE881F981CC53D140EF5FFF4F9C
:10E8800019F0EE27FF27099420E030E040E050E047
:10E890008091C00087FFE0CF2091C600C35DDE4FAE
:10E8A00048815981CD52D1404F5F5F4FC35DDE4FEC
:10E8B00059834883CD52D140213209F063C64A3092
:10E8C000510508F05FC60894811C911C53E0851621
:10E8D000910409F059C600E010E018C081E280936D
:10E8E000C6008091C00086FFFCCF8091C00080648C
:10E8F0008093C0002F5F3F4F2931310579F70F9486
:10E90000DCF10F5F1F4F0530110519F020E030E0FA
:10E91000E5CF10920A0210920B0210920C02109294
:10E920000D02109206021092070210920802109235
:10E930000902109202021092030210920402109235
:10E9400005028FEE90EE60E00F94F5F180E191EE1C
:10E9500060E00F94C2F18091C00087FFFCCF9091DE
:10E96000C600903608F09F759032B8F09093C600BC
:10E970008091C00086FFFCCF8091C00080648093AE
:10E98000C000A0E2A093C6008091C00086FFFCCF2B
:10E990008091C00080648093C000983409F4D7C18E
:10E9A0009934B8F4923409F459C1933458F490333B
:10E9B00019F1903308F4E3C59F33A1F1903409F0C5
:10E9C000DEC5BDC0953409F470C1963409F0D7C5D1
:10E9D00098C1923509F42BC2933538F49C3409F46C
:10E9E000F5C1913509F0CBC518C2963509F445C279
:10E9F000993509F0C4C567C483E792EE62E00F94CD
:10EA0000F5F110920602109207021092080210927D
:10EA1000090210920A0210920B0210920C0210923C
:10EA20000D0213C18FE792EE62E00F94F5F18FEEC5
:10EA300090EE60E00F94F5F181E291EE60E00F94CA
:10EA4000C2F187EB91EE60E00F94F5F180E391EE77
:10EA500060E00F94C2F184EE90EE60E00F94F5F167
:10EA60008FE391EE60E00F94C2F186E090E061E008
:10EA700070E00F9434F20F94DCF18DE591EE60E0DC
:10EA80000F94C2F189EC91EE60E00F94F5F18EE401
:10EA900091EE60E00F94C2F183EC91EE60E00F9490
:10EAA000F5F18CE691EE60E00F94C2F18EE10F94E7
:10EAB0000DF288E90F940DF281E00F940DF20F949E
:10EAC000DCF18BE791EE60E00F94C2F119E0E0E039
:10EAD000F0E010935700E4918E2F0F940DF20F94F5
:10EAE000DCF18AE891EE60E00F94C2F1E3E0F0E03F
:10EAF00010935700E4918E2F0F940DF20F94DCF1D8
:10EB000089E991EE60E00F94C2F1E2E0F0E0109349
:10EB10005700E4918E2F0F940DF20F94DCF188EAE8
:10EB200091EE60E00F94C2F1E1E0F0E01093570045
:10EB30001491812F0F940DF20F94DCF107CF8BE825
:10EB400092EE62E00F94F5F18BE492EE60E00F94A8
:10EB5000F5F10F94DCF100E010E019C0C8016F2D51
:10EB60000F947FFEFF2031F489E492EE60E00F9471
:10EB7000C2F10BC0F092C6008091C00086FFFCCFAE
:10EB80008091C00080648093C0000F5F1F4FC80158
:10EB900081519F41A0E0B0E0ABBFFC01F790BAE229
:10EBA000FB1621F0E2E000301E07C1F60F94DCF105
:10EBB0000F94DCF187E592EE60E00F94F5F10F948D
:10EBC000DCF1CC24DD2400E010E01EC0C8010F946D
:10EBD00077FEF82E882331F489E492EE60E00F94FA
:10EBE000C2F10BC08093C6008091C00086FFFCCFAD
:10EBF0008091C00080648093C000FE1419F00894D6
:10EC0000C11CD11C0F5F1F4FC80181519F41A0E063
:10EC1000B0E0ABBFFC01E790FAE2EF1621F022E092
:10EC20000030120799F60F94DCF10F94DCF182E6C4
:10EC300092EE60E00F94C2F1C60161E070E00F94C3
:10EC400034F20F94DCF10F94DCF110920202109276
:10EC50000302109204021092050278CE89E992EE26
:10EC600062E00F94F5F1279A2F9A16C02F9880E052
:10EC700090E0E0EDF7E03197F1F7019684369105E9
:10EC8000C1F72F9A80E090E0E0EDF7E03197F1F7DF
:10EC9000019684369105C1F78091C00087FFE6CFC9
:10ECA0008091C00087FFFCCF64C485EA92EE62E0E9
:10ECB0000F94F5F140910202509103026091040219
:10ECC0007091050281E020E10F9491F2809102029F
:10ECD00090910302A0910402B091050280509F4FD1
:10ECE000AF4FBF4F8093020290930302A0930402A0
:10ECF000B093050280509041A040B04008F426CE69
:10ED0000A4CF83EB92EE62E00F94F5F140910602FE
:10ED100050910702609108027091090280E020E1A1
:10ED20000F9491F28091060290910702A09108023F
:10ED3000B091090280509F4FAF4FBF4F80930602A2
:10ED400090930702A0930802B0930902FFCD80ECD4
:10ED500092EE62E00F94F5F183E792EE60E00F949B
:10ED6000F5F18FE792EE60E00F94F5F18BE892EE0B
:10ED700060E00F94F5F189E992EE60E00F94F5F10F
:10ED800085EA92EE60E00F94F5F183EB92EE60E09D
:10ED90000F94F5F180EC92EE60E00F94F5F187ECC2
:10EDA00092EE60E00F94F5F188ED92EE60E00F9442
:10EDB000F5F18FED92EE60E00F94F5F18AEE92EEB0
:10EDC00060E00F94F5F183E093EEBDCD87EC92EE19
:10EDD00062E00F94F5F181E40F947BF282E40F94EA
:10EDE0007BF283E40F947BF284E40F947BF285E45E
:10EDF0000F947BF286E40F947BF287E40F947BF20E
:10EE000088E40F947BF28AE40F947BF28BE40F94F6
:10EE10007BF28CE40F947BF299CD88ED92EE62E068
:10EE20000F94F5F1772473948824992409C48FED05
:10EE300092EE62E00F94F5F140910A0250910B02BC
:10EE400060910C0270910D0282E020E10F9491F22A
:10EE500080910A0290910B02A0910C02B0910D02D8
:10EE600080509F4FAF4FBF4F80930A0290930B0289
:10EE7000A0930C02B0930D0269CD8AEE92EE62E08F
:10EE80000F94F5F184EE90EE60E00F94F5F18FECC5
:10EE900091EE60E00F94F5F1662477244301CC5D98
:10EEA000DE4F19821882C452D140D401C301B695F5
:10EEB000A79597958795CA5DDE4F88839983AA8326
:10EEC000BB83C652D140CC5DDE4FA881B981C4520C
:10EED000D1401196CC5DDE4FB983A883C452D14096
:10EEE000CD0162E070E00F9434F2B0E2B093C6005E
:10EEF0008091C00086FFFCCF8091C0008064809329
:10EF0000C000EDE2E093C6008091C00086FFFCCF18
:10EF10008091C00080648093C000F0E2F093C6004E
:10EF20008091C00086FFFCCF8091C00080648093F8
:10EF3000C000CA5DDE4FE880F9800A811B81C6529D
:10EF4000D140BB27A12F902F8F2D0F940DF2CA5DBA
:10EF5000DE4F8881C652D1400F940DF2B0E2FB2EF5
:10EF6000F092C6008091C00086FFFCCF8091C00067
:10EF700080648093C0000DE30093C6008091C000C0
:10EF800086FFFCCF8091C00080648093C00010E2B7
:10EF90001093C6008091C00086FFFCCF8091C00016
:10EFA00080648093C0008BBEF3012791C65DDE4F65
:10EFB0002883CA52D140A22EBB24CC24DD2408943D
:10EFC000611C711C811C911C8BBEF3018791282E42
:10EFD0003324442455240894611C711C811C911C09
:10EFE0008BBEF3013791C55DDE4F3883CB52D140E4
:10EFF0000894611C711C811C911C8BBEF30147910C
:10F00000C45DDE4F4883CC52D140ADEFEA2EAFEF66
:10F01000FA2EAFEF0A2FAFEF1A2F6E0C7F1C801E57
:10F02000911E142D032DF22CEE24EA0CFB1C0C1D5A
:10F030001D1D0F940DF220E22093C6008091C000A8
:10F0400086FFFCCF8091C00080648093C000C65DC5
:10F05000DE4F8881CA52D1400F940DF230E23093D6
:10F06000C6008091C00086FFFCCF8091C000806404
:10F070008093C000C45DDE4F8881CC52D1400F9494
:10F080000DF240E24093C6008091C00086FFFCCFA5
:10F090008091C00080648093C000C55DDE4F888190
:10F0A000CB52D1400F940DF250E25093C6008091A4
:10F0B000C00086FFFCCF8091C00080648093C000B8
:10F0C0008FEFE8168FEFF80680E0080780E018075A
:10F0D00031F484E092EE60E00F94C2F1DFC0D80119
:10F0E000C7018070907CA070B0708050904CA040A0
:10F0F000B040D1F52FEF3FE340E050E0E222F322B1
:10F1000004231523CA5DDE4FA880B980CA80DB8046
:10F11000C652D140AE0CBF1CC01ED11EAA0CBB1CD7
:10F12000CC1CDD1C8EE092EE60E00F94C2F1BB2798
:10F13000A12F902F8F2D0F940DF28E2D0F940DF285
:10F1400030E23093C6008091C00086FFFCCF8091F2
:10F15000C00080648093C0004EE34093C60080915D
:10F16000C00086FFFCCF87C08EE09EEFA0E0B0E03D
:10F17000E822F9220A231B239CE0E91694E9F90608
:10F1800090E0090790E0190709F088C0C45DDE4FE0
:10F19000A881CC52D140EA2EFF2400E010E0102FCD
:10F1A0000F2DFE2CEE24C55DDE4FB881CB52D14031
:10F1B000EB0EF11C011D111DD601C501817090706F
:10F1C000A070B070DC0199278827E80EF91E0A1F8D
:10F1D0001B1F20EF30E040E050E0A222B322C42207
:10F1E000D52241E1AA0CBB1CCC1CDD1C4A95D1F7F1
:10F1F000EA0CFB1C0C1D1D1D81E090E0A0E0B0E0BE
:10F20000282239224A225B2235E1220C331C441C7D
:10F21000551C3A95D1F7E20CF31C041D151D57013E
:10F220006801AA0CBB1CCC1CDD1C85E192EE60E0E1
:10F230000F94C2F1C801AA27BB270F940DF2BB2778
:10F24000A12F902F8F2D0F940DF28E2D0F940DF274
:10F2500090E29093C6008091C00086FFFCCF809121
:10F26000C00080648093C000AEE3A093C60080918C
:10F27000C00086FFFCCF8091C00080648093C000F6
:10F28000C601AA27BB270F940DF2BB27AD2D9C2DDD
:10F290008B2D0F940DF28A2D0F940DF20F94DCF14B
:10F2A000CC5DDE4FE881F981C452D140F99709F471
:10F2B0004DCBF4E0EF2EF12C012D112D6E0C7F1CA7
:10F2C000801E911EF2CD83E093EE62E00F94F5F183
:10F2D0008AE192EE60E00F94C2F18091C00087FF56
:10F2E000FCCF1091C6001F751093C6008091C0001E
:10F2F00086FFFCCF8091C00080648093C0000F9493
:10F30000DCF1812F81548A3108F036C1163409F4BA
:10F3100095C0173490F4133409F44EC0143430F40B
:10F320001134F1F0123409F01DC130C0143409F465
:10F3300059C0153409F016C16BC01A3409F4C4C0A1
:10F340001B3438F4173409F48FC0183409F00AC19B
:10F35000A1C01B3409F4D2C01C3409F003C1E8C0B9
:10F360008FEF81B90DC082B1809582B980E090E0C5
:10F37000E0EDF7E03197F1F70196883C9105C1F790
:10F380008091C00087FFEFCF12B8EFC08FEF84B934
:10F390000DC085B1809585B980E090E0E0EDF7E0A3
:10F3A0003197F1F70196883C9105C1F78091C00033
:10F3B00087FFEFCF15B8D9C08FEF87B90DC088B1DF
:10F3C000809588B980E090E0E0EDF7E03197F1F7C3
:10F3D0000196883C9105C1F78091C00087FFEFCF6F
:10F3E00018B8C3C08FEF8AB90DC08BB180958BB9A7
:10F3F00080E090E0E0EDF7E03197F1F70196883C8E
:10F400009105C1F78091C00087FFEFCF1BB8ADC059
:10F410008FEF8DB90DC08EB180958EB980E090E0F0
:10F42000E0EDF7E03197F1F70196883C9105C1F7DF
:10F430008091C00087FFEFCF1EB897C08FEF80BBD1
:10F440000DC081B3809581BB80E090E0E0EDF7E0F6
:10F450003197F1F70196883C9105C1F78091C00082
:10F4600087FFEFCF11BA81C08FEF83BB0DC084B38C
:10F47000809584BB80E090E0E0EDF7E03197F1F714
:10F480000196883C9105C1F78091C00087FFEFCFBE
:10F4900014BA6BC08FEF809301010FC080910201FD
:10F4A00080958093020180E090E0E0EDF7E03197F5
:10F4B000F1F70196883C9105C1F78091C00087FF64
:10F4C000EDCF1092020151C08FEF809304010FC065
:10F4D0008091050180958093050180E090E0E0ED4A
:10F4E000F7E03197F1F70196883C9105C1F78091DB
:10F4F000C00087FFEDCF1092050137C08FEF8093DA
:10F5000007010FC08091080180958093080180E079
:10F5100090E0E0EDF7E03197F1F70196883C910536
:10F52000C1F78091C00087FFEDCF109208011DC088
:10F530008FEF80930A010FC080910B01809580931B
:10F540000B0180E090E0E0EDF7E03197F1F70196F4
:10F55000883C9105C1F78091C00087FFEDCF1092E4
:10F560000B0103C085E292EEEEC98091C00087FFD7
:10F57000FCCF8091C600EAC988E392EEE4C98CE131
:10F5800091EEE1C988249924933011F1943028F444
:10F59000913089F09230B8F408C0953061F195301F
:10F5A000F0F0963009F048C043C02B3109F042C951
:10F5B00091E06BE13FC96227C15DDE4F2883CF52E6
:10F5C000D14092E037C9B22FA0E0622793E032C960
:10F5D000822F90E0A82BB92B622794E02BC92E3004
:10F5E00009F039C3622795E0C05DDE4F19821882A9
:10F5F000C053D1401FC9E1E0F0E0EC0FFD1FC05D3A
:10F60000DE4F08811981C053D140E00FF11F2083E4
:10F610000F5F1F4FC05DDE4F19830883C053D14079
:10F6200062270A171B0709F005C9D80196E002C92D
:10F63000261709F010C303C0973009F0FBC87724E0
:10F640009981933109F412C19431C8F4963009F4C8
:10F65000D8C0973050F4923009F406C1933009F4C1
:10F660006DC0913009F059C253C0913109F477C08F
:10F67000923108F0BBC0903109F04FC2F5C098310B
:10F6800009F487C0993150F4953109F4EFC09531F0
:10F6900008F4C6C1963109F040C2C2C19A3109F4DA
:10F6A0006CC09A3108F491C09B3109F45BC09D3164
:10F6B00009F033C29D81903359F48F81882311F46E
:10F6C0009EE11CC0813011F091E018C098E916C08D
:10F6D000892F807591F0903539F4E0E0F0E089E011
:10F6E0008093570094910AC0983539F4E3E0F0E034
:10F6F00089E080935700949101C090E01A821B82A8
:10F700008D818C831D829E831F8227E030E009C299
:10F710001A8288E08B8381E48C8386E58D8382E581
:10F720008E8389E48F8383E5888780E589878FE5E9
:10F730008A8782E38B872BE030E0F3C18A818139AD
:10F7400041F0823941F0803911F48FE005C080E04A
:10F7500003C082E001C08AE01A828B8344C0772410
:10F76000739482C08D81882311F48EE12CC0813086
:10F7700011F081E028C088E926C01A82E1E0F0E0BB
:10F7800089E08093570084918B831C8224E030E0D1
:10F79000C8C18B81803589F48C81883039F4E2E0EE
:10F7A000F0E089E08093570084910DC0E0E0F0E044
:10F7B00089E080935700849106C0E3E0F0E089E09F
:10F7C0008093570084911A82DFCF8D81836C99E0FA
:10F7D000E1E0F0E0082E90935700E89507B600FCB2
:10F7E000FDCF1A821B8223E030E09BC180EC8A832C
:10F7F000CE5CDE4F188219821A821B82C253D1401E
:10F800008EC18A8190E0A0E0B0E0582F44273327D2
:10F8100022278B8190E0A0E0B0E0DC0199278827C7
:10F82000282B392B4A2B5B2B8D8190E0A0E0B0E098
:10F83000282B392B4A2B5B2B8C8190E0A0E0B0E089
:10F84000BA2FA92F982F8827282B392B4A2B5B2BCF
:10F85000220F331F441F551FC05EDE4F288339839C
:10F860004A835B83C052D1401A8259C13A81C95C34
:10F87000DE4F3883C753D140CA5CDE4F1882C6536F
:10F88000D1408B81C82EDD24CA5CDE4F488159816E
:10F89000C653D140C42AD52A933109F082C0CE5C28
:10F8A000DE4F88819981AA81BB81C253D1408050AB
:10F8B000904CA340B04030F583E0CE5CDE4FE88052
:10F8C000F9800A811B81C253D140F70100935B008C
:10F8D00080935700E89507B600FCFDCFCE5CDE4F65
:10F8E000088119812A813B81C253D14000501F4FAA
:10F8F0002F4F3F4FCE5CDE4F088319832A833B8313
:10F90000C253D140C05EDE4F488159816A817B81FC
:10F91000C052D140DE011B9631E08C9111962C91A2
:10F9200011971296C75CDE4F2883C953D140C85C3B
:10F93000DE4F1882C853D14090E0C85CDE4FE881AA
:10F94000F981C853D1408E2B9F2B0C01FA01609393
:10F950005B0030935700E89511244E5F5F4F6F4F67
:10F960007F4F0EEFE02E0FEFF02ECE0CDF1CC114F8
:10F97000D10499F685E0C05EDE4F088119812A81A5
:10F980003B81C052D140F80120935B008093570027
:10F99000E89507B600FCFDCF81E180935700E8951C
:10F9A00035C0C05EDE4F88819981AA81BB81C0527B
:10F9B000D140B695A795979587957C018601ABE0D8
:10F9C000AA2EB12CAC0EBD1E0BC0D5016D915D01F0
:10F9D000C7010F947FFE0894E11CF11C01501040F8
:10F9E0000115110591F7A60160E070E0440F551F65
:10F9F000661F771FC05EDE4FE880F9800A811B8199
:10FA0000C052D1404E0D5F1D601F711F1A82C05E33
:10FA1000DE4F488359836A837B83C052D1407FC0C5
:10FA2000FA80C55CDE4FF882CB53D140C65CDE4F16
:10FA30001882CA53D1408B81C82EDD24C65CDE4FAC
:10FA400008811981CA53D140C02AD12A1A828981DA
:10FA5000BE016D5F7F4F843121F59601C05EDE4FA0
:10FA6000E880F9800A811B81C052D1400BBFF701A9
:10FA700087919691DB018C9311969C936E5F7F4FDB
:10FA8000D801C7010296A11DB11DC05EDE4F88835B
:10FA90009983AA83BB83C052D14022503040F1F6F3
:10FAA00036C0C05EDE4F288139814A815B81C052F9
:10FAB000D1400894C108D108760100E010E0089414
:10FAC000C11CD11C0894E11CF11C011D111DE20E8A
:10FAD000F31E041F151F21BDBB27A52F942F832FB5
:10FAE00082BD2F5F3F4F4F4F5F4FF89A80B5DB01CC
:10FAF0008D93BD012E153F054007510761F7C05E8C
:10FB0000DE4F288339834A835B83C052D1409601FC
:10FB10002D5F3F4FFB01108204C080EC8A8322E0FE
:10FB200030E08BE18093C6008091C00086FFFCCF5F
:10FB30008091C00080648093C000C15DDE4FF88179
:10FB4000CF52D140F093C6008091C00086FFFCCF19
:10FB50008091C00080648093C000432F3093C60022
:10FB60008091C00086FFFCCF8091C00080648093AC
:10FB7000C000922F2093C6008091C00086FFFCCF6A
:10FB80008091C00080648093C0008EE08093C600A6
:10FB90008091C00086FFFCCF8091C000806480937C
:10FBA000C00065E1C15DDE4FE880CF52D1406E25D7
:10FBB00069276427FE01319610C090819093C6009A
:10FBC0008091C00086FFFCCF31968091C000806498
:10FBD0008093C0006927215030402115310569F715
:10FBE0006093C6008091C00086FFFCCF8091C0006A
:10FBF00080648093C00085B1805885B9772081F4F6
:10FC0000C15DDE4F0881CF52D1400F5FC15DDE4F35
:10FC10000883CF52D14090E0A0E0B0E00D941AF4F8
:10FC200027982F9880E090E020ED37E0F901319798
:10FC3000F1F7019684369105C9F700008091C00064
:10FC40008D7F8093C00081E180935700E895EE2777
:10FC5000FF270994FFCF90E00D941AF497FB092E2B
:10FC600007260AD077FD04D02ED006D000201AF443
:10FC7000709561957F4F0895F6F7909581959F4F08
:10FC80000895A1E21A2EAA1BBB1BFD010DC0AA1FDD
:10FC9000BB1FEE1FFF1FA217B307E407F50720F0F5
:10FCA000A21BB30BE40BF50B661F771F881F991F70
:10FCB0001A9469F760957095809590959B01AC01B9
:10FCC000BD01CF010895AA1BBB1B51E107C0AA1FAC
:10FCD000BB1FA617B70710F0A61BB70B881F991FED
:10FCE0005A95A9F780959095BC01CD010895F99991
:10FCF000FECF92BD81BDF89A992780B50895262F31
:10FD0000F999FECF1FBA92BD81BD20BD0FB6F89400
:0EFD1000FA9AF99A0FBE01960895F894FFCF63
:00000001FF
