:100000000C9435010C9466010C9466010C94660105
:100010000C9466010C9466010C9466010C946601C4
:100020000C9466010C9466010C9466010C946601B4
:100030000C9466010C9466010C9466010C946601A4
:100040000C9466010C9466010C9466010C94660194
:100050000C9466010C9466010C9466010C94860362
:100060000C9466010C942B030C945C030C946601B5
:100070000C9466010C9466010C9466010C94660164
:100080000C9466010C9466010C9466010C94660154
:100090000C9466010C9466010C9466010C94660144
:1000A0000C9466010C9466010C9466010C94660134
:1000B0000C9466010C9466010C9466010C94660124
:1000C0000C9466010C9466010C9466010C94660114
:1000D0000C9466010C9466010C9466010C94660104
:1000E0000C9466010C947A010C947E010C946202CB
:1000F0000C9493010C9499010C9485020C94AF011B
:100100000C948F010C94AB010C94F2020C940E022F
:100110000C9474010C94B9010C94B4010C94A101D9
:100120000C94CE030C9476020C9454020C9482012D
:100130000C94A7010C949D010C9486010C94A502CB
:100140000C9489010C94B5010000210024002700C3
:100150002A002D00300033000101000004010701D6
:100160000A01000020002300260029002C002F0097
:100170003200000100000301060109010000220015
:10018000250028002B002E00310034000201000061
:10019000050108010B010505050507050808080804
:1001A000020202020A0A080804040404010101010F
:1001B000010101010303030303030303040707070A
:1001C0000C0C0C0C0C0C0C0C0202020206060606AF
:1001D000060606060B0B0B0B0B0B0B0B010210207C
:1001E000200808102040102040800201020108046D
:1001F0000201010204081020408080402010080401
:100200000201800402018040201008040201080459
:10021000020101020408102040800102040810209D
:10022000408000000A0B02090C0D0E0807030401B0
:1002300000000000000000000000000000000000BE
:10024000000000000000000000000000000012118B
:10025000100000000000000000000000000000008E
:100260000000000000000000CE0311241FBECFEFED
:10027000D1E2DEBFCDBF00E00CBF12E0A0E0B2E0F3
:10028000E8E7FAE000E00BBF02C007900D92A6314C
:10029000B107D9F722E0A6E1B2E001C01D92AD3B63
:1002A000B207E1F711E0C5E3D1E000E006C0219715
:1002B0000109802FFE010E942005C433D10780E090
:1002C0000807A9F70E94FB030C9428050C94000072
:1002D0008150823108F048C0E82FF0E08827E65DC1
:1002E000FA4F8F4F0C942005809180008F77809378
:1002F00080000895809180008F7DF9CF80918000EB
:10030000877FF5CF84B58F7784BD089584B58F7DC1
:10031000FBCF8091B0008F778093B00008958091DB
:10032000B0008F7DF9CF809190008F7780939000FF
:100330000895809190008F7DF9CF80919000877F04
:10034000F5CF8091A0008F778093A00008958091D1
:10035000A0008F7DF9CF8091A000877FF5CF80919D
:1003600020018F77809320010895809120018F7D57
:10037000F9CF80912001877FF5CF1F93CF93DF9333
:10038000162F282F30E0F901EE5DFD4F8491F90121
:10039000E452FE4FD491F901EA56FE4FC491CC23AA
:1003A000A1F081110E946801EC2FF0E0EE0FFF1F19
:1003B000E458FE4FA591B4919FB7F8948C91111118
:1003C00008C0D095D823DC939FBFDF91CF911F91B8
:1003D00008958D2B8C93F8CFFC01848DDF01A80F3D
:1003E000B11DA35ABF4F2C91848D90E001968F735D
:1003F0009927848FA689B7892C93A089B1898C917C
:10040000837080648C93938D848D981306C00288CA
:10041000F389E02D80818F7D80830895FC01818D9B
:10042000228D90E0805C9F4F821B91098F739927EA
:10043000089580E292E00E940E029C0181E0232B4D
:1004400009F480E0089580E090E0892B29F00E9473
:10045000190281110E94000080E090E0892B49F090
:1004600080E090E0892B29F00E94000081110E9419
:10047000000080E090E0892B49F080E090E0892B3B
:1004800029F00E94000081110E94000080E090E0AD
:10049000892B49F080E090E0892B29F00E94000030
:1004A00081110C9400000895FC01918D828D9817A4
:1004B00031F0828DE80FF11D858D90E008958FEF6A
:1004C0009FEF0895FC01918D828D981761F0828DC8
:1004D000DF01A80FB11D5D968C91928D9F5F9F7378
:1004E000928F90E008958FEF9FEF0895FC01538D58
:1004F000448D252F30E0842F90E0821B930B5417FE
:1005000010F0CF96089501970895CF93DF93EC01F3
:10051000888D81110FC0DF91CF9108950FB607FC30
:100520000DC08C9185FF08C0808185FF03C0CE017E
:100530000E94EC01AA89BB89E889F9898C9185FD23
:10054000EDCF808186FFEACFE6CFEF92FF920F9347
:100550001F93CF93DF93EC01F62E81E0888F9B8D64
:100560008C8D98131AC0E889F989808185FF15C0A0
:100570009FB7F894EE89FF896083E889F9898081C3
:100580008370806480839FBF81E090E0DF91CF9192
:100590001F910F91FF90EF9008950B8D10E00F5F6A
:1005A0001F4F0F731127E02E8C8D8E1579F08B8DD8
:1005B000FE01E80FF11DE35AFF4FF0829FB7F89458
:1005C0000B8FEA89FB8980818062DCCF0FB607FC44
:1005D000EBCFE889F989808185FFE6CFCE010E94C3
:1005E000EC01E2CFCF92DF92EF92FF920F931F9335
:1005F000CF93DF937C016A0110E000E00C151D052C
:1006000051F4C801DF91CF911F910F91FF90EF90AE
:10061000DF90CF900895EB01D701ED91FC9101900F
:10062000F081E02D6991C7011995892B51F30F5F76
:100630001F4FBE01E3CFBC01009761F0FC010190A8
:100640000020E9F73197AF01481B590B80E292E097
:100650000C94F20208952F932FB72F932BB72F935B
:100660008F939F93EF93FF93E0913002F0913102CB
:100670008081E0913602F091370282FD1BC09081AB
:10068000809139028F5F8F7320913A02821741F077
:10069000E0913902F0E0E05EFD4F958F80933902E2
:1006A000FF91EF919F918F912F912BBF2F912FBF92
:1006B0002F9118958081F4CF1F920F920FB60F9251
:1006C00011240BB60F922F933F934F935F936F9329
:1006D0007F938F939F93AF93BF93EF93FF9380E2AA
:1006E00092E00E94EC01FF91EF91BF91AF919F9139
:1006F0008F917F916F915F914F913F912F910F90CB
:100700000BBE0F900FBE0F901F9018951F921FB633
:100710001F9211242F933F938F939F93AF93BF9377
:1007200080911B0290911C02A0911D02B0911E02AB
:1007300030911A0223E0230F2D3750F50196A11DA9
:10074000B11D20931A0280931B0290931C02A09368
:100750001D02B0931E028091160290911702A09183
:100760001802B09119020196A11DB11D80931602C5
:1007700090931702A0931802B0931902BF91AF9102
:100780009F918F913F912F911F901FBE1F901895A1
:1007900026E8230F0296A11DB11DD3CFE0E2F2E0BF
:1007A0001382128288EE93E0A0E0B0E08483958308
:1007B000A683B78384E092E09183808385EC90E008
:1007C0009587848784EC90E09787868780EC90E01B
:1007D000918B808B81EC90E0938B828B82EC90E00C
:1007E000958B848B86EC90E0978B868B118E128E86
:1007F000138E148E0895CDB7DEB7A1970FB6F89477
:10080000DEBF0FBECDBF789484B5826084BD84B551
:10081000816084BD85B5826085BD85B5816085BDFB
:1008200080916E00816080936E00109281008091B3
:10083000810082608093810080918100816080933B
:100840008100809180008160809380008091B10060
:1008500084608093B1008091B00081608093B0008B
:1008600080919100826080939100809191008160DD
:10087000809391008091900081608093900080919E
:10088000A10082608093A1008091A100816080938B
:10089000A1008091A00081608093A000809121013F
:1008A00082608093210180912101816080932101E8
:1008B0008091200181608093200180917A00846082
:1008C00080937A0080917A00826080937A00809190
:1008D0007A00816080937A0080917A0080688093AA
:1008E0007A001092C100E9EEF1E02491E3EAF1E030
:1008F00084918823A1F090E0880F991FFC01E85BA8
:10090000FE4FA591B491FC01E458FE4F859194915E
:100910008FB7F8949C91E22FE92BEC938FBF03EEF5
:1009200011E0F80124914DE9E42E41E0F42EF701A5
:1009300084918823C9F090E0880F991FFC01E85B3F
:10094000FE4FA591B491FC01E458FE4F459154919E
:100950003FB7F8949C91822F809598239C93FA013D
:100960009081892380833FBFE0913002F091310272
:1009700082E08083E0912C02F0912D021082E091C0
:100980002E02F0912F028FEC808310923802E091BA
:100990003402F091350286E08083E0913202F091DA
:1009A0003302808180618083E0913202F0913302D2
:1009B000808188608083E0913202F09133028081EF
:1009C00080688083E0913202F091330280818F7DD4
:1009D000808399E2C92E92E0D92EF6018491F80124
:1009E000A490F701B490BB2079F081110E946801B6
:1009F000EB2DF0E0EE0FFF1FEE59FE4FA591B491E5
:100A00008C91A82281E009F480E0982F9170909356
:100A10001F0219A2805D88A3CE0180960E941B034D
:100A200082E192E00E941B0380911F0261E081112C
:100A300001C060E08DE00E94BD010E942302CDCF85
:100A4000EE0FFF1F881F8BBF0790F691E02D1994C2
:100A5000F894FFCF8201860174017A017E01B4010E
:100A600089018F01930199019D01A101A701AB01AA
:080A7000B401AF01B501B901A9
:100A780000000000A502F202760285020E02620260
:060A880054020D0A0000FB
:00000001FF
