:100000000C942C010C9478030C94A3030C94CE0351
:100010000C94F9030C9424040C944F040C947A046B
:100020000C94A5040C945D010C945D010C945D018D
:100030000C945D010C945D010C945D010C945D01C8
:100040000C945D010C945D010C945D010C945D01B8
:100050000C945D010C945D010C945D010C94D00432
:100060000C945D010C9418050C9449050C945D01E9
:100070000C945D010C945D010C945D010C945D0188
:100080000C945D010C945D010C945D010C945D0178
:100090000C945D010C945D010C945D010C945D0168
:1000A0000C945D010C945D010C945D010C945D0158
:1000B0000C945D010C945D010C945D010C945D0148
:1000C0000C945D010C945D010C945D010C945D0138
:1000D0000C945D010C945D010C945D010C945D0128
:1000E0000C945D010C9413030C94C7010C94E6016D
:1000F0000C9451030C94CB010C9473050C94EE01F9
:100100000C94D6010C94FC010C94CF010C94E001EA
:100110000C9497020C94EA010C94F8010C94C6021A
:100120000C94B5010C94D3010C94A6020C947502A6
:100130000C94B0010C942F020C945F010C94F40108
:100140000C9406020C9483020C9402020C94DC01C1
:1001500000002100240027002A002D003000330079
:1001600001010000040107010A010000220025002E
:1001700028002B002E003100340002010000050190
:1001800008010B0105050505070508080808020216
:1001900002020A0A08080404040401010101010121
:1001A00001010303030303030303040707070C0C04
:1001B0000C0C0C0C0C0C02020202060606060606CB
:1001C00006060B0B0B0B0B0B0B0B01021020200870
:1001D00008102040102040800201020108040201A2
:1001E0000102040810204080804020100804020111
:1001F000800402018040201008040201080402016A
:1002000001020408102040800102040810204080F0
:1002100000000A0B02090C0D0E0807030401000080
:1002200000000000000000000000000000000000CE
:10023000000000000000000000000000121110008B
:1002400000000000000000000000000000000000AE
:10025000000000000000730511241FBECFEFD1E2A3
:10026000DEBFCDBF00E00CBF12E0A0E0B2E0EAE1EB
:10027000FEE000E00BBF02C007900D92A834B1076A
:10028000D9F722E0A8E4B2E001C01D92A33FB20773
:10029000E1F711E0CCE2D1E000E006C021970109CE
:1002A000802FFE010E94F106CB32D10780E00807C3
:1002B000A9F70E94A0050C94F9060C94000008957B
:1002C000CF93DF9300D00F92CDB7DEB73FB7F8944E
:1002D0008091480290914902A0914A02B0914B024C
:1002E00026B5A89B05C02F3F19F00196A11DB11D91
:1002F0003FBFBA2FA92F982F8827820F911DA11DCC
:10030000B11D9C01AD0162E0220F331F441F551F38
:100310006A95D1F7CA01B9010F900F900F900F9015
:10032000DF91CF910895282F30E0F901E05FFD4F74
:100330009491F901E653FE4F44912C573E4FF90139
:100340002491222319F1992381F09150923168F47C
:10035000E92FF0E08827E550F94F8F4F0C94F10614
:10036000809180008F7780938000E22FF0E0EE0F85
:10037000FF1FE659FE4FA591B4919FB7F8948C9159
:10038000611148C0409548234C939FBF08958091C8
:1003900080008F7DE8CF80918000877FE4CF84B597
:1003A0008F7784BDE2CF84B58F7DFBCF8091B00085
:1003B0008F778093B000D9CF8091B0008F7DF9CF37
:1003C000809190008F7780939000CFCF80919000A4
:1003D0008F7DF9CF80919000877FF5CF8091A0002D
:1003E0008F778093A000C1CF8091A0008F7DF9CF3F
:1003F0008091A000877FF5CF809120018F77809337
:100400002001B3CF809120018F7DF9CF8091200111
:10041000877FF5CF842B8C93B8CFFC01848DDF01CF
:10042000A80FB11DA35ABF4F2C91848D90E0019667
:100430008F739927848FA689B7892C93A089B18956
:100440008C91837080648C93938D848D981306C0F7
:100450000288F389E02D80818F7D80830895FC01DF
:10046000818D228D90E0805C9F4F821B91098F735C
:100470009927089586E592E00E942F029C0181E071
:10048000232B09F480E0089580E090E0892B29F087
:100490000E943A0281110E94000080E090E0892BC6
:1004A00049F080E090E0892B29F00E940000811142
:1004B0000E94000080E090E0892B49F080E090E00D
:1004C000892B29F00E94000081110E94000080E029
:1004D00090E0892B49F080E090E0892B29F00E9480
:1004E000000081110C9400000895FC01918D828D13
:1004F000981731F0828DE80FF11D858D90E00895F9
:100500008FEF9FEF0895FC01918D828D981761F018
:10051000828DDF01A80FB11D5D968C91928D9F5F3A
:100520009F73928F90E008958FEF9FEF0895FC01E5
:10053000538D448D252F30E0842F90E0821B930B48
:10054000541710F0CF96089501970895CF93DF9335
:10055000EC01888D81110FC0DF91CF9108950FB606
:1005600007FC0DC08C9185FF08C0808185FF03C00A
:10057000CE010E940D02AA89BB89E889F9898C9174
:1005800085FDEDCF808186FFEACFE6CFEF92FF9227
:100590000F931F93CF93DF93EC01F62E81E0888FAA
:1005A0009B8D8C8D98131AC0E889F989808185FF0D
:1005B00015C09FB7F894EE89FF896083E889F989AF
:1005C00080818370806480839FBF81E090E0DF91B1
:1005D000CF911F910F91FF90EF9008950B8D10E038
:1005E0000F5F1F4F0F731127E02E8C8D8E1579F042
:1005F0008B8DFE01E80FF11DE35AFF4FF0829FB78C
:10060000F8940B8FEA89FB8980818062DCCF0FB67A
:1006100007FCEBCFE889F989808185FFE6CFCE0121
:100620000E940D02E2CFCF92DF92EF92FF920F93E2
:100630001F93CF93DF937C016A0110E000E00C155B
:100640001D0551F4C801DF91CF911F910F91FF90CB
:10065000EF90DF90CF900895EB01D701ED91FC91E1
:100660000190F081E02D6991C7011995892B51F313
:100670000F5F1F4FBE01E3CFBC01FC0101900020C2
:10068000E9F73197AF01481B590B86E592E00E94CC
:10069000130342E050E062E272E086E592E00C94DF
:1006A000130385E292E00E943C0380915502811180
:1006B00004C060E088E00E94930181E080935502CD
:1006C0008CE292E00E943C032FB7F89480914D0297
:1006D00090914E02A0914F02B09150022FBF809393
:1006E000510290935202A0935302B0935402089582
:1006F0001F920F920FB60F9211240BB60F922F93E9
:100700003F934F935F936F937F938F939F93AF9399
:10071000BF93EF93FF93E0910402F09105021995C6
:10072000FF91EF91BF91AF919F918F917F916F91C9
:100730005F914F913F912F910F900BBE0F900FBE85
:100740000F901F9018951F920F920FB60F921124C1
:100750000BB60F922F933F934F935F936F937F93BB
:100760008F939F93AF93BF93EF93FF93E091060214
:10077000F09107021995FF91EF91BF91AF919F9171
:100780008F917F916F915F914F913F912F910F903A
:100790000BBE0F900FBE0F901F9018951F920F92D7
:1007A0000FB60F9211240BB60F922F933F934F93D6
:1007B0005F936F937F938F939F93AF93BF93EF93C9
:1007C000FF93E0910802F09109021995FF91EF91D2
:1007D000BF91AF919F918F917F916F915F914F9159
:1007E0003F912F910F900BBE0F900FBE0F901F9057
:1007F00018951F920F920FB60F9211240BB60F92FD
:100800002F933F934F935F936F937F938F939F9318
:10081000AF93BF93EF93FF93E0910A02F0910B0225
:100820001995FF91EF91BF91AF919F918F917F911A
:100830006F915F914F913F912F910F900BBE0F9051
:100840000FBE0F901F9018951F920F920FB60F9228
:1008500011240BB60F922F933F934F935F936F9397
:100860007F938F939F93AF93BF93EF93FF93E09109
:100870000002F09101021995FF91EF91BF91AF91A4
:100880009F918F917F916F915F914F913F912F91A8
:100890000F900BBE0F900FBE0F901F9018951F92D8
:1008A0000F920FB60F9211240BB60F922F933F9316
:1008B0004F935F936F937F938F939F93AF93BF9368
:1008C000EF93FF93E0910202F09103021995FF91DB
:1008D000EF91BF91AF919F918F917F916F915F91B8
:1008E0004F913F912F910F900BBE0F900FBE0F9025
:1008F0001F9018951F920F920FB60F9211240BB6EE
:100900000F922F933F934F935F936F937F938F93A8
:100910009F93AF93BF93EF93FF93E0910C02F091FD
:100920000D021995FF91EF91BF91AF919F918F911A
:100930007F916F915F914F913F912F910F900BBEDF
:100940000F900FBE0F901F9018951F920F920FB629
:100950000F9211240BB60F922F933F934F935F93F7
:100960006F937F938F939F93AF93BF93EF93FF9377
:10097000E0910E02F0910F021995FF91EF91BF9156
:10098000AF919F918F917F916F915F914F913F9127
:100990002F910F900BBE0F900FBE0F901F901895C8
:1009A0001F921FB61F9211242F933F938F939F93F3
:1009B000AF93BF9380914D0290914E02A0914F0250
:1009C000B091500230914C0223E0230F2D3750F5A7
:1009D0000196A11DB11D20934C0280934D0290936E
:1009E0004E02A0934F02B093500280914802909122
:1009F0004902A0914A02B0914B020196A11DB11D7E
:100A00008093480290934902A0934A02B0934B020C
:100A1000BF91AF919F918F913F912F911F901FBEDA
:100A20001F90189526E8230F0296A11DB11DD3CF64
:100A30002F932FB72F932BB72F938F939F93EF93D2
:100A4000FF93E0916602F09167028081E0916C0271
:100A5000F0916D0282FD1BC0908180916F028F5FCB
:100A60008F7320917002821741F0E0916F02F0E0E5
:100A7000EA5AFD4F958F80936F02FF91EF919F91FE
:100A80008F912F912BBF2F912FBF2F911895808180
:100A9000F4CF1F920F920FB60F9211240BB60F9244
:100AA0002F933F934F935F936F937F938F939F9376
:100AB000AF93BF93EF93FF9386E592E00E940D0200
:100AC000FF91EF91BF91AF919F918F917F916F9126
:100AD0005F914F913F912F910F900BBE0F900FBEE2
:100AE0000F901F901895E6E5F2E01382128288EECF
:100AF00093E0A0E0B0E084839583A683B78384E18C
:100B000092E09183808385EC90E09587848784ECE4
:100B100090E09787868780EC90E0918B808B81ECCA
:100B200090E0938B828B82EC90E0958B848B86ECAB
:100B300090E0978B868B118E128E138E148E0895F3
:100B400000D00F92CDB7DEB7789484B5826084BDB3
:100B500084B5816084BD85B5826085BD85B58160C1
:100B600085BD80916E00816080936E00109281003F
:100B700080918100826080938100809181008160FA
:100B800080938100809180008160809380008091BB
:100B9000B10084608093B1008091B0008160809347
:100BA000B0008091910082608093910080919100CB
:100BB000816080939100809190008160809390008B
:100BC0008091A10082608093A1008091A10081604A
:100BD0008093A1008091A00081608093A00080910B
:100BE00021018260809321018091210181608093A5
:100BF00021018091200181608093200180917A0001
:100C0000846080937A0080917A00826080937A0079
:100C100080917A00816080937A0080917A00806868
:100C200080937A001092C100E2EDF1E02491ECE8AB
:100C3000F1E084918823A1F090E0880F991FFC01D6
:100C4000E05BFE4FA591B491FC01E659FE4F859102
:100C500094918FB7F8949C91E22FE92BEC938FBF7E
:100C600061E088E00E949301ECECF1E02491E6E879
:100C7000F1E084918823C9F090E0880F991FFC016E
:100C8000E05BFE4F65917491FC01E659FE4FA59122
:100C9000B4919FB7F894FB018081209582238083D3
:100CA0008C91E22FE823EC939FBF81E593E0909332
:100CB00001028093000280916A00836080936A0041
:100CC000EC9AE0916602F091670282E08083E09105
:100CD0006202F09163021082E0916402F091650279
:100CE0008FEC808310926E02E0916A02F0916B02A9
:100CF00086E08083E0916802F091690280818061E2
:100D00008083E0916802F09169028081886080832D
:100D1000E0916802F0916902808180688083E091AF
:100D20006802F091690280818F7D80838FE292E07A
:100D30000E943C032FB7F89480914D0290914E028F
:100D4000A0914F02B09150022FBF4091510250919B
:100D500052026091530270915402841B950BA60BB2
:100D6000B70B81319742A105B10570F08091550212
:100D7000813051F461E088E00E94930110925502A5
:100D800083E492E00E943C030E9460016B017C01BD
:100D900082E3882E912CA12CB12C0E9460016983E2
:100DA0007A838B839C83DC01CB018C199D09AE096E
:100DB000BF09883E9340A105B10578F321E0821A6E
:100DC0009108A108B10848EEC40E43E0D41EE11C0E
:100DD000F11C81149104A104B104F9F60E944402AB
:100DE000A9CFEE0FFF1F881F8BBF0790F691E02D54
:100DF0001994F894FFCFCF01D301B001C701CB0103
:100E0000B501D601DC01E001E601EA01EE01F401E1
:0A0E1000F801B501FC010202060220
:100E1A005F015F015F015F015F015F015F015F01C8
:100E2A0000000000C60213039702A6022F028302E3
:100E3A0075020D0A004D6F74696F6E004F4E0050B7
:100E4A00726F6772616D207374617274696E672E56
:080E5A002E2E004F4646000059
:00000001FF
