:100000000C943B010C946C010C946C010C946C01ED
:100010000C946C010C946C010C946C010C946C01AC
:100020000C946C010C946C010C946C010C946C019C
:100030000C946C010C946C010C946C010C946C018C
:100040000C946C010C946C010C946C010C946C017C
:100050000C946C010C946C010C946C010C94F606DD
:100060000C946C010C943E070C946F070C946C017B
:100070000C946C010C946C010C946C010C946C014C
:100080000C946C010C946C010C946C010C946C013C
:100090000C946C010C946C010C946C010C94D405C0
:1000A0000C946C010C946C010C946C010C946C011C
:1000B0000C946C010C946C010C946C010C946C010C
:1000C0000C946C010C946C010C946C010C946C01FC
:1000D0000C946C010C946C010C946C010C946C01EC
:1000E0000C946C010C94AA020C9482030C94870269
:1000F0000C94A5030C9475020C94B8020C94A00205
:100100000C949A010C94C3010C9493020C94120465
:100110000C944C0A0C946E010C94520A0C94B40288
:100120000C94F2010C94580A0C94140A0C94960343
:100130000C949B010C9470020C944F0A0C94C20214
:100140000C942E030C94A6020C94C5030C9471011C
:100150000C949C010C9474030C94460A0C94C602F3
:100160000C94550A0C9478010C948B010C949C020D
:100170000C9496020C94490A0C94AE020C948F02D3
:100180000C94BC020C948B02000022002500280075
:100190002B002E003100340002010000050108018F
:1001A0000B010505050507050808080802020202FB
:1001B0000A0A080804040404010101010101010103
:1001C0000303030303030303040707070C0C0C0CCE
:1001D0000C0C0C0C020202020606060606060606B7
:1001E0000B0B0B0B0B0B0B0B010210202008081044
:1001F0002040102040800201020108040201010297
:10020000040810204080804020100804020180046F
:1002100002018040201008040201080402010102CA
:1002200004081020408001020408102040800000D3
:100230000A0B02090C0D0E08070304010000000060
:1002400000000000000000000000000000000000AE
:10025000000000000000000000001211100000006B
:10026000000000000000000000000000000000008E
:1002700000000000580A11241FBECFEFD1E2DEBFFC
:10028000CDBF00E00CBF12E0A0E0B2E0EEEBF5E184
:1002900000E00BBF02C007900D92A637B107D9F757
:1002A00023E0A6E7B2E001C01D92A23EB207E1F74B
:1002B00011E0CBE3D1E000E006C021970109802FD7
:1002C000FE010E94B30ACA33D10780E00807A9F7EC
:1002D0000E9499070C94C40A0C94000090E080E0FE
:1002E00008958091BE039091BD03891B990B0895D9
:1002F0009091BD038091BE032FEF3FEF981748F414
:10030000E92FF0E0E356FC4F208130E09F5F9093AF
:10031000BD03C9010895E091BD038091BE03E817B4
:1003200030F4F0E0E356FC4F808190E008958FEFC9
:100330009FEF089508950895089520919903260F39
:100340003327331F21323105E4F420919C03FC0153
:1003500090E080E0243061F082E0089530919903CC
:100360002191DC01A758BC4FA30FB11D2C9301961E
:100370008617A0F380919903680F6093990380E03A
:10038000089581E00895CF93DF930F92CDB7DEB744
:10039000FC0169838091E1038823F1F08091E003FF
:1003A000803250F081E090E09383828390E080E09F
:1003B0000F90DF91CF9108958091DF03E82FF0E057
:1003C000E154FC4F998190838F5F8093DF0380938A
:1003D000E00381E090E0ECCF61E0CE0101960E9465
:1003E0009D01F7CFCF92DF92EF92FF920F931F9371
:1003F000CF93DF937C01CB018A012091E10322237B
:10040000D9F0EB016B01C40ED51ECC15DD0551F4FE
:10041000C801DF91CF911F910F91FF90EF90DF9076
:10042000CF9008956991D701ED91FC910190F081F1
:10043000E02DC7011995E9CF642F0E949D01E8CFF7
:10044000CF93DF9300D00F92CDB7DEB73FB7F894CC
:100450008091200390912103A0912203B091230366
:1004600026B5A89B05C02F3F19F00196A11DB11D0F
:100470003FBFBA2FA92F982F8827820F911DA11D4A
:10048000B11D9C01AD0162E0220F331F441F551FB7
:100490006A95D1F7CA01B9010F900F900F900F9094
:1004A000DF91CF910895282F30E0F901E25DFD4FF3
:1004B0009491F901E851FE4F44912E553E4FF901B8
:1004C0002491222319F1992381F09150923168F4FB
:1004D000E92FF0E08827EA53F54F8F4F0C94B30AC9
:1004E000809180008F7780938000E22FF0E0EE0F04
:1004F000FF1FE857FE4FA591B4919FB7F8948C91D8
:10050000611148C0409548234C939FBF0895809146
:1005100080008F7DE8CF80918000877FE4CF84B515
:100520008F7784BDE2CF84B58F7DFBCF8091B00003
:100530008F778093B000D9CF8091B0008F7DF9CFB5
:10054000809190008F7780939000CFCF8091900022
:100550008F7DF9CF80919000877FF5CF8091A000AB
:100560008F778093A000C1CF8091A0008F7DF9CFBD
:100570008091A000877FF5CF809120018F778093B5
:100580002001B3CF809120018F7DF9CF8091200190
:10059000877FF5CF842B8C93B8CF10929C0381E09A
:1005A00080939B0310929A0361E084E10E945302BE
:1005B00061E085E10E945302E9EBF0E080818E7FEB
:1005C000808380818D7F808388E48093B80085E478
:1005D0008093BC000895CF93DF9391E090937303D1
:1005E0008823B9F0C091B800D091BA008091BC00C6
:1005F0008A7B8093BC0060E084E10E94530260E04B
:1006000085E10E9453020E94CD02D093BA00C093AC
:10061000B800DF91CF910895FC01848DDF01A80F10
:10062000B11DA35ABF4F2C91848D90E001968F731A
:100630009927848FA689B7892C93A089B1898C9139
:10064000837080648C93938D848D981306C0028888
:10065000F389E02D80818F7D80830895FC01818D59
:10066000228D90E0805C9F4F821B91098F739927A8
:10067000089583E892E00E942E039C0181E0232BE1
:1006800009F480E0089580E090E0892B29F00E9431
:10069000390381110E94000080E090E0892B49F02D
:1006A00080E090E0892B29F00E94000081110E94D7
:1006B000000080E090E0892B49F080E090E0892BF9
:1006C00029F00E94000081110E94000080E090E06B
:1006D000892B49F080E090E0892B29F00E940000EE
:1006E00081110C9400000895FC01918D828D981762
:1006F00031F0828DE80FF11D858D90E008958FEF28
:100700009FEF0895FC01918D828D981761F0828D85
:10071000DF01A80FB11D5D968C91928D9F5F9F7335
:10072000928F90E008958FEF9FEF0895FC01538D15
:10073000448D252F30E0842F90E0821B930B5417BB
:1007400010F0CF96089501970895CF93DF93EC01B1
:10075000888D81110FC0DF91CF9108950FB607FCEE
:100760000DC08C9185FF08C0808185FF03C0CE013C
:100770000E940C03AA89BB89E889F9898C9185FDBF
:10078000EDCF808186FFEACFE6CFEF92FF920F9305
:100790001F93CF93DF93EC01F62E81E0888F9B8D22
:1007A0008C8D98131AC0E889F989808185FF15C05E
:1007B0009FB7F894EE89FF896083E889F989808181
:1007C0008370806480839FBF81E090E0DF91CF9150
:1007D0001F910F91FF90EF9008950B8D10E00F5F28
:1007E0001F4F0F731127E02E8C8D8E1579F08B8D96
:1007F000FE01E80FF11DE35AFF4FF0829FB7F89416
:100800000B8FEA89FB8980818062DCCF0FB607FC01
:10081000EBCFE889F989808185FFE6CFCE010E9480
:100820000C03E2CFCF92DF92EF92FF920F931F93D0
:10083000CF93DF937C016A0110E000E00C151D05E9
:1008400051F4C801DF91CF911F910F91FF90EF906C
:10085000DF90CF900895EB01D701ED91FC910190CD
:10086000F081E02D6991C7011995892B51F30F5F34
:100870001F4FBE01E3CF8F929F92AF92BF92CF9254
:10088000DF92EF92FF92CF93DF9300D00F920F92FF
:10089000CDB7DEB78091E0038D83F0907602813290
:1008A00008F0A5C00E9420024B015C0180919C03CE
:1008B000811170C082E080939C0381E080939B0350
:1008C0008FEF80934F03109271038D81809370039B
:1008D000482F50E06FEB73E080E593E00E94BB0A85
:1008E0001092720380917203FF0CF82AF092720347
:1008F00080919A03813009F090C010929A030E946F
:1009000020026B017C01809172038093BB00809177
:10091000750390917603A0917703B0917803892BAA
:100920008A2B8B2BE1F00E94200269837A838B83D0
:100930009C83409175035091760360917703709189
:10094000780389819A81AB81BC818C199D09AE099C
:10095000BF09481759076A077B0708F444C080910C
:10096000BC0083FDD0CF85EC8093BC000E942002A8
:100970006B017C0180919C03823009F450C080910E
:100980004F038F3FA1F180914F03803281F180911D
:100990004F032DC08091750390917603A09177034A
:1009A000B0917803892B8A2B8B2B09F47FCF0E947F
:1009B000200269837A838B839C83409175035091D5
:1009C0007603609177037091780389819A81AB8176
:1009D000BC8188199909AA09BB09481759076A07F0
:1009E0007B0708F063CF809174030E94EB021092A2
:1009F000DF031092E0031092E1030F900F900F902D
:100A00000F900F90DF91CF91FF90EF90DF90CF90FC
:100A1000BF90AF909F908F90089585EEA5CF809165
:100A2000750390917603A0917703B0917803892B99
:100A30008A2B8B2B09F49ECF0E94200269837A8334
:100A40008B839C834091750350917603609177036B
:100A50007091780389819A81AB81BC818C199D0941
:100A6000AE09BF09481759076A077B0708F082CF0C
:100A7000BACF85ED8093BC00809175039091760389
:100A8000A0917703B09178030796A11DB11D23E0D3
:100A9000B695A795979587952A95D1F72091BC0093
:100AA00024FD03C010929C0308954091750350915A
:100AB00076036091770370917803452B462B472B83
:100AC00069F30097A105B10541F025E32A95F1F7F7
:100AD00000000197A109B109E1CF809174030C9442
:100AE000EB02BC01009761F0FC0101900020E9F7E6
:100AF0003197AF01481B590B83E892E00C94120424
:100B000008950E94710584E292E00C9471050C94A2
:100B10007105CF92DF92EF92FF920F931F93CF93C5
:100B2000DF93CDB7DEB7A5970FB6F894DEBF0FBE43
:100B3000CDBF282F30E050E040E02AA33BA34CA3D8
:100B40005DA319A28E010F5D1F4F8AE0C82ED12C24
:100B5000E12CF12C6AA17BA18CA19DA1A70196019A
:100B60000E94910A8AA19BA1ACA1BDA12AA33BA38B
:100B70004CA35DA3605DF80162938F010A97A10504
:100B8000B10540F7CF010E947105A5960FB6F89404
:100B9000DEBF0FBECDBFDF91CF911F910F91FF90B0
:100BA000EF90DF90CF9008951F920F920FB60F92A3
:100BB00011240BB60F922F933F934F935F936F9334
:100BC0007F938F939F93AF93BF93EF93FF939091F6
:100BD000B900892F887F803509F4C3C008F044C06C
:100BE000803309F4B9C0A8F5883111F1E0F48830F8
:100BF00009F4AAC0803109F4A7C0882309F4F3C01E
:100C0000FF91EF91BF91AF919F918F917F916F91E4
:100C10005F914F913F912F910F900BBE0F900FBEA0
:100C20000F901F901895803209F496C0883241F7D2
:100C30009091710380917003981780F5E091710392
:100C400081E08E0F80937103F0E0E05BFC4F8081C8
:100C50007DC0803409F491C0883409F47FC08833A2
:100C600079F680934F036EC0803A09F4A0C0C0F5B6
:100C7000803809F48AC058F5803619F1E0F48835D7
:100C800009F0BECFE091710381E08E0F8093710374
:100C90008091BB00F0E0E05BFC4F808380919B0380
:100CA00081115CC081E080939A0384EA8093BC0048
:100CB00010929C03A5CF803721F0987E983609F0DA
:100CC0009FCF83E080939C0310924E0341C08039F4
:100CD00009F45BC0987E983809F092CF85E839C056
:100CE000883BD9F058F5883A19F0803B09F088CF55
:100CF00084E080939C0310922B0310929903E0915F
:100D00002903F0912A03199580919903811105C057
:100D100081E08093990310927903E0912B0381E0A5
:100D20008E0F80932B03F0E0E758FC4F8081809377
:100D3000BB0090912B038091990323C0907F903C3E
:100D400009F05ECF85ECB2CF809172038093BB0037
:100D500085EC8093BC0054CF80934F030E943905EB
:100D60004FCFE091710381E08E0F809371038091EA
:100D7000BB00F0E0E05BFC4F8083909171038091B9
:100D80007003981708F0AACFE3CF80914E0380320A
:100D900008F0A4CFE0914E0381E08E0F80934E03C4
:100DA0008091BB00F0E0E25DFC4F8083D1CF85EC09
:100DB0008093BC0010929C0380914E03803230F4EB
:100DC000E0914E03F0E0E25DFC4F108260914E0333
:100DD00070E0E0912C03F0912D038EE293E01995E1
:100DE00010924E030DCF10924F03B8CF1F921FB633
:100DF0001F9211242F933F938F939F93AF93BF9391
:100E00008091250390912603A0912703B091280398
:100E10003091240323E0230F2D3750F50196A11DB7
:100E2000B11D209324038093250390932603A09360
:100E30002703B09328038091200390912103A09170
:100E40002203B09123030196A11DB11D80932003BD
:100E500090932103A0932203B0932303BF91AF91FA
:100E60009F918F913F912F911F901FBE1F901895BA
:100E700026E8230F0296A11DB11DD3CF2F932FB7C4
:100E80002F932BB72F938F939F93EF93FF93E09123
:100E90009302F09194028081E0919902F0919A027C
:100EA00082FD1BC0908180919C028F5F8F73209187
:100EB0009D02821741F0E0919C02F0E0ED57FD4F5A
:100EC000958F80939C02FF91EF919F918F912F912D
:100ED0002BBF2F912FBF2F9118958081F4CF1F9298
:100EE0000F920FB60F9211240BB60F922F933F93D0
:100EF0004F935F936F937F938F939F93AF93BF9322
:100F0000EF93FF9383E892E00E940C03FF91EF912F
:100F1000BF91AF919F918F917F916F915F914F9111
:100F20003F912F910F900BBE0F900FBE0F901F900F
:100F3000189500D00F920F92CDB7DEB7789484B594
:100F4000826084BD84B5816084BD85B5826085BDC5
:100F500085B5816085BD80916E00816080936E0053
:100F60001092810080918100826080938100809145
:100F700081008160809381008091800081608093F6
:100F800080008091B10084608093B1008091B000B6
:100F900081608093B0008091910082608093910085
:100FA0008091910081608093910080919000816098
:100FB000809390008091A10082608093A100809135
:100FC000A10081608093A1008091A0008160809346
:100FD000A0008091210182608093210180912101F4
:100FE00081608093210180912001816080932001A4
:100FF00080917A00846080937A0080917A00826088
:1010000080937A0080917A00816080937A00809149
:101010007A00806880937A001092C1001092BD031C
:101020001092BE031092DF031092E0030E94CD02E3
:101030008CE991E090932A03809329038BE991E056
:1010400090932D0380932C03E0919302F0919402EE
:1010500082E08083E0918F02F09190021082E09113
:101060009102F09192028FEC808310929B02E091AA
:101070009702F091980286E08083E0919502F091CA
:101080009602808180618083E0919502F0919602C2
:10109000808188608083E0919502F0919602808142
:1010A00080688083E0919502F091960280818F7D27
:1010B000808381E08093E10388E68093760260E09C
:1010C00087E792E00E94C30160E387E792E00E9415
:1010D000C30162E487E792E00E94C30166E187E70B
:1010E00092E00E94C30165E087E792E00E94C3019D
:1010F00063E187E792E00E94C30160E187E792E045
:101100000E94C30166E187E792E00E94C3010E944A
:101110003B04BB24B39498E6A92E99249A9426E024
:10112000822E3AE0C32EB092E103A0927602109292
:10113000DF031092E00360E087E792E00E94C301C2
:101140000E943B040E9420022B013C0120919C0341
:101150002D8321114EC0B0929C03B0929B039092BC
:101160004F031092710380927003B09272038091CA
:101170007203806D8093720380919A03813009F02D
:1011800023C110929A030E9420022B013C018091FE
:1011900072038093BB008091750390917603A091B8
:1011A0007703B0917803892B8A2B8B2B09F4ECC041
:1011B0000E94200269837A838B839C83409175030C
:1011C00050917603609177037091780389819A81B9
:1011D000AB81BC8184199509A609B709481759073D
:1011E0006A077B0708F0D0C0809174030E94EB026D
:1011F0002EC08091750390917603A0917703B091F2
:101200007803892B8A2B8B2B09F4A0CF0E94200214
:1012100069837A838B839C83409175035091760315
:10122000609177037091780389819A81AB81BC8149
:1012300084199509A609B709481759076A077B0752
:1012400008F084CF809174030E94EB021D821092FB
:10125000BD032D812093BE0387E792E00E947801B1
:10126000982F929597708F709C9D800D11248D837F
:1012700087E792E00E947801982F92959F708F7077
:10128000182F9C9D100D112487E792E00E94780191
:10129000982F929593708F70D82E9C9DD00C11240E
:1012A00087E792E00E947801982F92959F708F7047
:1012B0009C9D800D1124898387E792E00E9478012C
:1012C000982F92959F708F70E82E9C9DE00C1124B2
:1012D00087E792E00E947801982F92959F708F7017
:1012E000F82E9C9DF00C112487E792E00E94780173
:1012F000982F92959F708F70082F9C9D000D112440
:101300008D2D0E94890587E292E00E9487051A30A0
:1013100020F489E292E00E948705812F0E948905CE
:1013200087E292E00E9487058D818A3020F489E26D
:1013300092E00E9487058D810E9489058BE392E0EF
:101340000E9487058E2D0E9489058BE292E00E9403
:1013500087058F2D0E9489058BE292E00E94870508
:10136000802F0E9489058DE292E00E9487052981E5
:101370002150273008F05CC0E22FF0E08827E852C7
:10138000F54F8F4F0C94B30A8091BC0083FDFFCEC4
:1013900085EC8093BC000E9420022B013C018091CF
:1013A0009C038130A9F0809171038730D0F5809142
:1013B00071038D838D81482F50E060E573E08DE9E6
:1013C00093E00E94BB0A43CF25EE2093BC00E3CFFD
:1013D0008091750390917603A0917703B091780383
:1013E000892B8A2B8B2BD9F20E94200269837A8366
:1013F0008B839C83409175035091760360917703B2
:101400007091780389819A81AB81BC818419950997
:10141000A609B709481759076A077B0708F0BFCF25
:10142000E3CE27E02D83C6CF8DE392E00E948105B5
:101430000E9420027B018C0188E8282E83E1382E4F
:10144000412C512C0E94200269837A838B839C83D8
:10145000DC01CB018E199F09A00BB10B883E934094
:10146000A105B10578F381E0281A31084108510837
:1014700028E1E21A2CEFF20A0F4F1F4F211431041A
:1014800041045104F9F60E9443034DCE84E492E0F6
:10149000CDCF8BE492E0CACF83E592E0C7CF8DE554
:1014A00092E0C4CF86E692E0C1CF8DE692E0BECF57
:1014B000E3E8F2E01382128288EE93E0A0E0B0E06D
:1014C00084839583A683B78324E032E0318320832D
:1014D00025EC30E03587248724EC30E037872687F9
:1014E00020EC30E0318B208B21EC30E0338B228BF1
:1014F00022EC30E0358B248B26EC30E0378B268BCA
:10150000118E128E138E148EE7E7F2E01382128290
:1015100084839583A683B78386E192E09183808359
:101520000895A1E21A2EAA1BBB1BFD010DC0AA1F24
:10153000BB1FEE1FFF1FA217B307E407F50720F03C
:10154000A21BB30BE40BF50B661F771F881F991FB7
:101550001A9469F760957095809590959B01AC0100
:10156000BD01CF010895EE0FFF1F881F8BBF0790AD
:10157000F691E02D1994FB01DC0102C001900D925F
:1015800041505040D8F70895F894FFCF8F0293024E
:10159000700287028B02750296029C02A002A602CC
:1015A000AA02AE02B402B8027502BC02C202C602AE
:0E15B000140A460A490A4C0A4F0A520A550A02
:1015BE0000000000C50312049603A5032E03820348
:1015CE00740300000000C301F2016E019A01710163
:1015DE0078018B010D0A003A0030002F00200A44DA
:1015EE006179206F66207765656B3A200053756EC2
:1015FE00646179004D6F6E64617900547565736432
:10160E006179005765646E6573646179005468751D
:10161E007273646179004672696461790053617412
:06162E0075726461790091
:00000001FF
