:100000000C9435010C9466010C9466010C94660105
:100010000C9466010C9466010C9466010C946601C4
:100020000C9466010C9466010C9466010C946601B4
:100030000C9466010C9466010C9466010C946601A4
:100040000C9466010C9466010C9466010C94660194
:100050000C9466010C9466010C9466010C949B034D
:100060000C9466010C94E3030C9414040C94660144
:100070000C9466010C9466010C9466010C94660164
:100080000C9466010C9466010C9466010C94660154
:100090000C9466010C9466010C9466010C94660144
:1000A0000C9466010C9466010C9466010C94660134
:1000B0000C9466010C9466010C9466010C94660124
:1000C0000C9466010C9466010C9466010C94660114
:1000D0000C9466010C9466010C9466010C94660104
:1000E0000C9466010C94FC010C9414020C94F50120
:1000F0000C94D5020C940C020C9428020C948102EE
:100100000C9406020C94E9020C94C7020C941002A1
:100110000C94ED010C941E020C9427020C94220204
:100120000C941A020C943E040C9465030C94F10197
:100130000C94F9010C94E7010C9402020C942C022B
:100140000C9418030C94F8020000210024002700EE
:100150002A002D00300033000101000004010701D6
:100160000A01000020002300260029002C002F0097
:100170003200000100000301060109010000220015
:10018000250028002B002E00310034000201000061
:10019000050108010B010505050507050808080804
:1001A000020202020A0A080804040404010101010F
:1001B000010101010303030303030303040707070A
:1001C0000C0C0C0C0C0C0C0C0202020206060606AF
:1001D000060606060B0B0B0B0B0B0B0B010210207C
:1001E000200808102040102040800201020108046D
:1001F0000201010204081020408080402010080401
:100200000201800402018040201008040201080459
:10021000020101020408102040800102040810209D
:10022000408000000A0B02090C0D0E0807030401B0
:1002300000000000000000000000000000000000BE
:10024000000000000000000000000000000012118B
:10025000100000000000000000000000000000008E
:1002600000000000000000003E0411241FBECFEF7C
:10027000D1E2DEBFCDBF00E00CBF12E0A0E0B2E0F3
:10028000E8E8FBE000E00BBF02C007900D92A63348
:10029000B107D9F722E0A6E3B2E001C01D92AE3D5E
:1002A000B207E1F711E0C5E3D1E000E006C0219715
:1002B0000109802FFE010E94A805C433D10780E008
:1002C0000807A9F70E946B040C94B0050C94000079
:1002D000CF93DF9300D00F92CDB7DEB73FB7F8943E
:1002E0008091D5029091D602A091D702B091D80208
:1002F00026B5A89B05C02F3F19F00196A11DB11D81
:100300003FBFBA2FA92F982F8827820F911DA11DBB
:10031000B11D9C01AD0162E0220F331F441F551F28
:100320006A95D1F7CA01B9010F900F900F900F9005
:10033000DF91CF9108958F929F92AF92BF92CF920B
:10034000DF92EF92FF92CF93DF9300D00F92CDB761
:10035000DEB74B015C010E9468016B017C010E94C9
:100360006801DC01CB018C199D09AE09BF09883EEB
:100370009340A105B10598F321E0821A9108A108E4
:10038000B10888EEC80E83E0D81EE11CF11C811470
:100390009104A104B10419F70F900F900F900F90E2
:1003A000DF91CF91FF90EF90DF90CF90BF90AF9013
:1003B0009F908F9008958150823108F048C0E82FB7
:1003C000F0E08827EE54FA4F8F4F0C94A8058091E7
:1003D00080008F77809380000895809180008F7DCA
:1003E000F9CF80918000877FF5CF84B58F7784BD6A
:1003F000089584B58F7DFBCF8091B0008F77809377
:10040000B00008958091B0008F7DF9CF8091900069
:100410008F77809390000895809190008F7DF9CF21
:1004200080919000877FF5CF8091A0008F77809397
:10043000A00008958091A0008F7DF9CF8091A00049
:10044000877FF5CF809120018F77809320010895D9
:10045000809120018F7DF9CF80912001877FF5CF9A
:100460001F93CF93DF93162F282F30E0F901EE5D15
:10047000FD4F8491F901E452FE4FD491F901EA56FF
:10048000FE4FC491CC23A1F081110E94DB01EC2F1F
:10049000F0E0EE0FFF1FE458FE4FA591B4919FB717
:1004A000F8948C91111108C0D095D823DC939FBF8C
:1004B000DF91CF911F9108958D2B8C93F8CFFC0184
:1004C000848DDF01A80FB11DA35ABF4F2C91848DDD
:1004D00090E001968F739927848FA689B7892C9312
:1004E000A089B1898C91837080648C93938D848D65
:1004F000981306C00288F389E02D80818F7D808368
:100500000895FC01818D228D90E0805C9F4F821BBD
:1005100091098F739927089588E392E00E948102E0
:100520009C0181E0232B09F480E0089580E090E0B5
:10053000892B29F00E948C0281110E94000080E02A
:1005400090E0892B49F080E090E0892B29F00E940F
:10055000000081110E94000080E090E0892B49F0AA
:1005600080E090E0892B29F00E94000081110E9418
:10057000000080E090E0892B49F080E090E0892B3A
:1005800029F00E94000081110C9400000895FC01E4
:10059000918D828D981731F0828DE80FF11D858D38
:1005A00090E008958FEF9FEF0895FC01918D828D6B
:1005B000981761F0828DDF01A80FB11D5D968C91B7
:1005C000928D9F5F9F73928F90E008958FEF9FEFC2
:1005D0000895FC01538D448D252F30E0842F90E049
:1005E000821B930B541710F0CF960895019708952E
:1005F000CF93DF93EC01888D81110FC0DF91CF91F4
:1006000008950FB607FC0DC08C9185FF08C080814E
:1006100085FF03C0CE010E945F02AA89BB89E889D9
:10062000F9898C9185FDEDCF808186FFEACFE6CFF9
:10063000EF92FF920F931F93CF93DF93EC01F62E6F
:1006400081E0888F9B8D8C8D98131AC0E889F98979
:10065000808185FF15C09FB7F894EE89FF8960837C
:10066000E889F98980818370806480839FBF81E0FD
:1006700090E0DF91CF911F910F91FF90EF9008953F
:100680000B8D10E00F5F1F4F0F731127E02E8C8D25
:100690008E1579F08B8DFE01E80FF11DE35AFF4FA7
:1006A000F0829FB7F8940B8FEA89FB898081806282
:1006B000DCCF0FB607FCEBCFE889F989808185FF95
:1006C000E6CFCE010E945F02E2CFCF92DF92EF929F
:1006D000FF920F931F93CF93DF937C016A0110E089
:1006E00000E00C151D0551F4C801DF91CF911F9159
:1006F0000F91FF90EF90DF90CF900895EB01D7011D
:10070000ED91FC910190F081E02D6991C70119955F
:10071000892B51F30F5F1F4FBE01E3CFBC01FC01DA
:1007200001900020E9F73197AF01481B590B88E38E
:1007300092E00C9465031F921FB61F9211242F9311
:100740003F938F939F93AF93BF938091DA029091E1
:10075000DB02A091DC02B091DD023091D90223E0EE
:10076000230F2D3750F50196A11DB11D2093D902FD
:100770008093DA029093DB02A093DC02B093DD0257
:100780008091D5029091D602A091D702B091D80263
:100790000196A11DB11D8093D5029093D602A0931E
:1007A000D702B093D802BF91AF919F918F913F91A3
:1007B0002F911F901FBE1F90189526E8230F0296B9
:1007C000A11DB11DD3CF2F932FB72F932BB72F93ED
:1007D0008F939F93EF93FF93E0914802F09149022A
:1007E0008081E0914E02F0914F0282FD1BC090810A
:1007F000809151028F5F8F7320915202821741F0D6
:10080000E0915102F0E0E85CFD4F958F809351023A
:10081000FF91EF919F918F912F912BBF2F912FBF20
:100820002F9118958081F4CF1F920F920FB60F92DF
:1008300011240BB60F922F933F934F935F936F93B7
:100840007F938F939F93AF93BF93EF93FF9388E32F
:1008500092E00E945F02FF91EF91BF91AF919F9153
:100860008F917F916F915F914F913F912F910F9059
:100870000BBE0F900FBE0F901F901895E8E3F2E0AB
:100880001382128288EE93E0A0E0B0E08483958327
:10089000A683B78384E092E09183808385EC90E027
:1008A0009587848784EC90E09787868780EC90E03A
:1008B000918B808B81EC90E0938B828B82EC90E02B
:1008C000958B848B86EC90E0978B868B118E128EA5
:1008D000138E148E0895789484B5826084BD84B597
:1008E000816084BD85B5826085BD85B5816085BD2B
:1008F00080916E00816080936E00109281008091E3
:10090000810082608093810080918100816080936A
:100910008100809180008160809380008091B1008F
:1009200084608093B1008091B00081608093B000BA
:10093000809191008260809391008091910081600C
:1009400080939100809190008160809390008091CD
:10095000A10082608093A1008091A10081608093BA
:10096000A1008091A00081608093A000809121016E
:100970008260809321018091210181608093210117
:100980008091200181608093200180917A008460B1
:1009900080937A0080917A00826080937A008091BF
:1009A0007A00816080937A0080917A0080688093D9
:1009B0007A001092C100E9EEF1E02491E3EAF1E05F
:1009C00084918823A1F090E0880F991FFC01E85BD7
:1009D000FE4FA591B491FC01E458FE4F859194918E
:1009E0008FB7F8949C91E22FE92BEC938FBFCEED5B
:1009F000D1E0FE01249108E911E0F80184918823F7
:100A0000C9F090E0880F991FFC01E85BFE4FA591AB
:100A1000B491FC01E458FE4F459154913FB7F894CE
:100A20009C91822F809598239C93FA019081892331
:100A300080833FBFE0914802F091490282E08083C9
:100A4000E0914402F09145021082E0914602F0915B
:100A500047028FEC808310925002E0914C02F0919B
:100A60004D0286E08083E0914A02F0914B02808142
:100A700080618083E0914A02F0914B02808188601E
:100A80008083E0914A02F0914B02808180688083EC
:100A9000E0914A02F0914B0280818F7D808394E245
:100AA000E92E92E0F92ECC24C394D12CF701849145
:100AB000FE01A490F801B490BB2069F181110E945D
:100AC000DB01EB2DF0E0EE0FFF1FEE59FE4FA5917D
:100AD000B4918C91A822F9F0A0903602B090370220
:100AE00061E08DE00E94300264E670E080E090E01A
:100AF0000E949B01AB2861F482E192E00E948E0388
:100B000083E292E00E948E03D0923702C0923602B6
:100B10000E949602CBCF60E08DE00E94300268EC2C
:100B200070E080E090E00E949B01809136029091FD
:100B30003702019769F786E292E00E948E0383E212
:100B400092E00E948E031092370210923602E0CF9C
:100B5000EE0FFF1F881F8BBF0790F691E02D1994B1
:100B6000F894FFCFF501F901E701ED01F10127024A
:100B7000FC01020206020C02100214021A021E02FA
:080B80002702220228022C02C8
:100B88000000000018036503E902F8028102D5029B
:100B9800C7024D6F74696F6E206465746563746510
:100BA8006421000D0A004D6F74696F6E2073746FB5
:060BB8007070656421006D
:00000001FF
