:100000000C9435010C9466010C9466010C94660105
:100010000C9466010C9466010C9466010C946601C4
:100020000C9466010C9466010C9466010C946601B4
:100030000C9466010C9466010C9466010C946601A4
:100040000C9466010C9466010C9466010C94660194
:100050000C9466010C9466010C9466010C941808CB
:100060000C9466010C9460080C9491080C94660141
:100070000C9466010C9466010C9466010C94660164
:100080000C9466010C9466010C9466010C94660154
:100090000C9466010C9466010C9466010C94660144
:1000A0000C9466010C9466010C9466010C94660134
:1000B0000C9466010C9466010C9466010C94660124
:1000C0000C9466010C9466010C9466010C94660114
:1000D0000C9466010C9466010C9466010C94660104
:1000E0000C9466010C9496040C946D040C949B0D76
:1000F0000C9488040C947A040C9465040C946104A8
:100100000C9480040C9419040C949C040C948E049C
:100110000C9492040C9472020C942C020C94100314
:100120000C9469040C9476040C94A3020C9484043B
:100130000C941E040C9480020C9470040C94A00483
:100140000C9494020C94C3020000200023002600AB
:1001500029002C002F0032000001000003010601DD
:10016000090100000A0B02090C0D0E080703040127
:10017000000000000000000000000000000000007F
:10018000000000000000000000000000000012114C
:10019000100000000000000000000000000000004F
:1001A00000000000000000000000220025002800E0
:1001B0002B002E003100340002010000050108016F
:1001C0000B0100002100240027002A002D00300030
:1001D000330001010000040107010A0105050505BE
:1001E000070508080808020202020A0A08080404AF
:1001F00004040101010101010101030303030303DD
:100200000303040707070C0C0C0C0C0C0C0C02026B
:10021000020206060606060606060B0B0B0B0B0B68
:100220000B0B0102102020080810204010204080F5
:1002300002010201080402010102040810204080AA
:100240008040201008040201800402018040201038
:100250000804020108040201010204081020408081
:1002600001020408102040809B0D11241FBECFEF17
:10027000D1E2DEBFCDBF00E00CBF12E0A0E0B2E0F3
:10028000E6E9F0E200E00BBF02C007900D92A6384D
:10029000B107D9F723E0A6E8B2E001C01D92AF3361
:1002A000B207E1F711E0C5E3D1E000E006C0219715
:1002B0000109802FFE010E942F10C433D10780E076
:1002C0000807A9F70E94BB080C9437100C94000093
:1002D000CF93DF9300D00F92CDB7DEB73FB7F8943E
:1002E0008091360390913703A0913803B091390380
:1002F00026B5A89B05C02F3F19F00196A11DB11D81
:100300003FBFBA2FA92F982F8827820F911DA11DBB
:10031000B11D9C01AD0162E0220F331F441F551F28
:100320006A95D1F7CA01B9010F900F900F900F9005
:10033000DF91CF9108958F929F92AF92BF92CF920B
:10034000DF92EF92FF92CF93DF9300D00F92CDB761
:10035000DEB74B015C010E9468016B017C010E94C9
:100360006801DC01CB018C199D09AE09BF09883EEB
:100370009340A105B10598F321E0821A9108A108E4
:10038000B10888EEC80E83E0D81EE11CF11C811470
:100390009104A104B10419F70F900F900F900F90E2
:1003A000DF91CF91FF90EF90DF90CF90BF90AF9013
:1003B0009F908F900895CF93DF9390E0FC01EE5DC6
:1003C000FD4F249184529E4FFC0184918823D1F0EB
:1003D00090E0880F991FFC01EE53FE4FA591B49158
:1003E000FC01E855FE4FC591D4919FB7623069F486
:1003F000F8943C91822F809583238C938881822B63
:1004000088839FBFDF91CF910895F8948C91822BC0
:100410008C93F7CFFC01848DDF01A80FB11DA35A87
:10042000BF4F2C91848D90E001968F739927848F14
:10043000A689B7892C93A089B1898C918370806437
:100440008C93938D848D981306C00288F389E02DD8
:1004500080818F7D80830895FC01818D228D90E0C5
:10046000805C9F4F821B91098F739927089589E9BA
:1004700092E00E942C029C0181E0232B09F480E091
:10048000089580E090E0892B29F00E9437028111C5
:100490000E94000080E090E0892B49F080E090E02D
:1004A000892B29F00E94000081110E94000080E049
:1004B00090E0892B49F080E090E0892B29F00E94A0
:1004C000000081110E94000080E090E0892B49F03B
:1004D00080E090E0892B29F00E94000081110C94AB
:1004E00000000895FC01918D828D981731F0828D66
:1004F000E80FF11D858D90E008958FEF9FEF08952F
:10050000FC01918D828D981761F0828DDF01A80F1B
:10051000B11D5D968C91928D9F5F9F73928F90E03D
:1005200008958FEF9FEF0895FC01538D448D252F83
:1005300030E0842F90E0821B930B541710F0CF967D
:10054000089501970895CF93DF93EC01888D811171
:100550000FC0DF91CF9108950FB607FC0DC08C91AD
:1005600085FF08C0808185FF03C0CE010E940A027A
:10057000AA89BB89E889F9898C9185FDEDCF8081B5
:1005800086FFEACFE6CFEF92FF920F931F93CF93B0
:10059000DF93EC01F62E81E0888F9B8D8C8D981374
:1005A0001AC0E889F989808185FF15C09FB7F89442
:1005B000EE89FF896083E889F9898081837080648E
:1005C00080839FBF81E090E0DF91CF911F910F91D9
:1005D000FF90EF9008950B8D10E00F5F1F4F0F738A
:1005E0001127E02E8C8D8E1579F08B8DFE01E80F92
:1005F000F11DE35AFF4FF0829FB7F8940B8FEA8901
:10060000FB8980818062DCCF0FB607FCEBCFE889E5
:10061000F989808185FFE6CFCE010E940A02E2CFF0
:10062000CF92DF92EF92FF920F931F93CF93DF93BE
:100630007C016A0110E000E00C151D0551F4C801B1
:10064000DF91CF911F910F91FF90EF90DF90CF90AE
:100650000895EB01D701ED91FC910190F081E02D1F
:100660006991C7011995892B51F30F5F1F4FBE0187
:10067000E3CF8F929F92AF92BF92CF92DF92EF9291
:10068000FF92CF93DF9300D00F92CDB7DEB760918A
:100690008D02362F811101C030E080918E0290E0F2
:1006A000880F991F885B9E4FC0909302D090940250
:1006B000E0909502F090960250E040E0FC01A59198
:1006C000B4912C914A01B12CA12C89829A82AB82DF
:1006D000BC822623231799F069817A818B819C81C2
:1006E0000F900F900F900F90DF91CF91FF90EF90B0
:1006F000DF90CF90BF90AF909F908F9008954F5F05
:100700005F4F89809A80AB80BC808C149D04AE04BE
:10071000BF04A0F28FEF9FEFDC0189839A83AB8344
:10072000BC83DACF8F929F92AF92BF92EF92FF92EB
:100730000F931F93CF93DF93CDB7DEB7C454D1404F
:100740000FB6F894DEBF0FBECDBF2FB7F8948091DF
:100750003B0390913C03A0913D03B0913E032FBF1A
:1007600040918F025091900260919102709192029B
:100770008C019D01041B150B260B370BB901A80139
:10078000403D574061057105A0F480919702CC5B14
:10079000DE4F0FB6F894DEBF0FBECDBFDF91CF9115
:1007A0001F910F91FF90EF90BF90AF909F908F900F
:1007B000089580938F0290939002A0939102B0933A
:1007C000920210928A02109289021092880210926C
:1007D00087021092860262E080918B020E94DB0108
:1007E00061E070E080E090E00E949B0161E0809118
:1007F0008B020E94DB0120918B0230E0F901EE595F
:10080000FE4F8491F901EE5DFD4F949124523E4FCD
:10081000F9012491222309F1882381F0815082314A
:1008200068F4E82FF0E08827E75CFF4E8F4F0C94C8
:100830002F10809180008F7780938000E22FF0E06E
:10084000EE0FFF1FE855FE4FA591B4918FB7F894B6
:100850002C91909592239C938FBF80918C0285510F
:10086000990B029708F070C08BE291E10197F1F7C4
:1008700062E080918B020E94DB0120919802822F1E
:1008800090E0223038F0880F991F880F991F059744
:100890000197F1F7F89480E00E943903CF5BDE4FB7
:1008A000688379838A839B83C154D1406F3F7F4F94
:1008B0008F4F9F4F09F04FC010929702789480E0BD
:1008C00066CF809180008F7DB7CF80918000877F39
:1008D000B3CF84B58F7784BDB1CF84B58F7DFBCF87
:1008E0008091B0008F778093B000A8CF8091B00046
:1008F0008F7DF9CF809190008F77809390009ECF6D
:10090000809190008F7DF9CF80919000877FF5CF07
:100910008091A0008F778093A00090CF8091A0005D
:100920008F7DF9CF8091A000877FF5CF8091200146
:100930008F778093200182CF809120018F7DF9CF26
:1009400080912001877FF5CF64E170E080E090E046
:100950000E949B018DCF81E00E943903CF5BDE4F67
:10096000688379838A839B83C154D1406F3F7F4FD3
:100970008F4F9F4F09F4A0CF9E012F5F3F4F79010A
:100980005E013FEBA31A3EEFB30A870180E00E94AD
:100990003903D8016D937D938D939C93139781E0D8
:1009A0000E943903F8016483758386839783085F07
:1009B0001F4FA016B10651F7789430E020E0D70120
:1009C0008D909D90AD90BC90139714964D915D9134
:1009D0006D917C911797BFEF8B169B06AB06BB06FC
:1009E00031F04F3FEFEF5E076E077E0719F410926C
:1009F000970265CFF90183E0F595E7958A95E1F7D0
:100A0000EA57FD4F8081880F84169506A606B70623
:100A100010F180832F5F3F4FF8E0EF0EF11C28327A
:100A2000310569F620918A028091860290918702B1
:100A3000890F9927991F30918802830F911D30915A
:100A40008902830F911D99272817190681F681E0E5
:100A5000809397029CCE8160DCCFEF92FF920F9340
:100A60001F93CF93DF9300D000D0CDB7DEB7F82E21
:100A70000E949203882309F41EC190918C029C303D
:100A800009F4C9C060F49B3009F443C020E030E0B1
:100A900040EC5FE729833A834B835C83ABC095517D
:100AA0009230A0F7909188029D83292F30E0322F59
:100AB000222722273F7780918902282BC901B0E0A5
:100AC000A0E089839A83AB83BC83BC01CD010E94E3
:100AD0004F0F2DEC3CEC4CEC5DE369837A838B8308
:100AE0009C8369817A818B819C810E94750E462F3F
:100AF000572FBC0149835A836B837C839D8197FF69
:100B000058C09A01AB01505829833A834B835C83C8
:100B100050C080918802282F30E050E040E02983C7
:100B20003A834B835C83CA01B9010E944F0F8B014A
:100B30008E839D83E0908902E7FE0BC09B01AC0190
:100B400060E070E080E89FEB0E94E20E8B018E83F4
:100B50009D838E2D8F70282F30E050E040E0298358
:100B60003A834B835C83CA01B9010E94510F2DEC7B
:100B70003CEC4CEC5DE369837A838B839C836981D5
:100B80007A818B819C810E94750E98014E815D81D6
:100B900069837A838B839C8369817A818B819C8131
:100BA0000E94E30E462F572FBC0149835A836B8363
:100BB0007C83FF20F9F026E636E646EE5FE36981A6
:100BC0007A818B819C810E94750E20E030E040E0AC
:100BD00052E469837A838B839C8369817A818B81D8
:100BE0009C810E94E30E462F572FBC0149835A83F4
:100BF0006B837C8369817A818B819C8126960FB679
:100C0000F894DEBF0FBECDBFDF91CF911F910F9142
:100C1000FF90EF900895309188023D83832F90E0FC
:100C2000B0E0A0E089839A83AB83BC83BC01CD0193
:100C30000E944F0FE62E072F182F9E838091890266
:100C40008F70282F30E050E040E029833A834B83B7
:100C50005C83CA01B9010E94510F2DEC3CEC4CECB5
:100C60005DE369837A838B839C8369817A818B813D
:100C70009C810E94750E2E2D302F412F5E8169833D
:100C80007A838B839C8369817A818B819C810E948A
:100C9000E30E462F572FBC0149835A836B837C8315
:100CA0003D8137FF86CFDC01CA01B05889839A8322
:100CB000AB83BC837ECF80E090E0A0ECBFE789836C
:100CC0009A83AB83BC8396CFBC01009761F0FC0193
:100CD00001900020E9F73197AF01481B590B89E9D2
:100CE00092E00C94100308950E94640682E192E061
:100CF0000C9464062F923F924F925F926F927F9274
:100D00008F929F92AF92BF92CF92DF92EF92FF921B
:100D10000F931F93CF93DF93CDB7DEB7A9970FB68D
:100D2000F894DEBF0FBECDBF462F572FBC014AA39C
:100D30005BA36CA37DA39A01AC01B9010E940810CA
:100D40008823E1F085E192E0A9960FB6F894DEBF22
:100D50000FBECDBFDF91CF911F910F91FF90EF900C
:100D6000DF90CF90BF90AF909F908F907F906F90CB
:100D70005F904F903F902F900C9464068AA19BA1A6
:100D8000ACA1BDA1BF778EA39FA3A8A7B9A72FEF42
:100D90003FEF4FE75FE7BC01CD010E9408108111D2
:100DA0000FC02FEF3FEF4FE75FE76EA17FA188A550
:100DB00099A50E94AB0F18161CF489E192E0C4CFEC
:100DC0002FEF3FEF4FE75FE46AA17BA18CA19DA1CC
:100DD0000E94031018161CF48DE192E0B5CF2FEF9E
:100DE0003FEF4FE75FEC6AA17BA18CA19DA10E9420
:100DF000AB0F87FDF1CF20E030E0A9016AA17BA114
:100E00008CA19DA10E94AB0F87FF0EC06DE289E906
:100E100092E00E94C3028AA19BA1ACA1BDA1B058DF
:100E20008AA39BA3ACA3BDA32AE037ED43EA5BE30F
:100E30006AA17BA18CA19DA10E94E30E5B018C01A4
:100E40006AA3BBA28CA31DA36AA17BA18CA19DA1B7
:100E50000E94B00F6B017C010E944F0F9B01AC01FF
:100E60006AA17BA18CA19DA10E94E20E3B014C01D5
:100E700019A25E0191E2A90EB11C85012AE0222E81
:100E8000312C412C512CB601C701A20191010E94C5
:100E90000D10C601D70169017A01605DF501629309
:100EA0005F010A97A105B10570F7CF010E946406A2
:100EB0006EE289E992E00E94C30220E030E040E265
:100EC00051E46AA27BA28CA29DA26AA17BA18CA103
:100ED0009DA10E94750E3B014C016AA37BA28CA3CD
:100EE0009DA26AA17BA18CA19DA10E94B00F6B0164
:100EF000CB01B0E0A0E08AA39BA3ACA3BDA319A241
:100F000058019AE0292E312C412C512C6AA17BA149
:100F10008CA19DA1A20191010E940D108AA19BA10B
:100F2000ACA1BDA12AA33BA34CA35DA3605DF501C9
:100F300062935F010A97A105B10540F7CF010E94B6
:100F40006406C601B0E0A0E08AA39BA3ACA3BDA346
:100F5000B601CD010E944F0F9B01AC016AA27BA29A
:100F60008CA29DA26AA17BA18CA19DA10E94E20EF0
:100F700020E030E040E251E46AA37BA38CA39DA370
:100F80006AA17BA18CA19DA10E94750E6AA37BA37F
:100F90008CA39DA36AA17BA18CA19DA10E94B00FEF
:100FA0006AA37BA38CA39DA3AAA1BBA1CD01B0E0A2
:100FB000A0E08AA39BA3ACA3BDA319A278018AE0F9
:100FC000882E912CA12CB12C6AA17BA18CA19DA172
:100FD000A50194010E940D108AA19BA1ACA1BDA105
:100FE0002AA33BA34CA35DA3605DF70162937F013D
:100FF0000A97A105B10540F7CF010E946406A996A2
:101000000FB6F894DEBF0FBECDBFDF91CF911F9119
:101010000F91FF90EF90DF90CF90BF90AF909F9097
:101020008F907F906F905F904F903F902F9008959A
:101030001F921FB61F9211242F933F938F939F935C
:10104000AF93BF9380913B0390913C03A0913D03EC
:10105000B0913E0330913A0323E0230F2D3750F532
:101060000196A11DB11D20933A0380933B039093F9
:101070003C03A0933D03B0933E03809136039091CF
:101080003703A0913803B09139030196A11DB11D1A
:101090008093360390933703A0933803B0933903BA
:1010A000BF91AF919F918F913F912F911F901FBE44
:1010B0001F90189526E8230F0296A11DB11DD3CFCE
:1010C0002F932FB72F932BB72F938F939F93EF933C
:1010D000FF93E091A902F091AA028081E091AF0212
:1010E000F091B00282FD1BC090818091B2028F5FAF
:1010F0008F732091B302821741F0E091B202F0E0C9
:10110000E756FD4F958F8093B202FF91EF919F912B
:101110008F912F912BBF2F912FBF2F9118958081E9
:10112000F4CF1F920F920FB60F9211240BB60F92AD
:101130002F933F934F935F936F937F938F939F93DF
:10114000AF93BF93EF93FF9389E992E00E940A0265
:10115000FF91EF91BF91AF919F918F917F916F918F
:101160005F914F913F912F910F900BBE0F900FBE4B
:101170000F901F901895CDB7DEB72C970FB6F89447
:10118000DEBF0FBECDBF789484B5826084BD84B5C8
:10119000816084BD85B5826085BD85B5816085BD72
:1011A00080916E00816080936E001092810080912A
:1011B00081008260809381008091810081608093B2
:1011C0008100809180008160809380008091B100D7
:1011D00084608093B1008091B00081608093B00002
:1011E0008091910082608093910080919100816054
:1011F0008093910080919000816080939000809115
:10120000A10082608093A1008091A1008160809301
:10121000A1008091A00081608093A00080912101B5
:10122000826080932101809121018160809321015E
:101230008091200181608093200180917A008460F8
:1012400080937A0080917A00826080937A00809106
:101250007A00816080937A0080917A008068809320
:101260007A001092C100E091A902F091AA0282E0F6
:101270008083E091A502F091A6021082E091A7027E
:10128000F091A8028FEC80831092B102E091AD0240
:10129000F091AE0286E08083E091AB02F091AC0267
:1012A000808180618083E091AB02F091AC0280810B
:1012B00088608083E091AB02F091AC02808180680D
:1012C0008083E091AB02F091AC0280818F7D8083BE
:1012D00081E292E00E94740662E080918B020E949B
:1012E000DB012FB7F89480913B0390913C03A091D0
:1012F0003D03B0913E032FBF805D9740A109B10926
:1013000080938F0290939002A0939102B0939202E7
:1013100087E38093980260ED77E080E090E00E94A0
:101320009B010E949203882331F080918C028D30C2
:1013300038F48B3048F51B861C8610EC0FE763C031
:1013400085518230C0F7809186029091870298275C
:10135000892798279C0150E040E029833A834B83FA
:101360005C83CA01B9010E944F0F2DEC3CEC4CECA0
:101370005DE369837A838B839C8369817A818B8126
:101380009C810E94750E3BC080918702282F30E01F
:1013900050E040E029833A834B835C83CA01B90162
:1013A0000E94510F2DEC3CEC4CEC5DE369837A8399
:1013B0008B839C8369817A818B819C810E94750ECD
:1013C0008B018E839D8380918602282F30E050E030
:1013D00040E029833A834B835C83CA01B9010E94B0
:1013E000510F9B01AC0109831A838E818B839D81F0
:1013F0009C8369817A818B819C810E94E30E6B873B
:101400007C87182F092F80E00E942D056F83788735
:1014100089879A8781E00E942D05F62EE72ED82E27
:10142000C92E7B856C85C801272F362F492F502F59
:101430008F81898398859A83A985AB83BA85BC837C
:1014400069817A818B819C810E940810811110C072
:101450002F2D3E2D4D2D5C2DF982EA82DB82CC8230
:1014600069817A818B819C810E940810882339F0E0
:101470008DE292E00E9474060E9441024CCF20E06F
:1014800030E048E852E4F982EA82DB82CC8269816A
:101490007A818B819C810E94E20E2AE939E949E92F
:1014A0005FE369837A838B839C8369817A818B81F3
:1014B0009C810E94750E4B015C0120E030E044E706
:1014C00052E4F982EA82DB82CC8269817A818B8163
:1014D0009C810E94E30E9B01AC0189829A82AB82BF
:1014E000BC8269817A818B819C810E94E30E4B01D1
:1014F0005C0122E133E840EC5DE37B856C85C8014B
:1015000079836A839B830C8369817A818B819C8137
:101510000E94750E9B01AC0189829A82AB82BC82CB
:1015200069817A818B819C810E94E30E20E030E00A
:1015300040E05FE369837A838B839C8369817A814E
:101540008B819C810E94750EB62EA72E982E892E17
:1015500020E030E04EE952E469837A838B839C83F8
:1015600069817A818B819C810E94031018160CF08E
:10157000FCC12F2D3E2D4D2D5C2DF982EA82DB82A0
:10158000CC8269817A818B819C810E94750E3B019E
:101590004C017B856C85C801272F362F492F502F92
:1015A00079836A839B830C8369817A818B819C8197
:1015B0000E94750E5B018D839E8321E133E243E03F
:1015C00050E4F982EA82DB82CC8269817A818B8164
:1015D0009C810E94750E29E134E849E252E4698356
:1015E0007A838B839C8369817A818B819C810E9421
:1015F000E20E1B012C0126E13BE442E251E47B8533
:101600006C85C80179836A839B830C8369817A81A5
:101610008B819C810E94750E9B01AC0129823A82CC
:101620004B825C8269817A818B819C810E94E30E6E
:101630001B012C0128E436E246E65EEBF982EA82E1
:10164000DB82CC8269817A818B819C810E94750EBC
:10165000BB85AC85F8012B2F3A2F4F2F502F698374
:101660007A838B839C8369817A818B819C810E94A0
:10167000750E9B01AC0129823A824B825C826981A2
:101680007A818B819C810E94E30E1B012C0120EE4C
:101690003FE040EE5BEB69827A828B829C826981BB
:1016A0007A818B819C810E94750E9B01AC012982FD
:1016B0003A824B825C8269817A818B819C810E9413
:1016C000E30E1B012C0128EF37E840E65DEBA98211
:1016D000BA828D818B839E819C8369817A818B8183
:1016E0009C810E94750E9B01AC0129823A824B823B
:1016F0005C8269817A818B819C810E94E30E1B014F
:101700002C012CEA3DE041EA5AE369827A828B821D
:101710009C8269817A818B819C810E94750EBB8538
:10172000AC85F8012B2F3A2F4F2F502F69837A83E6
:101730008B839C8369817A818B819C810E94750E49
:101740009B01AC0129823A824B825C8269817A8159
:101750008B819C810E94E30E1B012C0128EC3FE849
:101760004FE55AE3F982EA82DB82CC8269817A8191
:101770008B819C810E94750E95014D815E816983EC
:101780007A838B839C8369817A818B819C810E947F
:10179000750E9B01AC0129823A824B825C82698181
:1017A0007A818B819C810E94E30E1B012C0121EF29
:1017B0003BE845E056EB69827A828B829C826981A4
:1017C0007A818B819C810E94750E95014D815E818D
:1017D00069837A838B839C8369817A818B819C81E5
:1017E0000E94750E9B01AC0129823A824B825C8279
:1017F00069817A818B819C810E94E30EB62EA72E8F
:10180000982E892E20E030E040E551E47B856C8500
:10181000C80179836A839B830C8369817A818B8178
:101820009C810E94AB0F87FFEAC020E030E040EAD5
:1018300052E4F982EA82DB82CC8269817A818B81EF
:101840009C810E94031087FDDAC020E030E040EE6A
:1018500052E469817A818B819C810E94AB0F1816BA
:101860000CF454C17B856C85C801272F362F492F76
:10187000502F60E070E080E591E40E94E20E20E0ED
:1018800030E040E85EE369837A838B839C836981DF
:101890007A818B819C810E94750E2B013C0120E096
:1018A00030E04EEB52E4F982EA82DB82CC8269813D
:1018B0007A818B819C810E94E20EAB01BC0149833D
:1018C0005A836B837C8320E030E0A90169817A81AF
:1018D0008B819C810E94031018164CF029813A815B
:1018E0004B815C81505829833A834B835C832981E7
:1018F0003A814B815C8160E070E088E891E40E946D
:10190000E20E2EE33DEE40E75DE369837A838B834D
:101910009C8369817A818B819C810E94750E698389
:101920007A838B839C8369817A818B819C810E94DD
:10193000EE0D9B01AC0149825A826B827C826981E7
:101940007A818B819C810E94750E9B01AC01B982CA
:10195000AA829B828C8269817A818B819C810E9480
:10196000E20EB62EA72E982E892E8DE492E00E94CC
:1019700064063B852C85C80139832A839B830C83AD
:1019800069817A818B819C810E947A0688E592E048
:101990000E9464068CE592E00E9464063F813983D0
:1019A00048854A8359855B838A858C8369817A81DE
:1019B0008B819C810E947A068AE692E00E946406EE
:1019C000F982EA82DB82CC8269817A818B819C8177
:1019D0000E947A068FE692E00E94640684E792E015
:1019E0000E946406B982AA829B828C8269817A8174
:1019F0008B819C810E947A0681E892E03BCD20E0B9
:101A000030E04AEA52E47B856C85C80179836A83B9
:101A10009B830C8369817A818B819C810E94031056
:101A200018160CF0A2CF20E030E040EA52E4F98230
:101A3000EA82DB82CC8269817A818B819C810E94DF
:101A4000031087FD92CF20E030E04EEA52E4F982A5
:101A5000EA82DB82CC8269817A818B819C810E94BF
:101A6000AB0F18160CF481CF20E030E04AEA52E4C4
:101A70007B856C85C80179836A839B830C8369812C
:101A80007A818B819C810E94E20E2DEC3CEC4CEC27
:101A90005DE369837A838B839C8369817A818B81FF
:101AA0009C810E94750E2B013C012F2D3E2D4D2D4A
:101AB0005C2D60E070E08EEA92E40E94E20E2DEC74
:101AC0003CEC4CE45EE369837A838B839C8369817D
:101AD0007A818B819C810E94750E9B01AC014982A9
:101AE0005A826B827C8269817A818B819C810E947F
:101AF000750E9B01AC01B982AA829B828C8269819E
:101B00007A818B819C810E94E30E2BCF20E030E014
:101B10004AEA52E47B856C85C80179836A839B839A
:101B20000C8369817A818B819C810E940310181635
:101B30000CF489CF1ACFE9E9F2E01382128288EE21
:101B400093E0A0E0B0E084839583A683B78384E02C
:101B500092E09183808385EC90E09587848784EC84
:101B600090E09787868780EC90E0918B808B81EC6A
:101B700090E0938B828B82EC90E0958B848B86EC4B
:101B800090E0978B868B118E128E138E148EA6E8A2
:101B9000B2E082E015968C9315978BE016968C93A5
:101BA0001697E4E2F2E0E4911796EC931797EEEDC6
:101BB000F1E0E4911896EC93189740E85EE360E05A
:101BC00070E01D964D935D936D937C9350970895AF
:101BD00019F416F40C94420E0C94340E0E94540E18
:101BE000B8F39923C9F3B6F39F57550B87FF0E94AB
:101BF000450E0024A0E640EA90018058569597953E
:101C000028F4805C660F771F881F20F0261737079F
:101C1000480730F4621B730B840B202931294A2BAF
:101C2000A69517940794202531254A2758F7660F63
:101C3000771F881F20F026173707480730F4620BFC
:101C4000730B840B200D311D411DA09581F7B90147
:101C5000842F9158880F96958795089597F99F67D7
:101C600080E870E060E008959F3F31F0915020F4EB
:101C7000879577956795B795880F911D9695879568
:101C800097F908959FEF80EC089591505040660FAA
:101C9000771F881FD2F7089557FD9058440F551F9E
:101CA00059F05F3F71F04795880F97FB991F61F0DE
:101CB0009F3F79F087950895121613061406551F55
:101CC000F2CF4695F1DF08C0161617061806991FC1
:101CD000F1CF86957105610508940895E894BB27B6
:101CE00066277727CB0197F908950E94880E0C94F8
:101CF0009A0F0E948C0F38F00E94930F20F09523CA
:101D000011F00C942E0E0C94420E11240C946F0EB4
:101D10000E944C0E70F3959FC1F3950F50E0551F34
:101D2000629FF001729FBB27F00DB11D639FAA2730
:101D3000F00DB11DAA1F649F6627B00DA11D661F7F
:101D4000829F2227B00DA11D621F739FB00DA11DA0
:101D5000621F839FA00D611D221F749F3327A00D5A
:101D6000611D231F849F600D211D822F762F6A2FF6
:101D700011249F5750409AF0F1F088234AF0EE0F5B
:101D8000FF1FBB1F661F771F881F91505040A9F788
:101D90009E3F510580F00C942E0E0C946F0E5F3F09
:101DA000E4F3983ED4F3869577956795B795F795C4
:101DB000E7959F5FC1F7FE2B880F911D969587953C
:101DC00097F908955058BB27AA270E94FA0E0C9441
:101DD0009A0F0E948C0F38F00E94930F20F039F474
:101DE0009F3F19F426F40C94420E0EF4E095E7FBA5
:101DF0000C942E0EE92F0E944C0E58F3BA1762076E
:101E000073078407950720F079F4A6F50C946E0EFD
:101E10000EF4E0950B2EBA2FA02D0B01B901900105
:101E20000C01CA01A0011124FF27591B99F0593F49
:101E300050F4503E68F11A16F040A22F232F342F91
:101E40004427585FF3CF469537952795A795F040DF
:101E50005395C9F77EF41F16BA0B620B730B840BF4
:101E6000BAF09150A1F0FF0FBB1F661F771F881FAC
:101E7000C2F70EC0BA0F621F731F841F48F4879504
:101E800077956795B795F7959E3F08F0B0CF9395F6
:101E9000880F08F09927EE0F979587950895E89495
:101EA00009C097FB3EF490958095709561957F4FA2
:101EB0008F4F9F4F9923A9F0F92F96E9BB27939550
:101EC000F695879577956795B795F111F8CFFAF460
:101ED000BB0F11F460FF1BC06F5F7F4F8F4F9F4F91
:101EE00016C0882311F096E911C0772321F09EE8EF
:101EF000872F762F05C0662371F096E8862F70E055
:101F000060E02AF09A95660F771F881FDAF7880F2E
:101F10009695879597F9089500240A941616170642
:101F200018060906089500240A94121613061406CA
:101F300005060895092E0394000C11F4882352F02D
:101F4000BB0F40F4BF2B11F460FF04C06F5F7F4FE5
:101F50008F4F9F4F08950E94DF0F08F481E008958E
:101F60000E94540E88F09F5798F0B92F9927B751C7
:101F7000B0F0E1F0660F771F881F991F1AF0BA952D
:101F8000C9F714C0B13091F00E946E0EB1E008950F
:101F90000C946E0E672F782F8827B85F39F0B93F01
:101FA000CCF3869577956795B395D9F73EF49095E0
:101FB0008095709561957F4F8F4F9F4F0895990F32
:101FC0000008550FAA0BE0E8FEEF16161706E80703
:101FD000F907C0F012161306E407F50798F0621B24
:101FE000730B840B950B39F40A2661F0232B242BF9
:101FF000252B21F408950A2609F4A140A6958FEF18
:10200000811D811D08950E94DF0F08F48FEF089550
:102010000E94DF0F880B990B0895A1E21A2EAA1BCC
:10202000BB1BFD010DC0AA1FBB1FEE1FFF1FA21788
:10203000B307E407F50720F0A21BB30BE40BF50B85
:10204000661F771F881F991F1A9469F7609570950E
:10205000809590959B01AC01BD01CF010895EE0FD5
:10206000FF1F881F8BBF0790F691E02D1994F894FD
:10207000FFCF69046D041904610465041E04700433
:1020800076047A048004840488048E0492041E0476
:0620900096049C04A0046C
:1020960000000000C30210039402A3022C02800277
:1020A60072020D0A006E616E00696E66006F7666DA
:1020B6000044485478782074657374210046616939
:1020C6006C656420746F20726561642066726F6D42
:1020D600204448542073656E736F72210048756DF5
:1020E60069646974793A20002025090054656D7089
:1020F600657261747572653A2000202A43200020BB
:102106002A4609004865617420696E6465783A203C
:0621160000202A46000033
:00000001FF
