:100000000C9402010C9433010C9433010C943301D1
:100010000C9433010C9433010C9433010C94330190
:100020000C9433010C9433010C9433010C94330180
:100030000C9433010C9433010C9433010C94330170
:100040000C9433010C9433010C9433010C94330160
:100050000C9433010C9433010C9433010C94F70687
:100060000C9433010C943F070C9470070C943301EB
:100070000C9433010C9433010C9433010C94330130
:100080000C9433010C9433010C9433010C94330120
:100090000C9433010C9433010C9433010C94330110
:1000A0000C9433010C9433010C9433010C94330100
:1000B0000C9433010C9433010C9433010C943301F0
:1000C0000C9433010C9433010C9433010C943301E0
:1000D0000C9433010C9433010C9433010C943301D0
:1000E0000C9433010C943C030C94D4020C9428031C
:1000F0000C9435010C946E090C946B030C94B803AA
:100100000C941A030C944B030000220025002800D5
:100110002B002E003100340002010000050108010F
:100120000B0100002100240027002A002D003000D0
:10013000330001010000040107010A010000200052
:100140002300260029002C002F00320000010000AF
:10015000030106010901050505050705080808084A
:10016000020202020A0A080804040404010101014F
:10017000010101010303030303030303040707074A
:100180000C0C0C0C0C0C0C0C0202020206060606EF
:10019000060606060B0B0B0B0B0B0B0B01021020BC
:1001A00020080810204010204080020102010804AD
:1001B0000201010204081020408080402010080441
:1001C000020180040201804020100804020108049A
:1001D00002010102040810204080010204081020DE
:1001E0004080005EBCE2613FDD83C29C7E20A3FDB7
:1001F0001F41009D23BE46DB65F88C11AF32CA5704
:10020000E9746E0911241FBECFEFD1E2DEBFCDBF6E
:1002100000E00CBF12E0A0E0B2E0EAE2F9E100E0A9
:100220000BBF02C007900D92AA35B107D9F723E0A2
:10023000AAE5B2E001C01D92A132B207E1F711E0D8
:10024000C2E0D1E000E006C021970109802FFE0145
:100250000E944F0AC130D10780E00807A9F70E9429
:100260009A070C94930C0C9400000895FC01908163
:100270000180F281E02DF8948181292F209582233D
:10028000818378948DE743E050E0815021F1DA01D9
:100290001197F1F730813923C1F3F89482818223D9
:1002A00082838181892B81837894ABE7B7E01197B2
:1002B000F1F7F894818182238183A3E1B1E0119762
:1002C000F1F78081982381E009F080E07894E3E6FB
:1002D000F6E03197F1F70895FC0180810180F28109
:1002E000E02D282F209560FF14C0F894928192236E
:1002F00092839181982B9183A3E2B0E01197F1F75B
:100300009281892B8283789487ED90E00197F1F7B1
:100310000895F8949281922392839181982B9183EE
:10032000AFEFB0E01197F1F79281892B8283789437
:100330008FE090E0EBCFFC0180810180F281E02D25
:10034000F8949181982B91839281282F2095922364
:100350009283A7E0B0E01197F1F791819223918306
:10036000A3E2B0E01197F1F790817894EFECF0E020
:100370003197F1F7982381E009F480E00895DF9246
:10038000EF92FF920F931F93CF93DF93EC01D62E42
:10039000142F88E0E82EF12C01E061E08D2D802300
:1003A00009F460E0CE010E946C01000F81E0E81AC0
:1003B000F10899F7111110C0F894E981FA8191813F
:1003C0008881809589238183E981FA81928188815E
:1003D0008095892382837894DF91CF911F910F912B
:1003E000FF90EF90DF900895EF92FF920F931F938D
:1003F000CF93DF938C017B0140E065E50E94BF0154
:10040000E701C70108967C01699140E0C8010E949C
:10041000BF01CE15DF05C1F7DF91CF911F910F917D
:10042000FF90EF900895FC0113861586148633968D
:1004300088E0DF011D928A95E9F70895282F80E072
:10044000615008F40895A22FB92F9D918927E82FB4
:10045000EF70F0E0EE51FE4F949182958F70805FC7
:10046000E82FF0E0EE51FE4F849189272A2F9B2F31
:10047000E7CFCF93DF9300D00F92CDB7DEB73FB772
:10048000F8948091180390911903A0911A03B091E8
:100490001B0326B5A89B05C02F3F19F00196A11D8F
:1004A000B11D3FBFBA2FA92F982F8827820F911D0A
:1004B000A11DB11D9C01AD0162E0220F331F441F3D
:1004C000551F6A95D1F7CA01B9010F900F900F908F
:1004D0000F90DF91CF9108958F929F92AF92BF922C
:1004E000CF92DF92EF92FF92CF93DF9300D00F92E3
:1004F000CDB7DEB76B017C010E9439024B015C0174
:10050000C114D104E104F104F9F40F900F900F909D
:100510000F90DF91CF91FF90EF90DF90CF90BF9041
:10052000AF909F908F90089521E0C21AD108E10802
:10053000F10888EE880E83E0981EA11CB11CC1143E
:10054000D104E104F104E1F20E943902DC01CB01A3
:1005500088199909AA09BB09883E9340A105B105EC
:1005600018F7CECFFC01848DDF01A80FB11DA35A6F
:10057000BF4F2C91848D90E001968F739927848FC3
:10058000A689B7892C93A089B1898C9183708064E6
:100590008C93938D848D981306C00288F389E02D87
:1005A00080818F7D80830895FC01818D228D90E074
:1005B000805C9F4F821B91098F73992708958BE769
:1005C00092E00E94D4029C0181E0232B09F480E098
:1005D000089580E090E0892B29F00E94DF028111CC
:1005E0000E94000080E090E0892B49F080E090E0DC
:1005F000892B29F00E94000081110E94000080E0F8
:1006000090E0892B49F080E090E0892B29F00E944E
:10061000000081110E94000080E090E0892B49F0E9
:1006200080E090E0892B29F00E94000081110C9459
:1006300000000895FC01918D828D981731F0828D14
:10064000E80FF11D858D90E008958FEF9FEF0895DD
:10065000FC01918D828D981761F0828DDF01A80FCA
:10066000B11D5D968C91928D9F5F9F73928F90E0EC
:1006700008958FEF9FEF0895FC01538D448D252F32
:1006800030E0842F90E0821B930B541710F0CF962C
:10069000089501970895CF93DF93EC01888D811120
:1006A0000FC0DF91CF9108950FB607FC0DC08C915C
:1006B00085FF08C0808185FF03C0CE010E94B20281
:1006C000AA89BB89E889F9898C9185FDEDCF808164
:1006D00086FFEACFE6CFEF92FF920F931F93CF935F
:1006E000DF93EC01F62E81E0888F9B8D8C8D981323
:1006F0001AC0E889F989808185FF15C09FB7F894F1
:10070000EE89FF896083E889F9898081837080643C
:1007100080839FBF81E090E0DF91CF911F910F9187
:10072000FF90EF9008950B8D10E00F5F1F4F0F7338
:100730001127E02E8C8D8E1579F08B8DFE01E80F40
:10074000F11DE35AFF4FF0829FB7F8940B8FEA89AF
:10075000FB8980818062DCCF0FB607FCEBCFE88994
:10076000F989808185FFE6CFCE010E94B202E2CFF7
:10077000CF92DF92EF92FF920F931F93CF93DF936D
:100780007C016A0110E000E00C151D0551F4C80160
:10079000DF91CF911F910F91FF90EF90DF90CF905D
:1007A0000895EB01D701ED91FC910190F081E02DCE
:1007B0006991C7011995892B51F30F5F1F4FBE0136
:1007C000E3CF8F929F92AF92BF92CF92DF92EF9240
:1007D000FF920F931F93CF93DF938C01EB018091D6
:1007E0006D0290916E020E943601811102C080E07C
:1007F0003FC0B80180916D0290916E020E94F40199
:1008000040E06EEB80916D0290916E020E94BF01FC
:100810008E015E0189E0A80EB11C80906D0290905F
:100820006E0288E0C82ED12CF12CEE24E394C40192
:100830000E949B018111FE28EE0CE1E0CE1AD10846
:10084000B1F7F801F1928F01EA15FB0531F78091BC
:100850006D0290916E020E943601813041F668E08F
:10086000CE010E941E02982F81E028852913BFCF58
:10087000DF91CF911F910F91FF90EF90DF90CF907C
:10088000BF90AF909F908F9008950F931F93CF9339
:10089000DF9300D000D000D0CDB7DEB78C01BE0111
:1008A0006F5F7F4F0E94E10320E834EE882351F10F
:1008B0002A8130E0322F2227330F330F330F898103
:1008C00048E0849FC0011124282B392BF801808136
:1008D0008031C1F4688570E08F81AB01481B5109FC
:1008E000CA019695982F8827979587950E94050AA3
:1008F0006051710953E0220F331F5A95E1F72078B8
:10090000260F371FC90129960FB6F894DEBF0FBE18
:10091000CDBFDF91CF911F910F910895CF93DF93BA
:1009200000D000D000D0CDB7DEB7FC01808180318F
:10093000E1F0BE016F5F7F4FCF010E94E10388238A
:10094000D1F08D818F3599F070F48F3191F08F3324
:1009500091F48AE029960FB6F894DEBF0FBECDBFA2
:10096000DF91CF9108958F3731F48CE0F3CF8BE096
:10097000F1CF89E0EFCF80E0EDCFBF92CF92DF9251
:10098000EF92FF920F931F93CF93DF93EC01B62E5C
:10099000C72E8D85811105C0CE010E9436018111BF
:1009A0000EC01B861D861C8680E0DF91CF911F91B3
:1009B0000F91FF90EF90DF90CF90BF90089540E0AF
:1009C00060EFCE010E94BF01FF24F394E12CD12CF3
:1009D00011E0CE010E949B01082FCE010E949B01D5
:1009E0000130C1F4813021F51134D8F2DB86D11009
:1009F00002C081E08D878B81882399F22396EB2DAD
:100A0000FC2DCF010896299121938E179F07D9F7C6
:100A100081E0CBCFEE2DF0E0081326C08B851817B0
:100A2000E0F4DE01AE0FBF1F13968C918F21B9F059
:100A3000FE01EE0DF11D83818F29838301E0602F7C
:100A4000CE010E946C011F5FFF0C19F6E39488E051
:100A5000E81651F2FF24F394BCCF811749F3193003
:100A600008F41C87D12E00E0EC0FFD1F83819F2D21
:100A7000909589238383E3CFCF93DF93EC0180911B
:100A80006D0290916E020E941302BE0180916D0270
:100A900090916E020E94BD04882349F067E0CE0168
:100AA0000E941E02982F81E02F81291380E0DF91A0
:100AB000CF910895BC01009761F0FC0101900020E6
:100AC000E9F73197AF01481B590B8BE792E00C9483
:100AD000B80308952F923F924F925F926F927F9248
:100AE0008F929F92AF92BF92CF92DF92EF92FF923E
:100AF0000F931F93CF93DF93CDB7DEB7A9970FB6B0
:100B0000F894DEBF0FBECDBF8B019C010AA31BA3CF
:100B10002CA33DA3142F2AA13BA14CA15DA1CA0186
:100B2000B9010E948E0C8823E1F088E192E0A99639
:100B30000FB6F894DEBF0FBECDBFDF91CF911F91EE
:100B40000F91FF90EF90DF90CF90BF90AF909F906C
:100B50008F907F906F905F904F903F902F900C946C
:100B60005A058AA19BA1ACA1BDA1BF778EA39FA36B
:100B7000A8A7B9A72FEF3FEF4FE75FE7BC01CD0173
:100B80000E948E0C81110FC02FEF3FEF4FE75FE700
:100B90006EA17FA188A599A50E94C40A18161CF40D
:100BA0008CE192E0C4CF2FEF3FEF4FE75FE46AA103
:100BB0007BA18CA19DA10E941C0C18161CF480E244
:100BC00092E0B5CF2FEF3FEF4FE75FEC6AA17BA13B
:100BD0008CA19DA10E94C40A87FDF1CF20E030E0E6
:100BE000A9016AA17BA18CA19DA10E94C40A87FFD3
:100BF0000EC06DE28BE792E00E946B038AA19BA17D
:100C0000ACA1BDA1B0588AA39BA3ACA3BDA300E037
:100C100060E070E080E09FE310137AC02AA13BA15E
:100C20004CA15DA16AA37BA38CA39DA36AA17BA118
:100C30008CA19DA10E94580A6B017C016AA3DBA2D2
:100C40008CA3FDA26AA17BA18CA19DA10E943B0B5C
:100C5000762EA72EB82E092F0E946A0B9B01AC019D
:100C60006AA17BA18CA19DA10E94570AF62EE72EB6
:100C7000D82EC92E19A24E0191E2890E911C8EA286
:100C8000692C9AE0292E312C412C512C672D7A2D7C
:100C90008B2D902FA20191010E94190A872D9A2D68
:100CA000AB2DB02F722EA32EB42E052F605DF40154
:100CB00062934F010A97A105B10540F7CF010E9449
:100CC0005A05112361F06EE28BE792E00E946B03FC
:100CD0008AE0282E312C412C512C111129C0A996C3
:100CE0000FB6F894DEBF0FBECDBFDF91CF911F913D
:100CF0000F91FF90EF90DF90CF90BF90AF909F90BB
:100D00008F907F906F905F904F903F902F900895BD
:100D100020E030E040E251E46EA37FA388A799A7CA
:100D20006EA17FA188A599A50E94C90A0F5F74CF03
:100D300020E030E040E251E4FAA2EBA2DCA2CDA236
:100D40006AA17BA18CA19DA10E94210C762E872EE9
:100D5000982E092F6AA37BA38CA39DA36AA17BA1D4
:100D60008CA19DA10E943B0B6B01CB01B0E0A0E0E8
:100D70008AA39BA3ACA3BDA319A2AEA0B62C6AA163
:100D80007BA18CA19DA1A20191010E94190A8AA1B7
:100D90009BA1ACA1BDA12AA33BA34CA35DA3605D15
:100DA000F50162935F010A97A105B10540F7CF01F4
:100DB0000E945A05C601B0E0A0E08AA39BA3ACA3A1
:100DC000BDA3B601CD010E946A0B9B01AC017AA2C2
:100DD0008BA29CA20DA36AA17BA18CA19DA10E94C4
:100DE000570AF62EE72ED82EC92E115076CF1F9215
:100DF0001FB61F9211242F933F938F939F93AF930E
:100E0000BF9380911D0390911E03A0911F03B09189
:100E1000200330911C0323E0230F2D3750F501965A
:100E2000A11DB11D20931C0380931D0390931E03ED
:100E3000A0931F03B093200380911803909119038E
:100E4000A0911A03B0911B030196A11DB11D8093BF
:100E5000180390931903A0931A03B0931B03BF9137
:100E6000AF919F918F913F912F911F901FBE1F9027
:100E7000189526E8230F0296A11DB11DD3CF2F93FD
:100E80002FB72F932BB72F938F939F93EF93FF93AE
:100E9000E0918B02F0918C028081E0919102F091BF
:100EA000920282FD1BC09081809194028F5F8F73AC
:100EB00020919502821741F0E0919402F0E0E5580C
:100EC000FD4F958F80939402FF91EF919F918F91A9
:100ED0002F912BBF2F912FBF2F9118958081F4CF89
:100EE0001F920F920FB60F9211240BB60F922F93F1
:100EF0003F934F935F936F937F938F939F93AF93A2
:100F0000BF93EF93FF938BE792E00E94B202FF91B1
:100F1000EF91BF91AF919F918F917F916F915F9171
:100F20004F913F912F910F900BBE0F900FBE0F90DE
:100F30001F901895CDB7DEB72C970FB6F894DEBF8B
:100F40000FBECDBF789484B5826084BD84B58160C6
:100F500084BD85B5826085BD85B5816085BD809184
:100F60006E00816080936E001092810080918100FC
:100F700082608093810080918100816080938100F4
:100F8000809180008160809380008091B1008460B6
:100F90008093B1008091B00081608093B000809117
:100FA0009100826080939100809191008160809394
:100FB0009100809190008160809390008091A100C9
:100FC00082608093A1008091A10081608093A10044
:100FD0008091A00081608093A000809121018260B7
:100FE0008093210180912101816080932101809172
:100FF000200181608093200180917A008460809339
:101000007A0080917A00826080937A0080917A00E1
:10101000816080937A0080917A00806880937A0062
:101020001092C100E0918B02F0918C0282E08083EB
:10103000E0918702F09188021082E0918902F0919C
:101040008A028FEC808310929302E0918F02F091DC
:10105000900286E08083E0918D02F0918E02808183
:1010600080618083E0918D02F0918E0280818860A2
:101070008083E0918D02F0918E0280818068808370
:10108000E0918D02F0918E0280818F7D808380912E
:101090006D0290916E020E94130280E09E012F5F0C
:1010A0003F4F7901CC24C39480936C02B7018091A7
:1010B0006D0290916E020E94BD041E2D0F2D8111B4
:1010C00070C080916D0290916E020E94360140E0E6
:1010D0006CEC80916D0290916E020E94BF01409174
:1010E000680264E480916D0290916E020E94BF01DB
:1010F00080916A028823B1F0E0916902E9508EEE96
:1011000092E0E33038F4F0E0EE0FFF1FEE5EFD4FAB
:10111000808191819C01990F440B550BCA01B90143
:101120000E946C0284E292E00E945A05812F902F67
:101130000E943C0581117BC060E070E08EEF92EC74
:1011400042E069877A878B879C8769857A858B855A
:101150009C850E946A058AE392E00E945A05812FCD
:10116000902F0E943C05811186C06AE979E984E4E8
:1011700093EC42E069877A878B879C8769857A85BB
:101180008B859C850E946A0586E592E00E945A053F
:1011900068E873E180E090E00E946C020E94E9023E
:1011A00090CF67E0C7010E941E02988589137ECF09
:1011B00080916802811126C080916D0290916E022B
:1011C0000E943601B70180916D0290916E020E94DB
:1011D000F40140E064EB80916D0290916E020E94F8
:1011E000BF0180916D0290916E020E949B01D82EEA
:1011F00080916D0290916E020E943601D11002C062
:10120000C0926802D0906902812F902F0E948E04B4
:101210008D1540F4809169028093690280916C027F
:101220008F5F42CF812F902F0E948E04F5CF812FA8
:10123000902F0E944504813844EE94070CF47CCF33
:10124000092E000CAA0BBB0B89879A87AB87BC873A
:10125000BC01CD010E946C0B20E030E040E05CE37B
:1012600069877A878B879C8769857A858B859C853A
:101270000E94210C65CF812F902F0E9445049C0174
:10128000213894EE39070CF470CFC901330FAA0B43
:10129000BB0B89879A87AB87BC87BC01CD010E94B5
:1012A0006C0B26E636E646E65CE369877A878B8731
:1012B0009C8769857A858B859C850E94210C20E01E
:1012C00030E040E052E469877A878B879C876985A4
:1012D0007A858B859C850E94580A4BCFCF93DF93EC
:1012E00010927E0210927D0288EE93E0A0E0B0E0C2
:1012F00080937F0290938002A0938102B093820238
:1013000084E092E090937C0280937B0285EC90E0F5
:10131000909388028093870284EC90E090938A02F5
:101320008093890280EC90E090938C0280938B02F2
:1013300081EC90E090938E0280938D0282EC90E09D
:101340009093900280938F0286EC90E090939202AB
:10135000809391021092940210929502109296023C
:10136000109297026EE971E0FB01449188E591E0EB
:10137000FC0124912223C1F030E0220F331FF90138
:10138000EE5DFE4FA591B491F901E85FFE4FC59166
:10139000D4915FB7F8943C91242F209532233C934D
:1013A0003881232328835FBFFB01649160935A0235
:1013B000FC018491E82FF0E0EE0FFF1FE45CFE4F8C
:1013C0008591949190935C0280935B028AE592E010
:1013D0000E94130285E391E090937A028093790250
:1013E0008AE592E090936E0280936D0210926C02F7
:1013F0001092680289E08093690281E080936A021A
:1014000080936B02DF91CF91089597FB072E16F41E
:10141000009407D077FD09D00E943B0A07FC05D055
:101420003EF4909581959F4F0895709561957F4FFB
:101430000895A1E21A2EAA1BBB1BFD010DC0AA1F15
:10144000BB1FEE1FFF1FA217B307E407F50720F02D
:10145000A21BB30BE40BF50B661F771F881F991FA8
:101460001A9469F760957095809590959B01AC01F1
:10147000BD01CF010895AA1BBB1B51E107C0AA1FE4
:10148000BB1FA617B70710F0A61BB70B881F991F25
:101490005A95A9F780959095BC01CD010895EE0F5E
:1014A000FF1F881F8BBF0790F691E02D19945058AD
:1014B000BB27AA270E946F0A0C94E20B0E94D40B50
:1014C00038F00E94DB0B20F039F49F3F19F426F42A
:1014D0000C94D10B0EF4E095E7FB0C94CB0BE92FA9
:1014E0000E94F30B58F3BA17620773078407950736
:1014F00020F079F4A6F50C94150C0EF4E0950B2E63
:10150000BA2FA02D0B01B90190010C01CA01A00155
:101510001124FF27591B99F0593F50F4503E68F1B0
:101520001A16F040A22F232F342F4427585FF3CFF1
:10153000469537952795A795F0405395C9F77EF4C2
:101540001F16BA0B620B730B840BBAF09150A1F00B
:10155000FF0FBB1F661F771F881FC2F70EC0BA0F91
:10156000621F731F841F48F4879577956795B79519
:10157000F7959E3F08F0B0CF9395880F08F0992714
:10158000EE0F9795879508950E94A70B08F481E0C8
:1015900008950E94DD0A0C94E20B0E94DB0B58F0C8
:1015A0000E94D40B40F029F45F3F29F00C94CB0B40
:1015B00051110C94160C0C94D10B0E94F30B68F390
:1015C0009923B1F3552391F3951B550BBB27AA27FC
:1015D00062177307840738F09F5F5F4F220F331F36
:1015E000441FAA1FA9F335D00E2E3AF0E0E832D0FE
:1015F00091505040E695001CCAF72BD0FE2F29D001
:10160000660F771F881FBB1F261737074807AB07D2
:10161000B0E809F0BB0B802DBF01FF2793585F4F47
:101620003AF09E3F510578F00C94CB0B0C94160CBD
:101630005F3FE4F3983ED4F3869577956795B79529
:10164000F7959F5FC9F7880F911D9695879597F934
:101650000895E1E0660F771F881FBB1F62177307AD
:101660008407BA0720F0621B730B840BBA0BEE1FC2
:1016700088F7E09508950E94FB0B88F09F5798F03B
:10168000B92F9927B751B0F0E1F0660F771F881F87
:10169000991F1AF0BA95C9F714C0B13091F00E94A1
:1016A000150CB1E008950C94150C672F782F88273E
:1016B000B85F39F0B93FCCF3869577956795B395C8
:1016C000D9F73EF490958095709561957F4F8F4F37
:1016D0009F4F0895E89409C097FB3EF4909580953C
:1016E000709561957F4F8F4F9F4F9923A9F0F92FE8
:1016F00096E9BB279395F695879577956795B79566
:10170000F111F8CFFAF4BB0F11F460FF1BC06F5F4B
:101710007F4F8F4F9F4F16C0882311F096E911C05D
:10172000772321F09EE8872F762F05C0662371F07E
:1017300096E8862F70E060E02AF09A95660F771F92
:10174000881FDAF7880F9695879597F90895990F6E
:101750000008550FAA0BE0E8FEEF16161706E8077B
:10176000F907C0F012161306E407F50798F0621B9C
:10177000730B840B950B39F40A2661F0232B242B71
:10178000252B21F408950A2609F4A140A6958FEF90
:10179000811D811D089597F99F6780E870E060E0E2
:1017A00008959FEF80EC089500240A9416161706FA
:1017B00018060906089500240A9412161306140642
:1017C00005060895092E0394000C11F4882352F0A5
:1017D000BB0F40F4BF2B11F460FF04C06F5F7F4F5D
:1017E0008F4F9F4F089557FD9058440F551F59F044
:1017F0005F3F71F04795880F97FB991F61F09F3FFE
:1018000079F087950895121613061406551FF2CF26
:101810004695F1DF08C0161617061806991FF1CF76
:1018200086957105610508940895E894BB2766279D
:101830007727CB0197F908950E94A70B08F48FEF43
:1018400008950E94340C0C94E20B0E94D40B38F0E3
:101850000E94DB0B20F0952311F00C94CB0B0C9421
:10186000D10B11240C94160C0E94F30B70F3959F6E
:10187000C1F3950F50E0551F629FF001729FBB2787
:10188000F00DB11D639FAA27F00DB11DAA1F649F23
:101890006627B00DA11D661F829F2227B00DA11DD6
:1018A000621F739FB00DA11D621F839FA00D611D5C
:1018B000221F749F3327A00D611D231F849F600D7D
:1018C000211D822F762F6A2F11249F5750409AF0A6
:1018D000F1F088234AF0EE0FFF1FBB1F661F771F32
:1018E000881F91505040A9F79E3F510580F00C94FD
:1018F000CB0B0C94160C5F3FE4F3983ED4F3869523
:1019000077956795B795F795E7959F5FC1F7FE2B9C
:10191000880F911D9695879597F908950E94A70BBA
:0A192000880B990B0895F894FFCF8F
:10192A00000000006B03B8033C034B03D4022803F6
:10193A001A035E00BC0077016E616E00696E660074
:10194A006F76660043656C736975732074656D7094
:10195A00657261747572653A2000202D20466168AF
:10196A0072656E686569742074656D7065726174FC
:0A197A007572653A20000D0A0000A6
:00000001FF
