:100000000C9435010C9466010C9466010C94660105
:100010000C9466010C9466010C9466010C946601C4
:100020000C9466010C9466010C9466010C946601B4
:100030000C9466010C9466010C9466010C946601A4
:100040000C9466010C9466010C9466010C94660194
:100050000C9466010C9466010C9466010C948A035E
:100060000C9466010C94D2030C9403040C94660166
:100070000C9466010C9466010C9466010C94660164
:100080000C9466010C9466010C9466010C94660154
:100090000C9466010C9466010C9466010C94660144
:1000A0000C9466010C9466010C9466010C94660134
:1000B0000C9466010C9466010C9466010C94660124
:1000C0000C9466010C9466010C9466010C94660114
:1000D0000C9466010C9466010C9466010C94660104
:1000E0000C9466010C94E0010C94E7020C94EB0173
:1000F0000C941B020C9407030C94F5010C94FF0163
:100100000C9409020C94E4010C9417020C94DC0189
:100110000C94E8010C94B6020C94D8020C942D04B3
:100120000C94D6010C9403020C94FB010C940D0268
:100130000C9454030C9411020C94F1010C94700271
:100140000C94C4020C941602000020002300260028
:1001500029002C002F0032000001000003010601DD
:10016000090100000A0B02090C0D0E080703040127
:10017000000000000000000000000000000000007F
:10018000000000000000000000000000000012114C
:10019000100000000000000000000000000000004F
:1001A00000000000000000000000220025002800E0
:1001B0002B002E003100340002010000050108016F
:1001C0000B0100002100240027002A002D00300030
:1001D000330001010000040107010A0105050505BE
:1001E000070508080808020202020A0A08080404AF
:1001F00004040101010101010101030303030303DD
:100200000303040707070C0C0C0C0C0C0C0C02026B
:10021000020206060606060606060B0B0B0B0B0B68
:100220000B0B0102102020080810204010204080F5
:1002300002010201080402010102040810204080AA
:100240008040201008040201800402018040201038
:100250000804020108040201010204081020408081
:1002600001020408102040802D0411241FBECFEF8E
:10027000D1E2DEBFCDBF00E00CBF12E0A0E0B2E0F3
:10028000E4E2FBE000E00BBF02C007900D92AC334C
:10029000B107D9F722E0ACE3B2E001C01D92A23E63
:1002A000B207E1F711E0C5E3D1E000E006C0219715
:1002B0000109802FFE010E947605C433D10780E03A
:1002C0000807A9F70E945A040C947E050C940000BC
:1002D000CF93DF9300D00F92CDB7DEB73FB7F8943E
:1002E0008091D9029091DA02A091DB02B091DC02F8
:1002F00026B5A89B05C02F3F19F00196A11DB11D81
:100300003FBFBA2FA92F982F8827820F911DA11DBB
:10031000B11D9C01AD0162E0220F331F441F551F28
:100320006A95D1F7CA01B9010F900F900F900F9005
:10033000DF91CF910895CF93DF9390E0FC01EE5DC4
:10034000FD4F249184529E4FFC0184918823D1F06B
:1003500090E0880F991FFC01EE53FE4FA591B491D8
:10036000FC01E855FE4FC591D4919FB761110DC0B6
:10037000F8948C91E22FE0958E238C9388818E23C4
:1003800088839FBFDF91CF910895F8948C91822B41
:100390008C93F7CF8150823108F048C0E82FF0E00D
:1003A0008827E058FA4F8F4F0C9476058091800093
:1003B0008F77809380000895809180008F7DF9CFA2
:1003C00080918000877FF5CF84B58F7784BD0895B5
:1003D00084B58F7DFBCF8091B0008F778093B00084
:1003E00008958091B0008F7DF9CF809190008F7734
:1003F000809390000895809190008F7DF9CF809137
:100400009000877FF5CF8091A0008F778093A00028
:1004100008958091A0008F7DF9CF8091A000877F03
:10042000F5CF809120018F778093200108958091EE
:1004300020018F7DF9CF80912001877FF5CF1F9319
:10044000CF93DF93162F282F30E0F901EE59FE4F9E
:100450008491F901EE5DFD4FD491F901E452FE4F14
:10046000C491CC23A1F081110E94CA01EC2FF0E0CD
:10047000EE0FFF1FE855FE4FA591B4919FB7F8947A
:100480008C91111108C0D095D823DC939FBFDF91C8
:10049000CF911F9108958D2B8C93F8CFFC01848D03
:1004A000DF01A80FB11DA35ABF4F2C91848D90E09E
:1004B00001968F739927848FA689B7892C93A08979
:1004C000B1898C91837080648C93938D848D981303
:1004D00006C00288F389E02D80818F7D8083089596
:1004E000FC01818D228D90E0805C9F4F821B9109E1
:1004F0008F73992708958CE392E00E9470029C010B
:1005000081E0232B09F480E0089580E090E0892BBE
:1005100029F00E947B0281110E94000080E090E09F
:10052000892B49F080E090E0892B29F00E9400009F
:1005300081110E94000080E090E0892B49F080E06A
:1005400090E0892B29F00E94000081110E94000098
:1005500080E090E0892B49F080E090E0892B29F041
:100560000E94000081110C9400000895FC01918DFF
:10057000828D981731F0828DE80FF11D858D90E006
:1005800008958FEF9FEF0895FC01918D828D98174C
:1005900061F0828DDF01A80FB11D5D968C91928D67
:1005A0009F5F9F73928F90E008958FEF9FEF089564
:1005B000FC01538D448D252F30E0842F90E0821B69
:1005C000930B541710F0CF96089501970895CF9389
:1005D000DF93EC01888D81110FC0DF91CF910895D9
:1005E0000FB607FC0DC08C9185FF08C0808185FF88
:1005F00003C0CE010E944E02AA89BB89E889F9890D
:100600008C9185FDEDCF808186FFEACFE6CFEF921A
:10061000FF920F931F93CF93DF93EC01F62E81E0AF
:10062000888F9B8D8C8D98131AC0E889F9898081F9
:1006300085FF15C09FB7F894EE89FF896083E8892C
:10064000F98980818370806480839FBF81E090E01E
:10065000DF91CF911F910F91FF90EF9008950B8D37
:1006600010E00F5F1F4F0F731127E02E8C8D8E153A
:1006700079F08B8DFE01E80FF11DE35AFF4FF082F8
:100680009FB7F8940B8FEA89FB8980818062DCCF69
:100690000FB607FCEBCFE889F989808185FFE6CFAB
:1006A000CE010E944E02E2CFCF92DF92EF92FF92F4
:1006B0000F931F93CF93DF937C016A0110E000E05A
:1006C0000C151D0551F4C801DF91CF911F910F91B9
:1006D000FF90EF90DF90CF900895EB01D701ED915F
:1006E000FC910190F081E02D6991C7011995892B4A
:1006F00051F30F5F1F4FBE01E3CFBC01FC0101901E
:100700000020E9F73197AF01481B590B8CE392E0C9
:100710000C9454031F921FB61F9211242F933F93E2
:100720008F939F93AF93BF938091DE029091DF02EE
:10073000A091E002B091E1023091DD0223E0230FAD
:100740002D3750F50196A11DB11D2093DD02809338
:10075000DE029093DF02A093E002B093E102809169
:10076000D9029091DA02A091DB02B091DC020196ED
:10077000A11DB11D8093D9029093DA02A093DB02F0
:10078000B093DC02BF91AF919F918F913F912F91D8
:100790001F901FBE1F90189526E8230F0296A11DDB
:1007A000B11DD3CF2F932FB72F932BB72F938F93A9
:1007B0009F93EF93FF93E0914C02F0914D02808163
:1007C000E0915202F091530282FD1BC09081809112
:1007D00055028F5F8F7320915602821741F0E0918E
:1007E0005502F0E0E45CFD4F958F80935502FF9138
:1007F000EF919F918F912F912BBF2F912FBF2F9111
:1008000018958081F4CF1F920F920FB60F9211248A
:100810000BB60F922F933F934F935F936F937F93FA
:100820008F939F93AF93BF93EF93FF938CE392E0EB
:100830000E944E02FF91EF91BF91AF919F918F91D6
:100840007F916F915F914F913F912F910F900BBED0
:100850000F900FBE0F901F901895ECE3F2E01382FB
:10086000128288EE93E0A0E0B0E084839583A683B3
:10087000B78384E092E09183808385EC90E0958754
:10088000848784EC90E09787868780EC90E0918B5A
:10089000808B81EC90E0938B828B82EC90E0958B47
:1008A000848B86EC90E0978B868B118E128E138E44
:1008B000148E089500D00F92CDB7DEB7789484B52A
:1008C000826084BD84B5816084BD85B5826085BD4C
:1008D00085B5816085BD80916E00816080936E00DA
:1008E00010928100809181008260809381008091CC
:1008F000810081608093810080918000816080937D
:1009000080008091B10084608093B1008091B0003C
:1009100081608093B000809191008260809391000B
:10092000809191008160809391008091900081601E
:10093000809390008091A10082608093A1008091BB
:10094000A10081608093A1008091A00081608093CC
:10095000A00080912101826080932101809121017A
:10096000816080932101809120018160809320012A
:1009700080917A00846080937A0080917A0082600E
:1009800080937A0080917A00816080937A008091D0
:100990007A00806880937A001092C10061E088E05C
:1009A0000E949B0161E08AE00E949B0160E086E07A
:1009B0000E949B01E0914C02F0914D0282E0808305
:1009C000E0914802F09149021082E0914A02F091D0
:1009D0004B028FEC808310925402E0915002F09110
:1009E000510286E08083E0914E02F0914F028081B7
:1009F00080618083E0914E02F0914F028081886097
:100A00008083E0914E02F0914F0280818068808364
:100A1000E0914E02F0914F0280818F7D808308E249
:100A200012E022EEE22E21E0F22EE8E6F1E08491DF
:100A3000F801B490F701D490DD2009F44CC0811185
:100A40000E94CA01ED2DF0E0EE0FFF1FE85BFE4FA4
:100A5000A591B4918C91B822F1F160E088E00E94F8
:100A60001F0261E08AE00E941F0282E192E00E9480
:100A70007D0386E292E00E947D030E9468014B01A3
:100A80005C0188E8482E83E1582E612C712C0E946D
:100A9000680169837A838B839C83DC01CB0188198D
:100AA0009909AA09BB09883E9340A105B10578F3CD
:100AB000F1E04F1A51086108710828EE820E23E018
:100AC000921EA11CB11C4114510461047104F9F679
:100AD0000E948502AACF61E088E00E941F0260E0C8
:100AE0008AE00E941F0289E292E0C1CFEE0FFF1F51
:100AF000881F8BBF0790F691E02D1994F894FFCFD3
:100B0000E401E801D601DC01E0011602EB01F1018C
:100B1000F501FB01FF01030209020D021602110299
:040B200017021B029B
:100B24000000000007035403D802E7027002C40265
:100B3400B602596F757220446F6F72206973204337
:100B44006C6F736564000D0A00596F757220446FF1
:0C0B54006F72206973204F70656E000006
:00000001FF
