:100000000C9435010C9466010C9466010C94660105
:100010000C9466010C9466010C9466010C946601C4
:100020000C9466010C9466010C9466010C946601B4
:100030000C9466010C9466010C9466010C946601A4
:100040000C9466010C9466010C9466010C94660194
:100050000C9466010C9466010C9466010C940A04DD
:100060000C9466010C9452040C9483040C94660165
:100070000C9466010C9466010C9466010C94660164
:100080000C9466010C9466010C9466010C94660154
:100090000C9466010C9466010C9466010C94660144
:1000A0000C9466010C9466010C9466010C94660134
:1000B0000C9466010C9466010C9466010C94660124
:1000C0000C9466010C9466010C9466010C94660114
:1000D0000C9466010C9466010C9466010C94660104
:1000E0000C9466010C94AC020C942F020C94330215
:1000F0000C940A020C9466020C942B020C94CE020F
:100100000C9413020C943D020C9421020C942502D1
:100110000C94BA020C94EC010C9406020C94170295
:100120000C94F2040C940D020C94E7010C94FE0163
:100130000C9439020C94FD020C94DD020C94020222
:100140000C944A030C941D0200002000230026009A
:1001500029002C002F0032000001000003010601DD
:10016000090100000A0B02090C0D0E080703040127
:10017000000000000000000000000000000000007F
:10018000000000000000000000000000000012114C
:10019000100000000000000000000000000000004F
:1001A00000000000000000000000220025002800E0
:1001B0002B002E003100340002010000050108016F
:1001C0000B0100002100240027002A002D00300030
:1001D000330001010000040107010A0105050505BE
:1001E000070508080808020202020A0A08080404AF
:1001F00004040101010101010101030303030303DD
:100200000303040707070C0C0C0C0C0C0C0C02026B
:10021000020206060606060606060B0B0B0B0B0B68
:100220000B0B0102102020080810204010204080F5
:1002300002010201080402010102040810204080AA
:100240008040201008040201800402018040201038
:100250000804020108040201010204081020408081
:100260000102040810204080F20411241FBECFEFC9
:10027000D1E2DEBFCDBF00E00CBF12E0A0E0B2E0F3
:10028000E0E4F0E100E00BBF02C007900D92AE3158
:10029000B107D9F722E0AEE1B2E001C01D92A83C5F
:1002A000B207E1F711E0C5E3D1E000E006C0219715
:1002B0000109802FFE010E94CE06C433D10780E0E1
:1002C0000807A9F70E941F050C940C080C94000065
:1002D000CF93DF9300D00F92CDB7DEB73FB7F8943E
:1002E0008091BF029091C002A091C102B091C20260
:1002F00026B5A89B05C02F3F19F00196A11DB11D81
:100300003FBFBA2FA92F982F8827820F911DA11DBB
:10031000B11D9C01AD0162E0220F331F441F551F28
:100320006A95D1F7CA01B9010F900F900F900F9005
:10033000DF91CF910895CF93DF9390E0FC01EE5DC4
:10034000FD4F249184529E4FFC0184918823D1F06B
:1003500090E0880F991FFC01EE53FE4FA591B491D8
:10036000FC01E855FE4FC591D4919FB761110DC0B6
:10037000F8948C91E22FE0958E238C9388818E23C4
:1003800088839FBFDF91CF910895F8948C91822B41
:100390008C93F7CF282F30E0F901EE59FE4F94915E
:1003A000F901EE5DFD4F449124523E4FF901249135
:1003B000222319F1992381F09150923168F4E92FA9
:1003C000F0E08827E25FF74F8F4F0C94CE068091C4
:1003D00080008F7780938000E22FF0E0EE0FFF1F08
:1003E000E855FE4FA591B4919FB7F8948C91611197
:1003F00048C0409548234C939FBF0895809180004A
:100400008F7DE8CF80918000877FE4CF84B58F77A0
:1004100084BDE2CF84B58F7DFBCF8091B0008F7714
:100420008093B000D9CF8091B0008F7DF9CF8091BB
:1004300090008F7780939000CFCF809190008F7D38
:10044000F9CF80919000877FF5CF8091A0008F77C2
:100450008093A000C1CF8091A0008F7DF9CF8091C3
:10046000A000877FF5CF809120018F7780932001B6
:10047000B3CF809120018F7DF9CF80912001877FBC
:10048000F5CF842B8C93B8CFFC01848DDF01A80FAE
:10049000B11DA35ABF4F2C91848D90E001968F73AC
:1004A0009927848FA689B7892C93A089B1898C91CB
:1004B000837080648C93938D848D981306C002881A
:1004C000F389E02D80818F7D80830895FC01818DEB
:1004D000228D90E0805C9F4F821B91098F7399273A
:1004E000089582E292E00E9466029C0181E0232B43
:1004F00009F480E0089580E090E0892B29F00E94C3
:10050000710281110E94000080E090E0892B49F087
:1005100080E090E0892B29F00E94000081110E9468
:10052000000080E090E0892B49F080E090E0892B8A
:1005300029F00E94000081110E94000080E090E0FC
:10054000892B49F080E090E0892B29F00E9400007F
:1005500081110C9400000895FC01918D828D9817F3
:1005600031F0828DE80FF11D858D90E008958FEFB9
:100570009FEF0895FC01918D828D981761F0828D17
:10058000DF01A80FB11D5D968C91928D9F5F9F73C7
:10059000928F90E008958FEF9FEF0895FC01538DA7
:1005A000448D252F30E0842F90E0821B930B54174D
:1005B00010F0CF96089501970895CF93DF93EC0143
:1005C000888D81110FC0DF91CF9108950FB607FC80
:1005D0000DC08C9185FF08C0808185FF03C0CE01CE
:1005E0000E944402AA89BB89E889F9898C9185FD1A
:1005F000EDCF808186FFEACFE6CFEF92FF920F9397
:100600001F93CF93DF93EC01F62E81E0888F9B8DB3
:100610008C8D98131AC0E889F989808185FF15C0EF
:100620009FB7F894EE89FF896083E889F989808112
:100630008370806480839FBF81E090E0DF91CF91E1
:100640001F910F91FF90EF9008950B8D10E00F5FB9
:100650001F4F0F731127E02E8C8D8E1579F08B8D27
:10066000FE01E80FF11DE35AFF4FF0829FB7F894A7
:100670000B8FEA89FB8980818062DCCF0FB607FC93
:10068000EBCFE889F989808185FFE6CFCE010E9412
:100690004402E2CFCF92DF92EF92FF920F931F932B
:1006A000CF93DF937C016A0110E000E00C151D057B
:1006B00051F4C801DF91CF911F910F91FF90EF90FE
:1006C000DF90CF900895EB01D701ED91FC9101905F
:1006D000F081E02D6991C7011995892B51F30F5FC6
:1006E0001F4FBE01E3CFBC01009761F0FC010190F8
:1006F0000020E9F73197AF01481B590B82E292E0E5
:100700000C944A0308954F925F926F927F92BF922A
:10071000CF92DF92EF92FF920F931F93CF93DF93CD
:10072000CDB7DEB7A5970FB6F894DEBF0FBECDBF2D
:100730006B017C01F7FE48C06DE282E292E00E940C
:10074000FD0288279927DC018C199D09AE09BF0994
:100750008AA39BA3ACA3BDA319A2DE0191967D0140
:100760009AE0492E512C612C712C6AA17BA18CA19D
:100770009DA1A30192010E948D068AA19BA1ACA11B
:10078000BDA12AA33BA34CA35DA3605DF7016293C7
:100790007F010A97A105B10540F7C7010E947303C5
:1007A000A5960FB6F894DEBF0FBECDBFDF91CF91F7
:1007B0001F910F91FF90EF90DF90CF90BF907F90AF
:1007C0006F905F904F900895B62E0D2D182FDF2C4F
:1007D00019A2CE0181967C018AE0482E512C612C11
:1007E000712C6B2D702F812F9D2DA30192010E94E2
:1007F0008D068B2D902FA12FBD2DB22E032F142FE0
:10080000D52E605DF70162937F010A97A105B105BE
:1008100040F7C3CF1F921FB61F9211242F933F930F
:100820008F939F93AF93BF938091C4029091C50221
:10083000A091C602B091C7023091C30223E0230FFA
:100840002D3750F50196A11DB11D2093C302809351
:10085000C4029093C502A093C602B093C7028091D0
:10086000BF029091C002A091C102B091C202019654
:10087000A11DB11D8093BF029093C002A093C1023D
:10088000B093C202BF91AF919F918F913F912F91F1
:100890001F901FBE1F90189526E8230F0296A11DDA
:1008A000B11DD3CF2F932FB72F932BB72F938F93A8
:1008B0009F93EF93FF93E0913202F0913302808196
:1008C000E0913802F091390282FD1BC09081809145
:1008D0003B028F5F8F7320913C02821741F0E091C1
:1008E0003B02F0E0EE5DFD4F958F80933B02FF9160
:1008F000EF919F918F912F912BBF2F912FBF2F9110
:1009000018958081F4CF1F920F920FB60F92112489
:100910000BB60F922F933F934F935F936F937F93F9
:100920008F939F93AF93BF93EF93FF9382E292E0F5
:100930000E944402FF91EF91BF91AF919F918F91DF
:100940007F916F915F914F913F912F910F900BBECF
:100950000F900FBE0F901F901895CF92DF92EF92DD
:10096000FF920F931F93E82FF92F05C00150110933
:100970002109310961F1908196239417B9F305C0DB
:10098000015011092109310911F190819623941325
:10099000F7CFC12CD12CE12CF12C0AC08FEFC81A53
:1009A000D80AE80AF80A0C151D052E053F0579F04E
:1009B00080818623841791F36C2D7D2D8E2D9F2DA4
:1009C0001F910F91FF90EF90DF90CF90089560E01E
:1009D00070E080E090E01F910F91FF90EF90DF902A
:1009E000CF900895E2E2F2E01382128288EE93E063
:1009F000A0E0B0E084839583A683B78384E092E08F
:100A00009183808385EC90E09587848784EC90E0E7
:100A10009787868780EC90E0918B808B81EC90E0CB
:100A2000938B828B82EC90E0958B848B86EC90E0AC
:100A3000978B868B118E128E138E148E089500D094
:100A40000F92CDB7DEB7789484B5826084BD84B54B
:100A5000816084BD85B5826085BD85B5816085BDB9
:100A600080916E00816080936E0010928100809171
:100A700081008260809381008091810081608093F9
:100A80008100809180008160809380008091B1001E
:100A900084608093B1008091B00081608093B00049
:100AA000809191008260809391008091910081609B
:100AB000809391008091900081608093900080915C
:100AC000A10082608093A1008091A1008160809349
:100AD000A1008091A00081608093A00080912101FD
:100AE00082608093210180912101816080932101A6
:100AF0008091200181608093200180917A00846040
:100B000080937A0080917A00826080937A0080914D
:100B10007A00816080937A0080917A008068809367
:100B20007A001092C100E0913202F091330282E02B
:100B30008083E0912E02F0912F021082E09130022A
:100B4000F09131028FEC808310923A02E0913602EC
:100B5000F091370286E08083E0913402F091350213
:100B6000808180618083E0913402F0913502808140
:100B700088608083E0913402F09135028081806842
:100B80008083E0913402F091350280818F7D8083F3
:100B900061E08BE00E949B0160E08CE00E949B0181
:100BA0005EE2252E52E0352E64E9462E512C612C52
:100BB000712C60E08BE00E94CA018FE090E0019709
:100BC000F1F761E08BE00E94CA0183E290E00197B7
:100BD000F1F760E08BE00E94CA0160E08CE00E94C7
:100BE0009B01F1016491E8EEF1E08491E82FF0E0DF
:100BF000EE0FFF1FE85BFE4F8591949100E412E435
:100C00002FE030E0462F0E94AD046B017C01C1143F
:100C1000D104E104F10439F0FFEFCF1ADF0AEF0A43
:100C2000FF0A2FE0F222D701C601B595A795979547
:100C3000879589839A83AB83BC83BC01CD010E94D5
:100C400080072DEC3CEC48EE51E469837A838B837A
:100C50009C8369817A818B819C810E94D6066983FD
:100C60007A838B839C8369817A818B819C810E94AA
:100C7000480760931E0270931F0280932002909396
:100C80002102C701B601A30192010E94AF06CA0169
:100C9000B9010E94830382E192E00E947303809174
:100CA0001E0290911F02A0912002B0912102BC016E
:100CB000CD010E94830387E192E00E9473038AE1E1
:100CC00092E00E9473030E9468016B017C0138E886
:100CD000832E33E1932EA12CB12C0E946801DC01FC
:100CE000CB018C199D09AE09BF09883E9340A1052F
:100CF000B10598F391E0891A9108A108B108A8EE0E
:100D0000CA0EA3E0DA1EE11CF11C81149104A104B7
:100D1000B10419F70E947B024CCFA1E21A2EAA1B44
:100D2000BB1BFD010DC0AA1FBB1FEE1FFF1FA2179B
:100D3000B307E407F50720F0A21BB30BE40BF50B98
:100D4000661F771F881F991F1A9469F76095709521
:100D5000809590959B01AC01BD01CF010895052EB2
:100D600097FB1EF400940E94C60657FD07D00E9410
:100D70008D0607FC03D04EF40C94C60650954095A2
:100D8000309521953F4F4F4F5F4F08959095809537
:100D9000709561957F4F8F4F9F4F0895EE0FFF1F06
:100DA000881F8BBF0790F691E02D19940E94EA06E8
:100DB0000C94D2070E94CB0758F00E94C40740F061
:100DC00029F45F3F29F00C94BB0751110C940608DD
:100DD0000C94C1070E94E30768F39923B1F35523EC
:100DE00091F3951B550BBB27AA276217730784073E
:100DF00038F09F5F5F4F220F331F441FAA1FA9F3D4
:100E000035D00E2E3AF0E0E832D091505040E695C1
:100E1000001CCAF72BD0FE2F29D0660F771F881F22
:100E2000BB1F261737074807AB07B0E809F0BB0B15
:100E3000802DBF01FF2793585F4F3AF09E3F510529
:100E400078F00C94BB070C9406085F3FE4F3983EDF
:100E5000D4F3869577956795B795F7959F5FC9F712
:100E6000880F911D9695879597F90895E1E0660F93
:100E7000771F881FBB1F621773078407BA0720F00C
:100E8000621B730B840BBA0BEE1F88F7E095089575
:100E90000E944F076894B1110C94060808950E94AF
:100EA000EB0788F09F5798F0B92F9927B751B0F00A
:100EB000E1F0660F771F881F991F1AF0BA95C9F7DE
:100EC00014C0B13091F00E940508B1E008950C946F
:100ED0000508672F782F8827B85F39F0B93FCCF322
:100EE000869577956795B395D9F73EF4909580955B
:100EF000709561957F4F8F4F9F4F0895E89409C07B
:100F000097FB3EF490958095709561957F4F8F4F3C
:100F10009F4F9923A9F0F92F96E9BB279395F69552
:100F2000879577956795B795F111F8CFFAF4BB0FD0
:100F300011F460FF1BC06F5F7F4F8F4F9F4F16C034
:100F4000882311F096E911C0772321F09EE8872FBE
:100F5000762F05C0662371F096E8862F70E060E07A
:100F60002AF09A95660F771F881FDAF7880F9695F3
:100F7000879597F9089597F99F6780E870E060E09A
:100F800008959FEF80EC089500240A941616170622
:100F900018060906089500240A941216130614066A
:100FA00005060895092E0394000C11F4882352F0CD
:100FB000BB0F40F4BF2B11F460FF04C06F5F7F4F85
:100FC0008F4F9F4F089557FD9058440F551F59F06C
:100FD0005F3F71F04795880F97FB991F61F09F3F26
:100FE00079F087950895121613061406551FF2CF4F
:100FF0004695F1DF08C0161617061806991FF1CF9F
:1010000086957105610508940895E894BB276627C5
:101010007727CB0197F90895F894FFCF06020A02CB
:10102000E701FE010202EC010D02130217021D028C
:10103000210225022B022F02EC01330239023D026C
:1010400000000000FD024A03CE02DD026602BA0281
:0E105000AC02696E2C2000636D000D0A0000DA
:00000001FF
